:100000000C9494000C94BC000C94BC000C94BA0B9F
:100010000C94BA0B0C94BA0B0C94BC000C94BC005E
:100020000C94BC000C94BC000C94BC000C94BC0060
:100030000C94BC000C94BC000C94BC000C94BC0050
:100040000C94AE0E0C94BC000C9431100C947410F3
:100050000C94BC000C94BC000C94BC000C94BC0030
:100060000C94BC000C94BC0044656275673B004472
:10007000656275673B00575000575000534D005361
:100080004D00616C697665005374617475734368E3
:1000900065636B3B0053687574646F776E20416CC9
:1000A0006C20746170732C206E6F2073656C6563B7
:1000B00074004D697373696E6720436F6E6669677C
:1000C00075726174696F6E20456E640000000007F0
:1000D0000002010000030406000000000000000010
:1000E00001020408102040800102040810200102CF
:1000F000040810200404040404040404020202029C
:100100000202030303030303000000002300260090
:10011000290000000000250028002B00000000003E
:10012000240027002A00391111241FBECFEFD8E088
:10013000DEBFCDBF11E0A0E0B1E0EAEAFDE202C01F
:1001400005900D92AE3DB107D9F726E0AEEDB1E0D6
:1001500001C01D92AB38B207E1F710E0C4E9D0E06E
:1001600004C02197FE010E942513C339D107C9F7A6
:100170000E948A0F0C94D3160C940000883038F03B
:100180008E3040F0863148F4ECE6F0E008C0EDE651
:10019000F0E005C0EBE6F0E002C0E0E0F0E09081C6
:1001A000883068F441E050E060E070E0082E04C060
:1001B000440F551F661F771F0A94D2F714C0282FCB
:1001C00030E08E3018F42850310902C02E50310929
:1001D00041E050E060E070E004C0440F551F661F2E
:1001E000771F2A95D2F7492B40832BB3883050F0E4
:1001F00031E08E3008F430E091E001C0990F3A957B
:10020000EAF701C094E0922B9BBB90916800883084
:1002100050F021E08E3008F420E081E001C0880F2A
:100220002A95EAF701C084E0892B8093680008953D
:10023000CF92DF92EF92FF9240911A0150911B01F1
:10024000E0E6F5E020E030E024173507D9F0261786
:100250003707A1F0A081B181A817B90779F4D901B6
:10026000AA0FBB1FAA0FBB1FAA58BC4FCD90DD9091
:10027000ED90FC90CD28CE28CF2839F42F5F3F4F4A
:100280003296E2CF80E090E002C081E090E0FF9003
:10029000EF90DF90CF900895CF92DF92EF92FF9290
:1002A0000F931F93CF93DF936B017C018A01E901C8
:1002B0006CE171E081EE95E00E94D4112AE030E01B
:1002C000B701A60181EE95E00E946B1260E271E039
:1002D00081EE95E00E94D4114AE050E0B80181EE31
:1002E00095E00E94B51260E271E081EE95E00E9417
:1002F000D4114AE050E0BE0181EE95E00E94ED127B
:1003000081EE95E0DF91CF911F910F91FF90EF90DB
:10031000DF90CF900C94E30FCF92DF92EF92FF9299
:10032000CF93DF936B017C01EA016FE171E081EE15
:1003300095E00E94D4112AE030E0B701A60181EED9
:1003400095E00E946B1260E271E081EE95E00E9400
:10035000D4114AE050E0BE0181EE95E00E94BC124B
:1003600081EE95E0DF91CF91FF90EF90DF90CF90FD
:100370000C94E30FCF92DF92EF92FF920F931F93B3
:10038000CF93DF936B017C018A01E90162E271E0A6
:1003900081EE95E00E94D4112AE030E0B701A60179
:1003A00081EE95E00E946B1260E271E081EE95E0D3
:1003B0000E94D4114AE050E0B80181EE95E00E941D
:1003C000B51260E271E081EE95E00E94D4114AE03E
:1003D00050E0BE0181EE95E00E94ED1281EE95E0C5
:1003E000DF91CF911F910F91FF90EF90DF90CF9011
:1003F0000C94E30FCF93DF932091A2043091A304D8
:10040000232B91F0EC016FE670E081EE95E00E9405
:10041000B111BE0181EE95E00E94F11181EE95E0EF
:10042000DF91CF910C94E30FDF91CF910895CF939B
:10043000DF93CDB7DEB7E2970FB6F894DEBF0FBEFD
:10044000CDBF8091A2049091A304892BE1F068E6CE
:1004500070E081EE95E00E94B1119E01275C3F4F54
:100460004FA958AD62E370E0CE0101960E94F213ED
:10047000BE016F5F7F4F81EE95E00E94031281EE17
:1004800095E00E94E30FE2960FB6F894DEBF0FBE30
:10049000CDBFDF91CF910895CF92DF92EF92FF927F
:1004A00064EA71E081EE95E00E94031281EE95E02E
:1004B0000E94E30F81EE95E00E94970F181619062F
:1004C0004CF162E870E081EE95E00E94F11181EE5E
:1004D00095E00E94E30F0E94F80E6B017C0181EE13
:1004E00095E00E94970F1816190624F30E94F80E43
:1004F000DC01CB018C199D09AE09BF0988389341F5
:10050000A105B105B8F665E070E080E090E00E94DA
:10051000290FE5CFFF90EF90DF90CF9008958F9255
:100520009F92AF92BF92CF92DF92EF92FF926B01B8
:100530007C010E94F80E4B015C0181EE95E00E9467
:10054000970F18161906D4F0F7FCF7CF0E94F80E93
:10055000DC01CB0188199909AA09BB09C816D9067B
:10056000EA06FB0650F780E090E0FF90EF90DF9006
:10057000CF90BF90AF909F908F90089581EE95E0BF
:10058000FF90EF90DF90CF90BF90AF909F908F90B3
:100590000C94C30F6FEF7FEFCB010C948F02EF929F
:1005A000FF920F931F93CF93DF93CDB7DEB7E29700
:1005B0000FB6F894DEBF0FBECDBF7C0100E010E0A7
:1005C0000E94CA02E1E0F0E0EC0FFD1FE00FF11F16
:1005D00080838E3759F465E271E081EE95E00E94E8
:1005E000031281EE95E00E94E30FE8CF8A3369F0B1
:1005F0008C3731F481E090E0F7019183808305C06E
:100600000F5F1F4F02331105DCF2E1E0F0E0EC0F69
:10061000FD1FE00FF11F1082CE0101960E942B13E7
:10062000E2960FB6F894DEBF0FBECDBFDF91CF913B
:100630001F910F91FF90EF9008958F929F92AF922C
:10064000BF92CF92DF92EF92FF920F931F93CF93BF
:10065000DF931F92CDB7DEB75C014B018A0129837E
:100660000E94F80E6B017C01B50181EE95E00E94BD
:10067000B11160E271E081EE95E00E94D4114AE090
:1006800050E02981622F81EE95E00E94E01260E245
:1006900071E081EE95E00E94D411181419046CF4F5
:1006A0004AE050E0B40181EE95E00E94B51260E2AC
:1006B00071E081EE95E00E94D411B80181EE95E0E1
:1006C0000E94D41164EA71E081EE95E00E94031269
:1006D00081EE95E00E94E30F81EE95E00E94E30F2A
:1006E0006AE070E080E090E00E948F028C37910514
:1006F00061F00E94F80EDC01CB018C199D09AE0956
:10070000BF090A97A105B10558F30F90DF91CF916A
:100710001F910F91FF90EF90DF90CF90BF90AF901F
:100720009F908F9008954F925F926F927F928F92D9
:100730009F92AF92BF92CF92DF92EF92FF920F9370
:100740001F93CF93DF935C014B01542E82E3E6E4C9
:10075000F2E0DF011D928A95E9F7612C712C00E02F
:1007600010E0EF0192E3492E2EE2E22E21E0F22E7C
:100770000A151B050CF061C06801BFEFCB1ADB0A3C
:10078000F801EE0FFF1FE80DF91D80819181209186
:10079000AA043091AB04232B21F08D30910509F48C
:1007A0004AC01816190624F4652D0E94190E43C07C
:1007B000009709F440C0FE0101900020E9F79F0175
:1007C000225432402233310530F5919581959109BB
:1007D00020914602222319F020E231E002C024EAEF
:1007E00031E09F938F933F932F93DF93CF93FF92AB
:1007F000EF921F924F92DF93CF930E94C2138FEF1D
:10080000681A780AADB7BEB71C960FB6F894BEBF8B
:100810000FBEADBF10C0252D46E452E0B3018FE7F7
:1008200090E00E941D03FE01842D11928A95E9F744
:100830006801612C712C86019BCF80914602882330
:10084000C1F0252D46E452E0B3018CE790E0DF9142
:10085000CF911F910F91FF90EF90DF90CF90BF90BD
:10086000AF909F908F907F906F905F904F900C947F
:100870001D03DF91CF911F910F91FF90EF90DF90BB
:10088000CF90BF90AF909F908F907F906F905F9030
:100890004F900895462F909379028093780268E7ED
:1008A00072E081E090E00C9493034F925F926F921C
:1008B0007F928F929F92AF92BF92CF92DF92EF92F0
:1008C000FF920F931F93CF93DF935C014B01542E44
:1008D00082E3E0EEF1E0DF011D928A95E9F7612CF9
:1008E000712C00E010E0EF0192E3492E2EE2E22E9F
:1008F00021E0F22E0A151B050CF061C06801BFEF64
:10090000CB1ADB0AF801EE0FFF1FE80DF91D8081FD
:1009100091812091AA043091AB04232B21F08D30DA
:10092000910509F44AC01816190624F4652D0E9491
:10093000550E43C0009709F440C0FE01019000200D
:10094000E9F79F012C5D31402233310530F5919557
:10095000819591092091E001222319F020E231E0F4
:1009600002C024EA31E09F938F933F932F93DF934C
:10097000CF93FF92EF921F924F92DF93CF930E94FB
:10098000C2138FEF681A780AADB7BEB71C960FB6C0
:10099000F894BEBF0FBEADBF10C0252D40EE51E094
:1009A000B30189E790E00E941D03FE01842D11929E
:1009B0008A95E9F76801612C712C86019BCF8091A3
:1009C000E0018823C1F0252D40EE51E0B30186E718
:1009D00090E0DF91CF911F910F91FF90EF90DF900A
:1009E000CF90BF90AF909F908F907F906F905F90CF
:1009F0004F900C941D03DF91CF911F910F91FF90A9
:100A0000EF90DF90CF90BF90AF909F908F907F90AE
:100A10006F905F904F9008956F927F928F929F9208
:100A2000AF92BF92CF92DF92EF92FF920F931F93FC
:100A3000CF93DF93CDB7DEB7EC970FB6F894DEBF58
:100A40000FBECDBF3C01CE0101965C018CE3D50108
:100A50001D928A95E9F794E2892E95E0992E20E679
:100A6000C22E25E0D22E00E010E0E12CF12C809186
:100A70001A0190911B010817190730F50615170583
:100A8000D1F0F40180819181892BA9F4B801D601BC
:100A90008D919C910E941801892B69F4F701EE0F4A
:100AA000FF1FEA0DFB1DD6018D919C9191838083E0
:100AB000F70131967F010F5F1F4FF2E08F0E911CFF
:100AC00082E0C80ED11CD3CF41E08091A604909162
:100AD000A704892B09F040E0B501C7010E94550425
:100AE000EC960FB6F894DEBF0FBECDBFDF91CF916D
:100AF0001F910F91FF90EF90DF90CF90BF90AF903C
:100B00009F908F907F906F900895462F909313023F
:100B10008093120262E172E081E090E00C9455044F
:100B20000F931F93CF93DF932091AA043091AB04CE
:100B3000232B09F042C0EC010E94F80E0091B6028E
:100B40001091B7022091B8023091B902AB01BC01FB
:100B5000401B510B620B730BCE01A0E0B0E04817B5
:100B600059076A077B0748F1C1E08091B202909172
:100B7000B302A091B402B091B502892B8A2B8B2BC2
:100B800009F0C0E06C2F8DE090E00E9485058C2F6D
:100B900090E0A0E0B0E08093B2029093B302A09303
:100BA000B402B093B5020E94F80E6093B60270933F
:100BB000B7028093B8029093B902DF91CF911F9151
:100BC0000F91089584EF91E00C94900588EB9BE0E1
:100BD0000C949005CF93DF93EC01CC0FDD1FFE0149
:100BE000E05AFA4FBC01808191810E941801892B43
:100BF000B9F4FE01EC5DFA4F80819181892B81F47B
:100C000061E08091A6049091A704892B09F060E02F
:100C1000C05ADA4F88819981DF91CF910C94850574
:100C2000DF91CF910895CF92DF92EF92FF929C01D6
:100C3000220F331FF901EA59FB4F11821082AC01D8
:100C4000440F551F440F551FFA01E455FB4FCC24A8
:100C5000CA94DC2C7601C082D182E282F382F9014F
:100C6000E251FC4F11821082FA01EA58FC4F1082C7
:100C7000118212821382F901E65DFB4F118210820C
:100C80002091A8043091A904232B31F0FF90EF901C
:100C9000DF90CF900C94EA05FF90EF90DF90CF901B
:100CA00008956F927F928F929F92AF92BF92CF9250
:100CB000DF92EF92FF920F931F93CF93DF93809178
:100CC000AC029091AD02A091AE02B091AF02892B1F
:100CD0008A2B8B2BE1F08091B0029091B102892B8D
:100CE000B1F00E94F80E0091AC021091AD0220917B
:100CF000AE023091AF02DC01CB01801B910BA20B45
:100D0000B30B893E9340A105B10508F01FC182E3F2
:100D1000EAE7F2E0DF011D928A95E9F78091B002DF
:100D20009091B102892BF1F468E870E081EE95E0D2
:100D30000E94F11181EE95E00E94E30F81EE95E0B3
:100D40000E94E30F81E090E09093B1028093B002A3
:100D50000E94F80E6093AC027093AD028093AE02D5
:100D60009093AF0281EE95E00E94970F1816190636
:100D70000CF0FEC0C0E0D0E06AE070E080E090E0FF
:100D80000E948F02FE01E658FD4F8083833511F4E7
:100D9000C0E0D0E0FE01E658FD4F80818A3041F08E
:100DA0008C3731F0882321F02196C133D10524F30B
:100DB000C658DD4F188260E271E08AE792E00E9437
:100DC000701365E371E00E947513892B09F0D0C0A0
:100DD00060E271E080E090E00E9470136C0160E2DC
:100DE00071E080E090E00E9470135C0160E271E0CD
:100DF00080E090E00E9470134C0184E2682E85E050
:100E0000782EC0E6D5E000E010E080911A019091C4
:100E10001B010817190740F460E271E080E090E0E0
:100E20000E947013009721F4C114D10469F57FC0AA
:100E30000E942B137C01F30180819181E816F90651
:100E4000D9F0E114F10419F06091A6048CC08091EE
:100E5000160190911701A0911801B09119018F3FCF
:100E60009F4FAF4FBF4F41F4B801888199810E94D5
:100E70001801892B09F46FC0D301ED92FD923D0159
:100E80000F5F1F4F2296C1CF6CE371E0C6010E9435
:100E90007513892B09F04BC00E94F80E6093120164
:100EA000709313018093140190931501A114B10460
:100EB000F1F1C0901601D0901701E0901801F09068
:100EC0001901C5010E944913C616D706E806F9069E
:100ED00071F160931601709317018093180190933C
:100EE00019019F938F937F936F938FE391E09F936B
:100EF0008F9380E391E09F938F930E941702EDB749
:100F0000FEB738960FB6F894FEBF0FBEEDBF8091C6
:100F1000A8049091A904892B51F04091A60460E6A1
:100F200075E080911A0190911B010E945504811473
:100F3000910439F0C4010E9449137093A504609391
:100F4000A4041092B1021092B00212C01092B10229
:100F50001092B002DCCE61E08091A6049091A704CB
:100F6000892B09F060E0888199810E94850584CFF2
:100F7000DF91CF911F910F91FF90EF90DF90CF9075
:100F8000BF90AF909F908F907F906F9008952F9219
:100F90003F924F925F926F927F928F929F92AF9209
:100FA000BF92CF92DF92EF92FF920F931F93CF9356
:100FB000DF9300D000D0CDB7DEB72091A4043091EC
:100FC000A50421153105A9F040911A0150911B018A
:100FD00080E090E08417950709F487C2FC01EE0FCA
:100FE000FF1FEA59FB4F60817181672B11F4019655
:100FF000F1CF0E94F80E6093BE027093BF028093FF
:10100000C0029093C102C090BA02D090BB02E0909F
:10101000BC02F090BD02DC01CB018C199D09AE0928
:10102000BF0900910A0110910B0120E030E0081780
:1010300019072A073B0750F0CD28CE28CF2831F0DA
:101040008091B0029091B102892B91F00E945106DB
:101050008091BE029091BF02A091C002B091C102E6
:101060008093BA029093BB02A093BC02B093BD02DE
:101070000CE915E07CEAC72E74E0D72E1C821B8297
:1010800080E090E0812C912C212C312CECE5AE2ECF
:10109000E1E0BE2E20911A0130911B01AB81BC8191
:1010A000A217B30708F06AC12FB7F894EB81FC814F
:1010B000EE0FFF1FEE0FFF1FEA58FC4F40805180DC
:1010C000628073802FBF411451046104710409F4DC
:1010D00049C1EB80FC80EE0CFF1CF701EA59FB4F85
:1010E00080819181892B09F43BC1208131818091DC
:1010F0000001909101018217930708F047C04091C9
:1011000016015091170160911801709119014F3F1C
:101110002FEF520762077207C9F1F60180819181B2
:10112000A281B3818F3FFFEF9F07AF07BF0771F524
:10113000F6014083518362837383809316019093F9
:101140001701A0931801B09319018091A804909100
:10115000A904892BD9F02C812F933B813F93D8018F
:1011600011968C9111978F938C918F93ABE4B1E092
:10117000BF93AF93BF92AF920E9417020FB6F8943D
:10118000DEBF0FBECDBF22242394312C0E94F80E67
:101190006093BE027093BF028093C0029093C1021D
:1011A000AB01BC01441955096609770980910C010E
:1011B00090910D01A0E0B0E084179507A607B7074E
:1011C00028F5F701EA59FB4F208131818091080110
:1011D000909109018217930760F420813181D80131
:1011E0004D915C91F60160817181828193810E94B1
:1011F0004C018091A8049091A90488248394912C97
:10120000892BB9F122242394312C33C08091A80476
:101210009091A904892B09F42EC18091020190912B
:101220000301009709F427C1F701EA59FB4F208118
:1012300031812817390708F41EC1FC81FF932B81E7
:101240002F93D80111968C9111978F938C918F9336
:10125000A5EAB1E0BF93AF93BF92AF920E9417028D
:101260008B819C810E94EA050FB6F894DEBF0FBE09
:10127000CDBFF701E65DFB4F80819181892B09F19C
:101280002081318180910601909107018217930797
:10129000C0F44091BE025091BF026091C0027091B3
:1012A000C102441955096609770980910C01909192
:1012B0000D01A0E0B0E084179507A607B70708F472
:1012C000FFC0B1E08B16910431F5F701EA59FB4FED
:1012D000808191810B97C0F0EC81EF93FB81FF93AC
:1012E000D80111968C9111978F938C918F93A5E6CD
:1012F000B1E0BF93AF93BF92AF920E9417020FB6B7
:10130000F894DEBF0FBECDBF8B819C810E94130677
:1013100088248394912C8091A8049091A904892B0E
:10132000F9F021143104E1F03C813F934B814F935C
:10133000D80111968C9111978F938C918F93AFE771
:10134000B1E0BF93AF93BF92AF920E9417028B811F
:101350009C810E940C050FB6F894DEBF0FBECDBF76
:1013600081E090E04B815C814F5F5F4F5C834B83FA
:101370000E5F1F4F54E0C50ED11C8CCE892B19F483
:101380000E94E20502C00E94E6050E94F80E6093EA
:10139000BE027093BF028093C0029093C10200917D
:1013A00012011091130120911401309115010F3F8A
:1013B000BFEF1B072B073B0709F4AAC0C09016011B
:1013C000D0901701E0901801F0901901CF20CE20A5
:1013D000CD20C09409F49CC06B017C01C01AD10AD5
:1013E000E20AF30A00910E0110910F012091100101
:1013F000309111010C151D052E053F0508F088C020
:101400000FEF1FEF9801009316011093170120931F
:1014100018013093190160931201709313018093A6
:101420001401909315018091A8049091A904892B2F
:1014300009F46EC0232809F06BC085E990E00E9492
:10144000FA018FEF9FEF0F900F900F900F90DF91A9
:10145000CF911F910F91FF90EF90DF90CF90BF90B1
:10146000AF909F908F907F906F905F904F903F9044
:101470002F900C940C05A70142515C4F5A8349836D
:10148000DA012D913C918091040190910501821720
:10149000930708F0EECEF701EA59FB4F2081318126
:1014A000D8014D915C91F6016081718182819381B7
:1014B0000E94BA01A981BA8111961C921E92D9CEBE
:1014C000F80140815181D6016D917D918D919C9162
:1014D0000E948C018091A8049091A904892B09F4A1
:1014E000F4CE22242394312CF0CE2130310531F476
:1014F00065E471E081EE95E00E94031281EE95E0D3
:101500000E94E30F82E090E09093A5048093A404EE
:101510000F900F900F900F90DF91CF911F910F912F
:10152000FF90EF90DF90CF90BF90AF909F908F9003
:101530007F906F905F904F903F902F9008956F92A3
:101540007F928F929F92AF92BF92CF92DF92EF9253
:10155000FF920F931F93CF93DF93EC011816190698
:1015600024F40E94850E282F72C0892B09F46CC0C8
:1015700066EC71E081EE95E00E94D41160E271E0CA
:1015800081EE95E00E94D411662777276C1B7D0BB6
:101590004AE050E081EE95E00E94B51264EA71E005
:1015A00081EE95E00E94031281EE95E00E94E30F28
:1015B00081EE95E00E94970F892BD1F384E1C82E2C
:1015C00082E0D82EE6017601A12CB12C612C712C81
:1015D000812C912C00E010E00E94CA02F601819358
:1015E0006F018B3331F48114910419F4188247018F
:1015F0007F0188818B3331F46114710419F41882EE
:101600003701760188818B3331F4A114B10419F4C8
:1016100018825701760199919A3029F4F801EC5E0D
:10162000FD4F108207C09C37C9F30F5F1F4F023375
:10163000110591F6A114B10449F0C5010E942B13C4
:1016400021E0892B21F402C02FEF01C020E0822F7E
:10165000DF91CF911F910F91FF90EF90DF90CF908E
:10166000BF90AF909F908F907F906F9008956F92F2
:101670007F928F929F92AF92BF92CF92DF92EF9222
:10168000FF920F931F93CF93DF930E94F80E4B01AD
:101690005C015CE9652E55E0752E62ECC62E62E0B9
:1016A000D62EC0E0D0E080911A0190911B01C8179E
:1016B000D90708F050C0F301819191913F010E9438
:1016C0009F0A082F10E0F601808191810817190701
:1016D000E9F101301105B9F57E01EE0CFF1CEE0CAD
:1016E000FF1CF701E250FD4F80819181A281B381FF
:1016F0009E01220F331FF90188169906AA06BB0620
:1017000059F0EA59FB4F8081918101969183808342
:10171000F901E251FC4F02C0E65DFB4F80819181EF
:101720000196918380830E94F80EF701E250FD4FED
:101730006083718382839383F701EA58FC4F60834F
:10174000718382839383F601118300832196F2E0F3
:10175000CF0ED11CA8CFDF91CF911F910F91FF9099
:10176000EF90DF90CF90BF90AF909F908F907F9041
:101770006F9008951F920F920FB60F9211242F931E
:101780003F934F935F936F937F938F939F93AF9309
:10179000BF93EF93FF930E94370BFF91EF91BF919F
:1017A000AF919F918F917F916F915F914F913F91F9
:1017B0002F910F900FBE0F901F901895AF92BF9270
:1017C000CF92DF92EF92FF920F931F93CF93DF930D
:1017D00000D0CDB7DEB71A82198240E855E260E04A
:1017E00070E081EE95E00E94AF1081EE95E00E94DE
:1017F00037118823D1F381EE95E00E94E30F81EE4B
:1018000095E00E94970F892B29F081EE95E00E94C8
:10181000C30FF5CF0E944C020E94CA028334910587
:10182000D9F70E94CA02CA97E1F7CE0101960E9439
:10183000CF0290931B0180931A014CE9E42E45E0FE
:10184000F42E670100E010E080911A0190911B01D5
:101850000817190758F4CE0101960E94CF02F6012D
:10186000819391936F010F5F1F4FEECFCE010196D1
:101870000E94CF029093A9048093A804892B09F0B9
:1018800043C0CE0101960E94CF0290930D01809338
:101890000C01CE0101960E94CF0290930901809322
:1018A0000801CE0101960E94CF0290930701809318
:1018B0000601CE0101960E94CF029093050180930C
:1018C0000401CE0101960E94CF0290930301809300
:1018D0000201CE0101960E94CF029093AB04809347
:1018E000AA04CE0101960E94CF029093A304809394
:1018F000A20489819A81019741F162EB70E081EE47
:1019000095E00E94F11121C0CE0101960E94CF0204
:101910009093A7048093A60430E6C32E35E0D32E1F
:1019200000E010E080911A0190911B01081719073F
:1019300008F0A7CFCE0101960E94CF02F601819355
:1019400091936F010F5F1F4FEDCF81EE95E00E94E5
:10195000E30F69EC71E081EE95E00E94D411609193
:101960001A0170911B014AE050E081EE95E00E945F
:10197000E7122CE9C22E25E0D22E00E010E0809183
:101980001A0190911B016AEC71E00817190788F49D
:1019900081EE95E00E94D411F601619171916F0181
:1019A0004AE050E081EE95E00E94B5120F5F1F4FB4
:1019B000E6CF81EE95E00E94D4116091A804709169
:1019C000A9044AE050E081EE95E00E94E712809180
:1019D000A8049091A904892B09F09CC06AEC71E0DD
:1019E00081EE95E00E94D41160910C0170910D017F
:1019F0004AE050E081EE95E00E94E7126AEC71E067
:101A000081EE95E00E94D411609108017091090166
:101A10004AE050E081EE95E00E94E7126AEC71E046
:101A200081EE95E00E94D41160910601709107014A
:101A30004AE050E081EE95E00E94E7126AEC71E026
:101A400081EE95E00E94D41160910401709105012E
:101A50004AE050E081EE95E00E94E7126AEC71E006
:101A600081EE95E00E94D411609102017091030112
:101A70004AE050E081EE95E00E94E7126AEC71E0E6
:101A800081EE95E00E94D4116091AA047091AB049C
:101A90004AE050E081EE95E00E94E7126AEC71E0C6
:101AA00081EE95E00E94D4116091A2047091A3048C
:101AB0004AE050E081EE95E00E94E7126CEC71E0A4
:101AC00081EE95E00E94031281EE95E00E94E30F03
:101AD00040E06CE975E080911A0190911B010E9431
:101AE000930341E06CE975E080911A0190911B012C
:101AF0000E9455048091A8049091A904892BD9F1E2
:101B000041E060E675E080911A0190911B010E940E
:101B1000930331C06AEC71E081EE95E00E94D4112C
:101B20006091A6047091A7044AE050E081EE95E030
:101B30000E94E71290E6C92E95E0D92E00E010E051
:101B400080911A0190911B010817190708F046CFE0
:101B50006AEC71E081EE95E00E94D411F60161918A
:101B600071916F014AE050E081EE95E00E94B5125C
:101B70000F5F1F4FE5CF82ECC82E82E0D82E00E029
:101B800010E080911A0190911B0108171907B0F419
:101B9000C8010E9413065701F701819191917F01BD
:101BA0000E949F0A90E0F601819391936F01F501E5
:101BB00080810E94BE000F5F1F4FE3CF61E08DE088
:101BC00090E00E944A040F900F90DF91CF911F91F7
:101BD0000F91FF90EF90DF90CF90BF90AF9008955E
:101BE000833081F028F4813099F08230A1F008959B
:101BF0008630A9F08730B9F08430D1F4809180002C
:101C00008F7D03C0809180008F778093800008953E
:101C100084B58F7702C084B58F7D84BD089580918F
:101C2000B0008F7703C08091B0008F7D8093B000AB
:101C30000895CF93DF9390E0FC01E052FF4F249191
:101C4000FC01EC50FF4F8491882361F190E0880FF4
:101C5000991FFC01E45EFE4FC591D491FC01EE5E3C
:101C6000FE4FA591B491611109C09FB7F894888186
:101C7000209582238883EC912E230BC0623061F47F
:101C80009FB7F8943881822F809583238883EC91C5
:101C90002E2B2C939FBF06C08FB7F894E8812E2B74
:101CA00028838FBFDF91CF9108951F93CF93DF9348
:101CB000282F30E0F901E453FF4F8491F901E052FD
:101CC000FF4FD491F901EC50FF4FC491CC23C9F0E0
:101CD000162F81110E94F00DEC2FF0E0EE0FFF1F88
:101CE000EE5EFE4FA591B4918FB7F894111105C027
:101CF0009C91ED2FE095E92302C0EC91ED2BEC9344
:101D00008FBFDF91CF911F910895CF93DF93282F3D
:101D100030E0F901E453FF4F8491F901E052FF4FA5
:101D2000D491F901EC50FF4FC491CC2391F0811173
:101D30000E94F00DEC2FF0E0EE0FFF1FE85FFE4F6A
:101D4000A591B491EC91ED2381E090E021F480E045
:101D500002C080E090E0DF91CF9108951F920F9232
:101D60000FB60F9211242F933F938F939F93AF93AE
:101D7000BF938091D9059091DA05A091DB05B091D0
:101D8000DC053091D80523E0230F2D3720F4019690
:101D9000A11DB11D05C026E8230F0296A11DB11D8E
:101DA0002093D8058093D9059093DA05A093DB059D
:101DB000B093DC058091DD059091DE05A091DF05F3
:101DC000B091E0050196A11DB11D8093DD059093B2
:101DD000DE05A093DF05B093E005BF91AF919F9121
:101DE0008F913F912F910F900FBE0F901F901895DC
:101DF0002FB7F8946091D9057091DA058091DB05D1
:101E00009091DC052FBF08953FB7F8948091DD05D0
:101E10009091DE05A091DF05B091E00526B5A89B65
:101E200005C02F3F19F00196A11DB11D3FBFBA2F6C
:101E3000A92F982F8827820F911DA11DB11DBC01CC
:101E4000CD0142E0660F771F881F991F4A95D1F791
:101E50000895CF92DF92EF92FF92CF93DF936B01C1
:101E60007C010E94040FEB01C114D104E104F104D0
:101E700079F00E94040F6C1B7D0B683E7340A0F349
:101E800081E0C81AD108E108F108C851DC4FECCF55
:101E9000DF91CF91FF90EF90DF90CF9008957894ED
:101EA00084B5826084BD84B5816084BD85B582605F
:101EB00085BD85B5816085BDEEE6F0E080818160FD
:101EC0008083E1E8F0E010828081826080838081FD
:101ED00081608083E0E8F0E0808181608083E1EBD5
:101EE000F0E0808184608083E0EBF0E080818160BD
:101EF0008083EAE7F0E08081846080838081826073
:101F0000808380818160808380818068808310925B
:101F1000C10008950E944F0F0E94DE0BCBE6D0E176
:101F20000E94C7072097E1F30E946B10F9CFFC01D4
:101F300024853585F901E05CFF4F808191813296DF
:101F400020813181821B930B8F7399270895DC01C7
:101F50001C96ED91FC911D97DF01A05CBF4F2D9168
:101F60003C91119712968D919C91119728173907E2
:101F700039F08D919C91E80FF91F808190E00895D0
:101F80008FEF9FEF0895FC01A485B585FD01E05C0E
:101F9000FF4F208131813296808191812817390746
:101FA00079F080819181A80FB91F8C9120813181B6
:101FB0002F5F3F4F2F7333273183208390E00895A5
:101FC0008FEF9FEF0895FC0181A1882329F0A48958
:101FD000B5898C9186FFFBCF11A208950F931F93B3
:101FE000CF93DF93FC01A685B7858D01005C1F4F61
:101FF000E8018881998101968F739927AD014E5B25
:102000005F4FEA012881398182179307D1F3E801F4
:1020100028813981A20FB31F6C93A685B785A05C78
:10202000BF4F11969C938E93A689B7892C9181E01E
:1020300090E0078C02C0880F991F0A94E2F7822B68
:102040008C9381E081A30488F589E02D80818064F0
:10205000808381E090E0DF91CF911F910F910895EF
:1020600008951F920F920FB60F9211242F934F9342
:102070005F938F939F93EF93FF938091C00082FDB6
:102080001CC02091C6008091870690918806019619
:102090008F7399274091890650918A068417950776
:1020A00071F0E0918706F0918806E95BF94F208393
:1020B000909388068093870602C08091C600FF91A6
:1020C000EF919F918F915F914F912F910F900FBE44
:1020D0000F901F90189581EE95E00E94970F892B25
:1020E00011F00C94301008951F920F920FB60F92BA
:1020F00011242F933F938F939F93EF93FF932091FE
:102100004306309144068091450690914606281773
:10211000390731F48091C1008F7D8093C10014C0D4
:10212000E0914506F0914606ED5FF94F20818091E0
:1021300045069091460601968F739927909346061F
:10214000809345062093C600FF91EF919F918F9158
:102150003F912F910F900FBE0F901F901895CF9227
:10216000DF92EF92FF920F931F93CF93DF93EC01D7
:102170006A017B014115514E6105710509F1EC8938
:10218000FD8981E090E008A002C0880F991F0A94A1
:10219000E2F7808360E079E08DE390E0A7019601AB
:1021A0000E94031389019A01015011092109310983
:1021B0003695279517950795980101151041A8F0B8
:1021C000EC89FD89108260E874E88EE190E0A70157
:1021D00096010E940313DA01C9010197A109B1090F
:1021E000B695A795979587959C01E889F9893083DD
:1021F000EA89FB89208319A2EE89FF89408181E069
:1022000090E09C010C8C02C0220F331F0A94E2F76D
:10221000242B2083EE89FF8940819C010D8C02C014
:10222000220F331F0A94E2F7242B2083EE89FF89C3
:1022300040819C010E8C02C0220F331F0A94E2F7EA
:10224000242B2083EE89FF8920810F8C02C0880F08
:10225000991F0A94E2F7809582238083DF91CF91C2
:102260001F910F91FF90EF90DF90CF90089581E044
:102270000895E1EEF5E01382128288EE93E0A0E08B
:10228000B0E084839583A683B78382ED91E0918348
:10229000808387E496E09587848783E096E097873C
:1022A000868785EC90E0918B808B84EC90E0938B1B
:1022B000828B80EC90E0958B848B81EC90E0978B07
:1022C000868B82EC90E0918F808F86EC90E0938FEC
:1022D000828F84E0848F83E0858F87E0868F85E01E
:1022E000878F81E080A30895CF92DF92EF92FF92D3
:1022F0000F931F93CF93DF936C01EB017B01E40EEF
:10230000F51E00E010E0CE15DF0561F06991D60101
:10231000ED91FC910190F081E02DC6010995080F27
:10232000191FF1CFC801DF91CF911F910F91FF903D
:10233000EF90DF90CF9008956115710579F0FB0162
:1023400001900020E9F73197AF01461B570BDC01E4
:10235000ED91FC910280F381E02D099480E090E002
:102360000895EF92FF920F931F93CF93DF937C0119
:10237000FB0100E010E06491EF012196662361F01B
:10238000D701ED91FC910190F081E02DC7010995F5
:10239000080F191FFE01EFCFC801DF91CF911F91E8
:1023A0000F91FF90EF9008950C949C11DC01ED913A
:1023B000FC910190F081E02D09940F931F93CF932E
:1023C000DF93EC016DE00E94D6118C016AE0CE0132
:1023D0000E94D611800F911FDF91CF911F910F9115
:1023E00008950F931F93CF93DF93EC010E94B111D7
:1023F0008C01CE010E94DD11800F911FDF91CF91E2
:102400001F910F9108950F931F93CF93DF93EC01CA
:102410000E949C118C01CE010E94DD11800F911F42
:10242000DF91CF911F910F9108958F929F92AF925C
:10243000BF92CF92DF92EF92FF920F931F93CF93B1
:10244000DF93CDB7DEB7A1970FB6F894DEBF0FBE0E
:10245000CDBF6C01142FE52FCB01022F19A2223022
:1024600008F40AE07E0121E2E20EF11C802E912C9C
:10247000A12CB12C612F7E2FA50194010E94031382
:10248000029F1019112481E0E81AF1081A3014F49F
:10249000105D01C0195CF7011083122FE32FCA01F0
:1024A000232B242B252B31F7B701C6010E949C1149
:1024B000A1960FB6F894DEBF0FBECDBFDF91CF91CE
:1024C0001F910F91FF90EF90DF90CF90BF90AF9052
:1024D0009F908F900895CF92DF92EF92FF920F938B
:1024E0001F93CF93DF93EC016A017B012115310526
:1024F00079F4E881F9810190F081E02D642FDF917A
:10250000CF911F910F91FF90EF90DF90CF900994A2
:102510002A303105E9F477FF1AC06DE20E94D61126
:102520008C0144275527BA014C195D096E097F09B2
:102530002AE0CE010E941512800F911FDF91CF91EA
:102540001F910F91FF90EF90DF90CF9008952AE0B8
:10255000B701A601CE01DF91CF911F910F91FF909E
:10256000EF90DF90CF900C9415129A01AB01770F8A
:10257000660B770B0C946B120F931F93CF93DF9323
:10258000EC019A01AB01770F660B770B0E946B127F
:102590008C01CE010E94DD11800F911FDF91CF9140
:1025A0001F910F9108952115310541F4DC01ED9142
:1025B000FC910190F081E02D642F09940C94151288
:1025C0009A01462F50E060E070E00C94D3129A011B
:1025D000AB0160E070E00C94D3120F931F93CF9384
:1025E000DF93EC019A01AB0160E070E00E94D3122E
:1025F0008C01CE010E94DD11800F911FDF91CF91E0
:102600001F910F910895A1E21A2EAA1BBB1BFD0179
:102610000DC0AA1FBB1FEE1FFF1FA217B307E407C1
:10262000F50720F0A21BB30BE40BF50B661F771F19
:10263000881F991F1A9469F76095709580959095F9
:102640009B01AC01BD01CF010895EE0FFF1F059066
:10265000F491E02D0994FC0188279927E8942191B1
:102660002032E9F3293010F02E30C8F32B3241F03C
:102670002D3239F4689404C00E94BA13820F911D60
:10268000219120532A30C0F31EF4909581959F4FDD
:1026900008951F93FC0199278827BC01E8941191A4
:1026A0001032E9F3193010F01E30C8F31B3251F02C
:1026B0001D3249F4689406C00E94A513610F711D74
:1026C000811D911D119110531A30B0F33EF4909575
:1026D0008095709561957F4F8F4F9F4F1F91089503
:1026E0004EED51E00E947E130895FB01DC018D91B7
:1026F000019080190110D9F3990B0895FA01A19165
:10270000B081009719F41097E1F0CD01DC01CD0103
:102710000D90002011F4C00113C0FB012191222370
:1027200019F02015D9F7F3CFFB012191201519F4E9
:102730001E92119606C02223C1F70D900020A1F72A
:10274000D001FA01A193B0830895592F482F372F54
:10275000262F660F771F881F991F660F771F881F08
:10276000991F620F731F841F951F660F771F881FA5
:10277000991F08957AE0979F902D879F802D910D46
:1027800011240895AEE0B0E0E8ECF3E10C94AA1651
:102790000D891E898F89988D26E02C831A830983E1
:1027A00097FF02C080E090E801979E838D83AE0181
:1027B000455E5F4F698D7A8DCE0101960E941E1491
:1027C0004D815E8157FD0AC02F813885421753071E
:1027D0000CF49A01F801E20FF31F10822E96E4E048
:1027E0000C94C616AEE0B0E0E8EFF3E10C94AA1644
:1027F0008C01CA0146E04C831A83098377FF02C02B
:1028000060E070E8FB013197FE83ED83A901BC0114
:10281000CE0101960E941E144D815E8157FD0AC0B3
:102820002F813885421753070CF49A01F801E20F03
:10283000F31F10822E96E4E00C94C616ACE0B0E0D4
:10284000E4E2F4E10C949C167C016B018A01FC012A
:1028500017821682838181FFBDC1CE0101964C0192
:10286000F7019381F60193FD859193FF81916F01AB
:10287000882309F4ABC1853239F493FD859193FF28
:1028800081916F01853229F4B70190E00E9406160C
:10289000E7CF512C312C20E02032A0F48B3269F0AC
:1028A00030F4803259F0833269F420612CC08D32CB
:1028B00039F0803339F4216026C02260246023C0BF
:1028C000286021C027FD27C030ED380F3A3078F45A
:1028D00026FF06C0FAE05F9E300D1124532E13C070
:1028E0008AE0389E300D1124332E20620CC08E32C7
:1028F00021F426FD6BC1206406C08C3611F42068DB
:1029000002C0883641F4F60193FD859193FF8191D1
:102910006F018111C1CF982F9F7D9554933028F47A
:102920000C5F1F4FFFE3F9830DC0833631F083370F
:1029300071F0833509F05BC022C0F8018081898382
:102940000E5F1F4F44244394512C540115C038018D
:10295000F2E06F0E711CF801A080B18026FF03C069
:10296000652D70E002C06FEF7FEFC5012C870E94DC
:10297000FB152C0183012C852F77222E17C03801DF
:10298000F2E06F0E711CF801A080B18026FF03C039
:10299000652D70E002C06FEF7FEFC5012C870E94AC
:1029A000F0152C012C852068222E830123FC1BC0EE
:1029B000832D90E048165906B0F4B70180E290E00C
:1029C0000E9406163A94F4CFF50127FC859127FE64
:1029D00081915F01B70190E00E94061631103A9490
:1029E000F1E04F1A51084114510471F7E5C08436E3
:1029F00011F0893639F5F80127FF07C06081718130
:102A0000828193810C5F1F4F08C060817181072E06
:102A1000000C880B990B0E5F1F4F2F76722E97FFBD
:102A200009C090958095709561957F4F8F4F9F4F0E
:102A30002068722E2AE030E0A4010E943E16A82EE3
:102A4000A81844C0853729F42F7EB22E2AE030E042
:102A500025C0F22FF97FBF2E8F36C1F018F48835CC
:102A600079F0B4C0803719F0883721F0AFC02F2F2C
:102A70002061B22EB4FE0DC08B2D8460B82E09C02B
:102A800024FF0AC09F2F9660B92E06C028E030E0D0
:102A900005C020E130E002C020E132E0F801B7FEDD
:102AA00007C060817181828193810C5F1F4F06C0D6
:102AB0006081718180E090E00E5F1F4FA4010E9451
:102AC0003E16A82EA818FB2DFF777F2E76FE0BC092
:102AD000372D3E7FA51450F474FE0AC072FC08C066
:102AE000372D3E7E05C0BA2C372D03C0BA2C01C04D
:102AF000B52C34FF0DC0FE01EA0DF11D808180333D
:102B000011F4397E09C032FF06C0B394B39404C0F7
:102B1000832F867809F0B39433FD13C030FF06C0CD
:102B20005A2CB31418F4530C5B18B32CB31468F478
:102B3000B70180E290E03C870E940616B3943C8582
:102B4000F5CFB31410F43B1801C0312C34FF12C080
:102B5000B70180E390E03C870E9406163C8532FF77
:102B600017C031FD03C088E790E002C088E590E01F
:102B7000B7010CC0832F867859F031FF02C08BE279
:102B800001C080E237FD8DE2B70190E00E94061699
:102B9000A51438F4B70180E390E00E9406165A9419
:102BA000F7CFAA94F401EA0DF11D8081B70190E0FE
:102BB0000E940616A110F5CF332009F451CEB701BB
:102BC00080E290E00E9406163A94F6CFF7018681E3
:102BD000978102C08FEF9FEF2C96E2E10C94B8161C
:102BE000FC010590615070400110D8F780959095D8
:102BF0008E0F9F1F0895FC016150704001900110DD
:102C0000D8F7809590958E0F9F1F08950F931F936F
:102C1000CF93DF93FB01238121FD03C08FEF9FEF53
:102C200028C022FF16C04681578124813581421772
:102C3000530744F4A081B1819D012F5F3F4F318341
:102C400020838C93268137812F5F3F4F37832683E4
:102C500010C0EB01092F182F0084F185E02D099594
:102C6000892BE1F68E819F8101969F838E83812F30
:102C7000902FDF91CF911F910F910895FA01AA270C
:102C8000283051F1203181F1E8946F936E7F6E5FAF
:102C90007F4F8F4F9F4FAF4FB1E03ED0B4E03CD05D
:102CA000670F781F891F9A1FA11D680F791F8A1F40
:102CB000911DA11D6A0F711D811D911DA11D20D0A7
:102CC00009F468943F912AE0269F11243019305D61
:102CD0003193DEF6CF010895462F4770405D419352
:102CE000B3E00FD0C9F7F6CF462F4F70405D4A339F
:102CF00018F0495D31FD4052419302D0A9F7EACF67
:102D0000B4E0A6959795879577956795BA95C9F795
:102D100000976105710508959B01AC010A2E069488
:102D20005795479537952795BA95C9F7620F731F41
:102D3000841F951FA01D08952F923F924F925F927E
:102D40006F927F928F929F92AF92BF92CF92DF92BB
:102D5000EF92FF920F931F93CF93DF93CDB7DEB720
:102D6000CA1BDB0B0FB6F894DEBF0FBECDBF0994B4
:102D70002A88398848885F846E847D848C849B840B
:102D8000AA84B984C884DF80EE80FD800C811B8119
:102D9000AA81B981CE0FD11D0FB6F894DEBF0FBE48
:0A2DA000CDBFED010895F894FFCFB8
:102DAA003200BC02C8001E000A00FA002C0130756D
:102DBA000000FFFFFFFFFFFFFFFF0500503B004B36
:102DCA003B00553B00636F6E74696E756500257331
:102DDA002573256400537461747573004F4B005258
:102DEA004649443A00646561643B0054617020536B
:102DFA00656C65637465642050696E0025732025CF
:102E0A0064202564005265736574205461702064DF
:102E1A007572696E67206C6F6F702050696E00530F
:102E2A0068757420646F776E206E6F6E506F75725E
:102E3A00696E6720647572696E67206C6F6F7020A7
:102E4A0050696E200053687574646F776E20546100
:102E5A007020746F6F206D616E792070756C736568
:102E6A00732050696E00525000433A007C00000003
:0E2E7A000000EE0F7411970FC30FA70FE30FA8
:00000001FF
