:100000000C9496000C94BE000C94BE000C94DD077A
:100010000C94DD070C94DD070C94BE000C94BE001C
:100020000C94BE000C94BE000C94BE000C94BE0058
:100030000C94BE000C94BE000C94BE000C94BE0048
:100040000C9484020C94BE000C941C010C94F600D9
:100050000C94BE000C94BE000C94BE000C94BE0028
:100060000C94BE000C94BE00616C697665004D690D
:100070007373696E6720436F6E666967757261742A
:10008000696F6E20456E64005374617475734368C4
:1000900065636B3B0044656275673B00536875742C
:1000A000646F776E20416C6C20746170732C206ECD
:1000B0006F2073656C6563740000000000240027E6
:1000C000002A00534D00534D00000000002300267D
:1000D00000290000000000250028002B0004040473
:1000E00004040404040202020202020303030303E1
:1000F00003010204081020408001020408102001BE
:10010000020408102000000008000201000003049F
:100110000700000000000000005750005750005535
:10012000500044656275673B0000CF1011241FBE6C
:10013000CFEFD8E0DEBFCDBF26E0AEE0B2E001C039
:100140001D92A03EB207E1F712E0A0E0B1E0ECECB6
:10015000F9E202C005900D92AE30B107D9F710E078
:10016000C6E9D0E004C02197FE010E94AC11C53958
:10017000D107C9F70E9448090C94E4140C940000BC
:10018000CF92DF92EF92FF920F931F93CF93DF9363
:100190006C017A018B01C0E0D0E0CE15DF0581F063
:1001A000D8016D918D01D601ED91FC910190F08106
:1001B000E02DC6010995892B11F02196EECF7E0125
:1001C000C701DF91CF911F910F91FF90EF90DF90CA
:1001D000CF90089581E496E00E94830121E0892B6D
:1001E00009F420E0822F08950E94B2111F920F920D
:1001F0000FB60F9211242F933F934F935F936F93FA
:100200007F938F939F93AF93BF93EF93FF9381E47B
:1002100096E00E94C201FF91EF91BF91AF919F9133
:100220008F917F916F915F914F913F912F910F909F
:100230000FBE0F901F9018951F920F920FB60F923E
:1002400011242F938F939F93EF93FF93E091510687
:10025000F09152068081E0915706F091580682FD98
:1002600012C0908180915A068F5F8F7320915B0638
:10027000821751F0E0915A06F0E0EF5BF94F958F4D
:1002800080935A0601C08081FF91EF919F918F91D9
:100290002F910F900FBE0F901F901895089580E03A
:1002A00090E00895FC01538D448D252F30E0842F7C
:1002B00090E0821B930B541710F0CF96089501978E
:1002C0000895FC01918D828D981761F0828DDF0178
:1002D000A80FB11D5D968C91928D9F5F9F73928F39
:1002E00090E008958FEF9FEF0895FC01918D828D2E
:1002F000981731F0828DE80FF11D858D90E00895FB
:100300008FEF9FEF0895FC01918D228D892F90E052
:10031000805C9F4F821B91098F739927089580E01D
:1003200090E0892B29F00E94EA0081110C940000D2
:100330000895833081F028F4813099F08230A1F063
:1003400008958730A9F08830B9F08430D1F48091D5
:1003500080008F7D03C0809180008F778093800024
:10036000089584B58F7702C084B58F7D84BD0895CC
:100370008091B0008F7703C08091B0008F7D809313
:10038000B0000895FC01848DDF01A80FB11DA35AB0
:10039000BF4F2C91848D90E001968F739927848FA5
:1003A000A689B7892C93A089B1898C9183708064C8
:1003B0008C93938D848D981306C00288F389E02D69
:1003C00080818F7D80830895EF92FF920F931F931A
:1003D000CF93DF93EC0181E0888F9B8D8C8D9813F8
:1003E00005C0E889F989808185FD26C0F62E0B8D30
:1003F00010E00F5F1F4F0F731127E02E8C8DE81256
:100400000CC00FB607FCFACFE889F989808185FF17
:10041000F5CFCE010E94C201F1CF8B8DFE01E80F16
:10042000F11DE35AFF4FF0829FB7F8940B8FEA89D2
:10043000FB89808180620AC09FB7F894EE89FF89AA
:100440006083E889F98980818370806480839FBF9D
:1004500081E090E0DF91CF911F910F91FF90EF909D
:100460000895CF93DF93EC01888D8823C9F0EA8942
:10047000FB89808185FD05C0A889B9898C9186FD9D
:100480000FC00FB607FCF5CF808185FFF2CFA8899A
:10049000B9898C9185FFEDCFCE010E94C201E7CFD3
:1004A000DF91CF9108953FB7F89480913D069091E8
:1004B0003E06A0913F06B091400626B5A89B05C018
:1004C0002F3F19F00196A11DB11D3FBFBA2FA92FD3
:1004D000982F8827820F911DA11DB11DBC01CD0150
:1004E00042E0660F771F881F991F4A95D1F708953C
:1004F0002FB7F8946091390670913A0680913B06C7
:1005000090913C062FBF08951F920F920FB60F9245
:1005100011242F933F938F939F93AF93BF93809119
:10052000390690913A06A0913B06B0913C06309175
:10053000380623E0230F2D3720F40196A11DB11DAD
:1005400005C026E8230F0296A11DB11D2093380691
:100550008093390690933A06A0933B06B0933C06ED
:1005600080913D0690913E06A0913F06B0914006D5
:100570000196A11DB11D80933D0690933E06A09368
:100580003F06B0934006BF91AF919F918F913F91ED
:100590002F910F900FBE0F901F901895CF93DF9360
:1005A000CDB7DEB7E2970FB6F894DEBF0FBECDBF72
:1005B0008091C8029091C902892BB9F082E291E042
:1005C0000E9411099E01275C3F4F4FA958AD62E37D
:1005D00070E0CE0101960E94F011CE0101960E94BA
:1005E0003A0981E496E00E943102E2960FB6F8944F
:1005F000DEBF0FBECDBFDF91CF9108950E9478027C
:1006000081E496E00E94830118161906CCF781E474
:1006100096E00C9461017F928F929F92AF92BF926D
:10062000CF92DF92EF92FF920F931F93CF93DF93BE
:100630006C01EB017A01722E0E9478024B015C0181
:10064000C6010E94110988EF91E00E94DD08672D24
:1006500070E080E090E04AE00E94960888EF91E028
:100660000E94DD081C161D063CF4CE010E940B09F9
:1006700088EF91E00E94DD08C7010E94DD0888EF45
:1006800091E00E94DD08C8010E94DD0886EA91E041
:100690000E943A0981E496E00E94310281E496E0EA
:1006A0000E9431026AE070E080E090E00E94FE0269
:1006B0008C37910561F00E947802DC01CB0188192A
:1006C0009909AA09BB090A97A105B10558F3DF9159
:1006D000CF911F910F91FF90EF90DF90CF90BF903F
:1006E000AF909F908F907F9008952F923F924F925E
:1006F0005F926F927F928F929F92AF92BF92CF92B2
:10070000DF92EF92FF920F931F93CF93DF9300D06E
:1007100000D0CDB7DEB79A8389837C836B83342E78
:10072000490182E3E6E0F6E0DF011D928A95E9F7F0
:10073000E12CF12CC12CD12C22E3222E3AEF632E96
:1007400031E0732E44EDA42E45E0B42EE981FA8108
:10075000CE16DF060CF0A9C02601FFEF4F1A5F0A84
:10076000F601EE0FFF1F8B819C81E80FF91F0081BE
:10077000118180914A0290914B02892B29F00D3012
:10078000110511F46201E2CF101611060CF047C0FA
:1007900098013327F901EB5FFE4F8491F901EF5087
:1007A000FF4FC490F901E352FF4FD490DD20B9F020
:1007B00081110E949901ED2DF0E0EE0FFF1FED5227
:1007C000FF4FA591B4919FB7F894311004C08C915C
:1007D000C094C82202C0EC91CE2ACC929FBFD50112
:1007E000E22D1D92EA95E9F71F930F9386EA91E0B7
:1007F0009F938F93BF92AF927F926F921F922F928F
:10080000BF92AF920E94C0118401232D44ED55E0A8
:1008100061E070E08FE191E00E940B032DC00115B3
:10082000110509F4AFCFE6E0F6E001900020E9F70A
:10083000CF0182509640C29728F511950195110974
:1008400080910606882319F088EF91E002C086EABD
:1008500091E01F930F939F938F9386E096E09F9371
:100860008F937F926F921F922F929F938F930E94EC
:10087000C011EFEFEE1AFE0A0FB6F894DEBF0FBEFE
:10088000CDBF80CF8401232D46E056E0B7018CE137
:1008900091E00E940B03A6E0B6E0E22D1D92EA95DE
:1008A000E9F72601E12CF12C6DCF80910606882313
:1008B00049F08401232D46E056E0B70189E191E03B
:1008C0000E940B030F900F900F900F90DF91CF912C
:1008D0001F910F91FF90EF90DF90CF90BF90AF905E
:1008E0009F908F907F906F905F904F903F902F9050
:1008F00008954F925F926F927F928F929F92AF92E4
:10090000BF92CF92DF92EF92FF920F931F93CF93FC
:10091000DF935C014B01542E82E3E0E7F5E0DF0159
:100920001D928A95E9F7E12CF12CC12CD12CEF0115
:1009300052E3452E6AEF662E61E0762ECA14DB0480
:100940000CF09CC086010F5F1F4FF601EE0FFF1FDA
:10095000E80DF91D0190F081E02D80914A029091FF
:100960004B02892B29F0ED30F10511F46801E6CF37
:100970001E161F060CF03DC0CF019927FC01EF5059
:10098000FF4F2491FC01E352FF4FE491EE2371F3FA
:10099000F0E0CF01880F991FFC01E754FF4FA591AC
:1009A000B491FC01ED52FF4F8591949151100AC012
:1009B0004FB7F8943C91209532233C93DC01EC91A5
:1009C0002E230DC0E2E05E120DC04FB7F8943C91AB
:1009D000522F509535233C93DC01EC912E2B2C9318
:1009E0004FBFC4CF8FB7F894EC912E2B2C938FBFB1
:1009F000BDCF309709F4BACFDE010D900020E9F7A2
:100A0000CD018C569540C29730F5F195E195F109ED
:100A100080917005882319F088EF91E002C086EA82
:100A200091E0FF93EF939F938F93DF93CF937F9208
:100A30006F921F924F92DF93CF930E94C011FFEFEE
:100A4000EF1AFF0A8DB79EB70C960FB6F8949EBFAB
:100A50000FBE8DBF8BCF01E611E0252D40E755E09D
:100A6000B70186EC90E00E940B03DE01E42D1D929D
:100A7000EA95E9F78601E12CF12C78CF8091700599
:100A8000882351F001E611E0252D40E755E0B7013C
:100A900083EC90E00E940B03DF91CF911F910F91A7
:100AA000FF90EF90DF90CF90BF90AF909F908F908E
:100AB0007F906F905F904F9008956FEF7FEFCB0125
:100AC0000C94FE026F927F928F929F92AF92BF9290
:100AD000CF92DF92EF92FF920F931F93CF93DF930A
:100AE000EC01181619060CF5DD27FE01EB5FFE4F31
:100AF0008491FE01EF50FF4F1491FE01E352FF4F2E
:100B0000C491CC2309F476C081110E949901EC2F85
:100B1000F0E0EE0FFF1FE753FF4FA591B491EC916A
:100B2000E12321E009F067C065C0892B09F460C0AA
:100B300081E092E00E94DD0888EF91E00E94DD08EC
:100B4000882799278C1B9D0B0E940B0986EA91E050
:100B50000E943A0981E496E00E94310281E496E025
:100B60000E948301892BD1F3C2EAD5E06E017E0198
:100B7000A12CB12C812C912C612C712C00E010E067
:100B80000E945D05F60181936F018B3331F461148E
:100B9000710419F4188237017F0188818B3331F495
:100BA0008114910419F418824701760188818B33EE
:100BB00031F4A114B10419F4188257017601899116
:100BC0008A3029F4F801EE55FA4F108207C08C37AD
:100BD000C9F30F5F1F4F0233110591F6A114B10441
:100BE00049F0C5010E94FC1021E0892B21F402C0CC
:100BF0002FEF01C020E0822FDF91CF911F910F9145
:100C0000FF90EF90DF90CF90BF90AF909F908F902C
:100C10007F906F900895CF92DF92EF92FF92409174
:100C2000120150911301EEE4F2E020E030E02417CD
:100C3000350729F126173707F1F0A081B181A817F0
:100C4000B907C9F4D901AA0FBB1FAA0FBB1FA8502F
:100C5000BC4FCD90DD90ED90FC90CD28CE28CF28D4
:100C600089F4D901AA0FBB1FA059BB4F0D90BC91AD
:100C7000A02DAB2B39F42F5F3F4F3296D8CF80E0B9
:100C800090E002C081E090E0FF90EF90DF90CF9085
:100C900008956F927F928F929F92AF92BF92CF9260
:100CA000DF92EF92FF920F931F93CF93DF93CDB715
:100CB000DEB7EC970FB6F894DEBF0FBECDBF3C0198
:100CC000CE0101965C018CE3D5011D928A95E9F76E
:100CD0009CE8892E92E0992E2EE4C22E22E0D22E9C
:100CE00000E010E0E12CF12C8091120190911301B1
:100CF0000817190730F506151705D1F0F4018081A2
:100D00009181892BA9F4B801D6018D919C910E9403
:100D10000B06892B69F4F701EE0FFF1FEA0DFB1D8F
:100D2000D6018D919C9191838083F70131967F014B
:100D30000F5F1F4FF2E08F0E911C82E0C80ED11C96
:100D4000D3CF41E080918A0290918B02892B09F0E8
:100D500040E02AE431E0B501C7010E947503EC963A
:100D60000FB6F894DEBF0FBECDBFDF91CF911F91BC
:100D70000F91FF90EF90DF90CF90BF90AF909F903A
:100D80008F907F906F900895CF93DF93EC01CC0FFD
:100D9000DD1FFE01E25BFD4FBC01808191810E945D
:100DA0000B06892B09F5FE01E457FD4F80819181E7
:100DB000892BD1F441E080918A0290918B02892B9A
:100DC00009F040E0C25BDD4F8881998190934D022C
:100DD00080934C022EE331E06CE472E081E090E01D
:100DE000DF91CF910C947503DF91CF910895CF924D
:100DF000DF92EF92FF929C01220F331FF901E0591D
:100E0000FB4F11821082AC01440F551F440F551F38
:100E1000FA01E058FC4FCC24CA94DC2C7601C08245
:100E2000D182E282F382F901EA5FFC4F11821082E3
:100E3000FA01E850FC4F1082118212821382F901EC
:100E4000E653FD4F1182108220917E0330917F0383
:100E5000232B31F0FF90EF90DF90CF900C94C406DD
:100E6000FF90EF90DF90CF9008950F931F93CF9353
:100E7000DF9320914A0230914B02232B09F04CC0A2
:100E8000EC010E94780200916C0510916D05209193
:100E90006E0530916F05AB01BC01401B510B620B1D
:100EA000730BCE01A0E0B0E0481759076A077B0733
:100EB00098F1C1E08091680590916905A0916A055B
:100EC000B0916B05892B8A2B8B2B09F0C0E08DE04C
:100ED00090E090934D0280934C022AE331E04C2F36
:100EE0006CE472E081E090E00E9475034C2F50E0CA
:100EF00060E070E0409368055093690560936A056F
:100F000070936B050E94780260936C0570936D0579
:100F100080936E0590936F05DF91CF911F910F9194
:100F20000895EF92FF920F931F93CF93DF93CDB766
:100F3000DEB7E2970FB6F894DEBF0FBECDBF7C01DF
:100F400000E010E00E945D05E1E0F0E0EC0FFD1F25
:100F5000E00FF11F80838E3749F484E092E00E9415
:100F60003A0981E496E00E943102EACF8A3369F0BF
:100F70008C3731F481E090E0F7019183808305C0E4
:100F80000F5F1F4F02331105E9F6E1E0F0E0EC0FCF
:100F9000FD1FE00FF11F1082CE0101960E94FC1090
:100FA000E2960FB6F894DEBF0FBECDBFDF91CF91B2
:100FB0001F910F91FF90EF9008951F920F920FB61F
:100FC0000F9211246F927F928F929F92AF92BF9255
:100FD000CF92DF92EF92FF920F931F932F933F9345
:100FE0004F935F936F937F938F939F93AF93BF9331
:100FF000CF93DF93EF93FF930E9478024B015C0144
:1010000032E4632E33E0732E4EE0C42E42E0D42E41
:10101000C0E0D0E08091120190911301C817D90768
:1010200008F053C0F301819191913F010E94620544
:10103000082F10E0F601808191810817190709F443
:101040003FC001301105C9F57E01EE0CFF1CEE0C0E
:10105000FF1CF701E051FB4F408151816281738198
:10106000CE01880F991FFC0184169506A606B706C7
:1010700061F0E059FB4F208131812F5F3F4F318379
:101080002083FC01EA5FFC4F02C0E653FD4F208144
:1010900031812F5F3F4F318320830E947802F70117
:1010A000E051FB4F6083718382839383F701E850A3
:1010B000FC4F6083718382839383F60111830083E5
:1010C0002196F2E0CF0ED11CA5CFFF91EF91DF91D9
:1010D000CF91BF91AF919F918F917F916F915F91D0
:1010E0004F913F912F911F910F91FF90EF90DF90C3
:1010F000CF90BF90AF909F908F907F906F900F9008
:101100000FBE0F901F901895009769F0FC01019099
:101110000020E9F73197AF01481B590BBC0181E46E
:1011200096E00C94C00080E090E008958F929F922A
:10113000AF92BF920F931F93CF93DF93CDB7DEB7DC
:10114000A1970FB6F894DEBF0FBECDBF19A24230F3
:1011500008F44AE08E010F5D1F4F842E912CA12CC4
:10116000B12CA50194010E948A11E62FB901CA0190
:1011700001501109EA3014F4E05D01C0E95CD801C6
:10118000EC93232B242B252B61F7C8010E948408A4
:10119000A1960FB6F894DEBF0FBECDBFDF91CF9101
:1011A0001F910F91BF90AF909F908F900895BC01B9
:1011B00080E090E04AE00C9496080C948408CF926A
:1011C000DF92EF92FF92CF93DF9397FF1BC06B01EB
:1011D0007C016DE281E496E00E94E401EC01662767
:1011E0007727CB016C197D098E099F094AE00E947F
:1011F00096088C0F9D1FDF91CF91FF90EF90DF90AD
:10120000CF9008954AE0DF91CF91FF90EF90DF906B
:10121000CF900C949608BC01990F880B990B0C94F5
:10122000DF080F931F93CF93DF938C01C0E0D0E0D2
:10123000F801EC0FFD1F6491662341F081E496E014
:101240000E94E401892B11F02196F2CFCE01DF91AB
:10125000CF911F910F910895CF93DF930E941109B1
:10126000EC0184EA91E00E9484088C0F9D1FDF91BD
:10127000CF910895CF93DF930E948408EC0184EA14
:1012800091E00E9484088C0F9D1FDF91CF910895FB
:10129000CF93DF93CDB7DEB72A970FB6F894DEBFB2
:1012A0000FBECDBF789484B5826084BD84B5816063
:1012B00084BD85B5826085BD85B5816085BD809121
:1012C0006E00816080936E00109281008091810099
:1012D0008260809381008091810081608093810091
:1012E000809180008160809380008091B100846053
:1012F0008093B1008091B00081608093B0008091B4
:101300007A00846080937A0080917A008260809372
:101310007A0080917A00816080937A0080917A00CF
:10132000806880937A001092C1001A821982E0913D
:101330005106F091520682E08083E0914D06F091D3
:101340004E061082E0914F06F09150068FEC80839C
:1013500010925906E0915506F091560686E080837A
:10136000E0915306F0915406808180618083E09182
:101370005306F0915406808188608083E091530683
:10138000F0915406808180688083E0915306F0914B
:10139000540680818F7D808381E496E00E94310233
:1013A00081E496E00E948301892B29F081E496E094
:1013B0000E946101F5CF86EA91E00E943A0981E43A
:1013C00096E00E94310281E496E00E9483011816A3
:1013D00019060CF447C088E690E00E942C0981E4CD
:1013E00096E00E9431020E9478022B013C0181E4C8
:1013F00096E00E948301181619062CF30E947802C9
:10140000DC01CB0184199509A609B70988389341F5
:10141000A105B105C0F60E9453024B015C0155E0E5
:10142000C52ED12CE12CF12C0E945302DC01CB0102
:1014300088199909AA09BB09883E9340A105B105FD
:1014400098F331E0C31AD108E108F10848EE840EA0
:1014500043E0941EA11CB11CC114D104E104F104A9
:1014600019F7C5CF0E945D0583349105D9F70E9415
:101470005D05CA97E1F7CE0101960E94910790930E
:1014800013018093120142E4E42E43E0F42E00E0C5
:1014900010E080911201909113010817190758F478
:1014A000CE0101960E949107D7018D939D937D01F6
:1014B0000F5F1F4FEECFCE0101960E9491079093D0
:1014C0007F0380937E03892B01F1CE0101960E9458
:1014D000910790938B0280938A023EE4E32E32E0E0
:1014E000F32E00E010E08091120190911301081793
:1014F000190758F4CE0101960E949107F7018193D4
:1015000091937F010F5F1F4FEECFCE0101960E9496
:10151000910790930D0180930C01CE0101960E94DA
:10152000910790930B0180930A01CE0101960E94CE
:1015300091079093050180930401CE0101960E94CA
:1015400091079093090180930801CE0101960E94B2
:1015500091079093070180930601CE0101960E94A6
:10156000910790934B0280934A02CE0101960E940C
:1015700091079093C9028093C80289819A8101974B
:1015800021F08EE690E00E942C0981E496E00E9412
:1015900031028DE691E00E94DD0880911201909168
:1015A00013010E94D70822E4E22E23E0F22E00E08D
:1015B00010E080911201909113010817190768F447
:1015C0008EE691E00E94DD08D7018D919D917D010D
:1015D0000E940B090F5F1F4FECCF8EE691E00E9437
:1015E000DD0880917E0390917F030E94D70880914F
:1015F0007E0390917F03892B21F18EE691E00E947A
:10160000DD0880918A0290918B020E94D7089EE4A7
:10161000E92E92E0F92E00E010E080911201909105
:1016200013010817190768F48EE691E00E94DD089F
:10163000F701819191917F010E940B090F5F1F4F6C
:10164000ECCF8EE691E00E94DD0880910C01909134
:101650000D010E94D7088EE691E00E94DD0880917E
:101660000A0190910B010E94D7088EE691E00E943A
:10167000DD0880910401909105010E94D7088EE653
:1016800091E00E94DD0880910801909109010E947B
:10169000D7088EE691E00E94DD08809106019091C6
:1016A00007010E94D7088EE691E00E94DD08809134
:1016B0004A0290914B020E94D7088EE691E00E9468
:1016C000DD088091C8029091C9020E94D70880E786
:1016D00091E00E943A0981E496E00E94310240E0E4
:1016E00062E473E080911201909113010E947904E9
:1016F00026E231E041E062E473E0809112019091D2
:1017000013010E94750380917E0390917F03892BC2
:1017100049F041E06EE472E0809112019091130172
:101720000E947904BEE0EB2EB2E0FB2E02E413E04F
:10173000C12CD12C812C912C5401839480911201C5
:1017400090911301C816D90608F05FC0C6010E9427
:10175000F706D8018D919C910E94620590E0F701F7
:10176000819391937F01D8018D919D918D01282FB7
:10177000883038F08E3040F0863148F0E0E0F0E01C
:1017800008C0EDE6F0E005C0EBE6F0E002C0ECE6F4
:10179000F0E030819927283028F02E3010F4089797
:1017A00001C00E97B501A40104C0440F551F661F68
:1017B000771F8A95D2F7DB01CA01832B80833BB365
:1017C000283050F091E02E3008F490E0882D01C0D0
:1017D000880F9A95EAF701C084E0832B8BBB309188
:1017E0006800283050F091E02E3008F490E0882D09
:1017F00001C0880F9A95EAF701C084E0832B80939B
:1018000068005FEFC51AD50A99CF8DE090E09093FC
:10181000AD048093AC0441E06CEA74E081E090E0B8
:101820000E9479042091EE043091EF0421153105D6
:1018300031F1409112015091130180E090E048177E
:10184000590759F0FC01EE0FFF1FE059FB4F608173
:101850007181672BA1F40196F2CF2130310521F47B
:1018600082E791E00E943A0981E496E00E94310209
:1018700082E090E09093EF048093EE04FDC30E9419
:1018800078026093EA047093EB048093EC049093E5
:10189000ED040091E6041091E7042091E8043091F2
:1018A000E904DC01CB01801B910BA20BB30B40912F
:1018B000E4045091E5048B3F9105A105B10540F486
:1018C000012B022B032B21F04115510509F454C1C2
:1018D000C090E004D090E104E090E204F090E304D2
:1018E000C114D104E104F10481F0452B71F00E9490
:1018F0007802DC01CB018C199D09AE09BF09893E34
:101900009340A105B10508F0BAC382E3EEEAF4E022
:10191000DF011D928A95E9F78091E4049091E50436
:10192000892BE1F488E890E00E942C0981E496E09C
:101930000E94310281E496E00E943102E1E0F0E091
:10194000F093E504E093E4040E9478026093E004DD
:101950007093E1048093E2049093E30481E496E0C1
:101960000E948301181619060CF0F6C000E010E082
:101970006AE070E080E090E00E94FE02F801E2552B
:10198000FB4F8083833511F400E010E0F801E2554D
:10199000FB4F80818A3049F08C3739F0882329F059
:1019A0000F5F1F4F013311051CF3F801E255FB4F88
:1019B000108268EF71E08EEA94E00E94411168E7BE
:1019C00071E00E94B711892B09F0C6C068EF71E081
:1019D00080E090E00E9441116C0168EF71E080E0CE
:1019E00090E00E9441115C0168EF71E080E090E0BE
:1019F0000E9441114C016CE8462E62E0562E7EE4B6
:101A0000672E72E0772E00E010E080911201909135
:101A1000130108171907E0F568EF71E080E090E026
:101A20000E9441110097A1F10E94FC107C01D2019B
:101A30008D919C91E816F90611F1E114F10431F051
:101A400040918A02F3018081918129C380910E0126
:101A500090910F01A0911001B09111018F3F9F4F04
:101A6000AF4FBF4F49F4B801D3018D919C910E94B3
:101A70000B06892B09F408C3F201F182E0820F5FA3
:101A80001F4FF2E04F0E511C22E0620E711CBDCFC1
:101A9000C114D10409F452C06FE771E0C6010E947D
:101AA000B711892B09F04AC00E94780260930001A7
:101AB000709301018093020190930301A114B1047A
:101AC000E9F1C5010E941A1100910E0110910F0158
:101AD000209110013091110160177107820793075F
:101AE00069F160930E0170930F0180931001909340
:101AF00011019F938F937F936F9381E891E09F9360
:101B00008F938CEF91E09F938F930E94CE020FB63C
:101B1000F894DEBF0FBECDBF80917E0390917F030E
:101B2000892B61F02CE231E040918A026EE472E090
:101B300080911201909113010E9475038114910408
:101B400039F0C4010E941A117093EF046093EE04FF
:101B50001092E5041092E4048091EA049091EB0461
:101B6000A091EC04B091ED048093E6049093E70417
:101B7000A093E804B093E90460E873E07E836D838A
:101B800052E4C52E53E0D52E212C312C80E090E07C
:101B90001C821B8220911201309113012216330600
:101BA00008F0F9C12FB7F894F101EE0FFF1FEE0F07
:101BB000FF1FE850FC4F40805180628073802FBF30
:101BC000411451046104710409F4D8C17101EE0C8F
:101BD000FF1CF701E059FB4F80819181892B29F48B
:101BE00081E090E01C821B82C9C180819181C397F2
:101BF00018F41C821B824AC040910E0150910F01C3
:101C000060911001709111014F3F8FEF58076807E5
:101C1000780779F3ED81FE8180819181A281B38182
:101C20008F3FFFEF9F07AF07BF0719F7ED81FE81D9
:101C3000408351836283738380930E0190930F01DD
:101C4000A0931001B093110180917E0390917F03C6
:101C5000892B79F23F922F92D60111968C91119790
:101C60008F938C918F93E7E8F1E0FF93EF9348E92E
:101C700051E05F934F930E94CE020FB6F894DEBFFF
:101C80000FBECDBFA1E0B0E0BC83AB830E94780261
:101C90006093EA047093EB048093EC049093ED045A
:101CA000DC01CB0184199509A609B70900910C0143
:101CB00010910D0120E030E0081719072A073B07B3
:101CC00008F053C0F701E059FB4F2081318180912A
:101CD0000A0190910B018217930768F50081118129
:101CE000F6010190F081E02DF887EF83AD81BE8190
:101CF0008D909D90AD90BC9081EA91E00E94DD08AE
:101D0000C501B4010E94DF0888EF91E00E94DD0860
:101D10008F8198850E940B0988EF91E00E94DD0871
:101D2000C8010E94D70884EA91E00E94840881E4F7
:101D300096E00E94310280917E0390917F03892B6F
:101D400009F446C0F701E059FB4F208131818091B1
:101D500008019091090128173907D0F181E090E03E
:101D6000E1E0F0E0FC83EB8335C080917E0390914D
:101D70007F03892B09F4A0C180910601909107018E
:101D8000009709F499C1F701E059FB4F2081318197
:101D90002817390708F490C13F922F92D601119667
:101DA0008C9111978F938C918F93E6EDF1E0FF93D7
:101DB000EF9348E951E05F934F930E94CE02C10137
:101DC0000E94C4060FB6F894DEBF0FBECDBFB8C1E7
:101DD00081E090E0F701E653FD4F20813181232B14
:101DE00011F14081518120910401309105012417A6
:101DF0003507C8F44091EA045091EB046091EC047B
:101E00007091ED04441955096609770920910C0178
:101E100030910D01890120E030E0041715072607F5
:101E2000370708F490C1019709F04BC0F701E0595A
:101E3000FB4F808191810B9708F440C02081318154
:101E40008091EA049091EB04A091EC04B091ED0430
:101E500040910B014F9340910A014F933F932F9371
:101E600020910D012F9320910C012F93AC01BD0106
:101E700044195509660977097F936F935F934F93D0
:101E80007F926F925F924F92BF93AF939F938F9386
:101E90003F922F92F60181818F9380818F932AEA5E
:101EA00031E03F932F936FEA71E07F936F930E942D
:101EB000CE020FB6F894DEBF0FBECDBFC1010E94A7
:101EC000F70680917E0390917F03892B09F454C01B
:101ED000EB81FC81EF2B09F483CEF701E059FB4F36
:101EE000208131818091EA049091EB04A091EC046F
:101EF000B091ED0440910B014F9340910A014F9333
:101F00003F932F9320910D012F9320910C012F933C
:101F1000AC01BD0144195509660977097F936F9398
:101F20005F934F937F926F925F924F92BF93AF9365
:101F30009F938F933F922F92D60111968C91119778
:101F40008F938C918F93EDECF1E0FF93EF932FEA59
:101F500031E03F932F930E94CE02C1010E944906B7
:101F60000FB6F894DEBF0FBECDBF81E090E0A1E0D8
:101F7000B0E0BC83AB8302C081E090E0BFEF2B1ADE
:101F80003B0AE2E0CE0ED11C2D813E812C5F3F4FFB
:101F90003E832D83FFCD892B19F484EF91E002C09D
:101FA00088EB9BE00E9435070E9478026093EA0468
:101FB0007093EB048093EC049093ED040091000186
:101FC0001091010120910201309103010F3F4FEF69
:101FD00014072407340709F44FC0C0900E01D090B5
:101FE0000F01E0901001F0901101CF20CE20CD2004
:101FF000C09409F441C06B017C01C01AD10AE20A05
:10200000F30A41E3C41645E7D406E104F104A0F164
:10201000CC24CA94DC2C7601C0920E01D0920F0120
:10202000E0921001F09211016093000170930101A0
:10203000809302019093030180917E0390917F032E
:10204000892BD1F0EB80FC80EF28B1F48091C8029D
:102050009091C902892B61F085E990E00E941109F5
:102060008CE990E00E942C0981E496E00E94310204
:102070008FEF9FEF0E9449060E948F01D3CB1092F1
:10208000E5041092E40441CC41E080918A029091F1
:102090008B02892B09F040E0D3018D919C919093A4
:1020A0004D0280934C022CE231E06CE472E081E05E
:1020B00090E00E947503E0CC87010A5F1C4FD801B5
:1020C0002D913C918091080190910901821793070D
:1020D000B8F5F701E059FB4F2081318138872F8314
:1020E000D6010D90BC91A02DBA87A987ED81FE8104
:1020F00080809180A280B38087EA91E00E94DD0811
:10210000C501B4010E94DF0888EF91E00E94DD085C
:1021100089859A850E940B0988EF91E00E94DD086D
:102120008F8198850E94D70884EA91E00E948408F4
:1021300081E496E00E943102D80111961C921E9211
:1021400080E090E047CEF60100811181AD81BE8133
:102150008D909D90AD90BC9087EF91E00E94DD083E
:10216000C501B4010E94DF0888EF91E00E94DD08FC
:10217000C8010E940B0984EA91E00E94840881E46E
:1021800096E00E94310280917E0390917F03892B1B
:1021900009F44CCEE1E0F0E0FC83EB8347CEE1E4D0
:1021A000F6E01382128288EE93E0A0E0B0E0848330
:1021B0009583A683B78388E191E09183808385EC42
:1021C00090E09587848784EC90E09787868780EC01
:1021D00090E0918B808B81EC90E0938B828B82ECF2
:1021E00090E0958B848B86EC90E0978B868B118E9C
:1021F000128E138E148E0895FC0188279927E89477
:1022000021912032E9F3293010F02E30C8F32B321F
:1022100041F02D3239F4689404C00E948211820F7B
:10222000911D219120532A30C0F31EF49095819581
:102230009F4F08951F93FC0199278827BC01E894BC
:1022400011911032E9F3193010F01E30C8F31B322F
:1022500051F01D3249F4689406C00E946D11610F5F
:10226000711D811D911D119110531A30B0F33EF470
:1022700090958095709561957F4F8F4F9F4F1F91DF
:1022800008954EED56E00E9446110895FA01A1917D
:10229000B081009719F41097E1F0CD01DC01CD0178
:1022A0000D90002011F4C00113C0FB0121912223E5
:1022B00019F02015D9F7F3CFFB012191201519F45E
:1022C0001E92119606C02223C1F70D900020A1F79F
:1022D000D001FA01A193B0830895592F482F372FC9
:1022E000262F660F771F881F991F660F771F881F7D
:1022F000991F620F731F841F951F660F771F881F1A
:10230000991F08957AE0979F902D879F802D910DBA
:1023100011240895A1E21A2EAA1BBB1BFD010DC0BA
:10232000AA1FBB1FEE1FFF1FA217B307E407F50785
:1023300020F0A21BB30BE40BF50B661F771F881F61
:10234000991F1A9469F760957095809590959B01F7
:10235000AC01BD01CF010895EE0FFF1F0590F49170
:10236000E02D099481E090E0F8940C94E414FB01D2
:10237000DC018D91019080190110D9F3990B08951A
:10238000AEE0B0E0E6ECF1E10C94BB140D891E89DF
:102390008F89988D26E02C831A83098397FF02C0CA
:1023A00080E090E801979E838D83AE01455E5F4F8C
:1023B000698D7A8DCE0101960E941C124D815E813D
:1023C00057FD0AC02F813885421753070CF49A0134
:1023D000F801E20FF31F10822E96E4E00C94D7145C
:1023E000AEE0B0E0E6EFF1E10C94BB148C01FA0131
:1023F00086E08C831A83098377FF02C060E070E86F
:10240000CB0101979E838D83A901BF01CE01019667
:102410000E941C124D815E8157FD0AC02F813885B4
:10242000421753070CF49A01F801E20FF31F1082D0
:102430002E96E4E00C94D714ABE0B0E0E2E2F2E1D7
:102440000C94AD146C017B018A01FC011782168289
:10245000838181FFCCC1CE0101963C01F6019381BD
:10246000F70193FD859193FF81917F01882309F402
:10247000BAC1853239F493FD859193FF81917F0133
:10248000853229F4B60190E00E941314E7CF912C15
:10249000212C312CFFE1F315D8F08B3279F038F490
:1024A000803279F08332A1F4232D20611DC08D325A
:1024B00061F0803369F4232D216016C0832D826082
:1024C000382EE32DE4603E2E2AC0F32DF8601DC0A7
:1024D00037FC2DC020ED280F2A3040F08E32B9F4A1
:1024E00036FC81C1232D2064322E19C036FE06C071
:1024F0008AE0989E200D1124922E11C0EAE02E9EB3
:10250000200D1124222EF32DF0623F2E08C08C36B0
:1025100021F4832D8068382E02C0883641F4F701FB
:1025200093FD859193FF81917F018111B3CF982F06
:102530009F7D9554933028F40C5F1F4F9FE3998340
:102540000DC0833631F0833771F0833509F059C0FF
:1025500021C0F801808189830E5F1F4F88248394F6
:10256000912C530113C02801F2E04F0E511CF801C9
:10257000A080B18036FE03C0692D70E002C06FEF0D
:102580007FEFC5010E9408144C018201F32DFF77F3
:102590003F2E16C0280122E0420E511CF801A080F7
:1025A000B18036FE03C0692D70E002C06FEF7FEF8F
:1025B000C5010E94FD134C01F32DF0683F2E8201EE
:1025C00033FC1BC0822D90E088169906B0F4B6014A
:1025D00080E290E00E9413142A94F4CFF50137FCB6
:1025E000859137FE81915F01B60190E00E9413143E
:1025F00021102A9421E0821A91088114910471F724
:10260000E8C0843611F0893641F5F80137FE07C07D
:1026100060817181828193810C5F1F4F08C060814E
:102620007181072E000C880B990B0E5F1F4FF32D45
:10263000FF763F2E97FF09C0909580957095619524
:102640007F4F8F4F9F4FF0683F2E2AE030E0A3016D
:102650000E944F14882E861845C0853731F4232DEB
:102660002F7EB22E2AE030E025C0932D997FB92E1F
:102670008F36C1F018F4883579F0B5C0803719F07D
:10268000883721F0B0C0E92FE061BE2EB4FE0DC046
:10269000FB2DF460BF2E09C034FE0AC0292F26602E
:1026A000B22E06C028E030E005C020E130E002C0D4
:1026B00020E132E0F801B7FE07C0608171818281BC
:1026C00093810C5F1F4F06C06081718180E090E0B4
:1026D0000E5F1F4FA3010E944F14882E8618FB2DFA
:1026E000FF773F2E36FE0DC0232D2E7FA22E89149C
:1026F00058F434FE0BC032FC09C0832D8E7EA82E08
:1027000005C0B82CA32C03C0B82C01C0B92CA4FE62
:102710000FC0FE01E80DF11D8081803321F49A2D58
:10272000997EA92E09C0A2FE06C0B394B39404C03A
:102730008A2D867809F0B394A3FC11C0A0FE06C0D0
:10274000B21488F4280C922C9B180EC0B21460F4BA
:10275000B60180E290E00E941314B394F7CFB21454
:1027600018F42B1802C0982C212CA4FE10C0B6011E
:1027700080E390E00E941314A2FE17C0A1FC03C0E6
:1027800088E790E002C088E590E0B6010CC08A2D91
:10279000867859F0A1FE02C08BE201C080E2A7FC5E
:1027A0008DE2B60190E00E941314891438F4B6014A
:1027B00080E390E00E9413149A94F7CF8A94F30177
:1027C000E80DF11D8081B60190E00E941314811084
:1027D000F5CF222009F442CEB60180E290E00E94BB
:1027E00013142A94F6CFF6018681978102C08FEFE9
:1027F0009FEF2B96E2E10C94C914FC010590615007
:1028000070400110D8F7809590958E0F9F1F089506
:10281000FC016150704001900110D8F780959095AF
:102820008E0F9F1F08950F931F93CF93DF93FB018C
:10283000238121FD03C08FEF9FEF2CC022FF16C024
:1028400046815781248135814217530744F4A08182
:10285000B1819D012F5F3F4F318320838C9326816F
:1028600037812F5F3F4F3783268314C08B01EC01E4
:10287000FB010084F185E02D0995892BE1F6D80153
:1028800016968D919C911797019617969C938E930F
:102890001697CE01DF91CF911F910F910895FA0104
:1028A000AA27283051F1203181F1E8946F936E7F8F
:1028B0006E5F7F4F8F4F9F4FAF4FB1E03ED0B4E080
:1028C0003CD0670F781F891F9A1FA11D680F791FC1
:1028D0008A1F911DA11D6A0F711D811D911DA11DD2
:1028E00020D009F468943F912AE0269F11243019E2
:1028F000305D3193DEF6CF010895462F4770405D7D
:102900004193B3E00FD0C9F7F6CF462F4F70405D2B
:102910004A3318F0495D31FD4052419302D0A9F786
:10292000EACFB4E0A6959795879577956795BA9580
:10293000C9F700976105710508959B01AC010A2E46
:1029400006945795479537952795BA95C9F7620F1D
:10295000731F841F951FA01D08952F923F924F92C1
:102960005F926F927F928F929F92AF92BF92CF921F
:10297000DF92EF92FF920F931F93CF93DF93CDB728
:10298000DEB7CA1BDB0B0FB6F894DEBF0FBECDBFA0
:1029900009942A88398848885F846E847D848C8471
:1029A0009B84AA84B984C884DF80EE80FD800C817A
:1029B0001B81AA81B981CE0FD11D0FB6F894DEBF5D
:0C29C0000FBECDBFED010895F894FFCFCD
:1029CC00FFFFFFFF1E00BC02C8000A002C01FFFF26
:1029DC00FFFF050000000000E401C00052013102BD
:1029EC0083016101750173657475700070695374AE
:1029FC0061747573436865636B004C454400736880
:102A0C007574446F776E5461700073687574446F9D
:102A1C00776E4E6F6E506F7572696E67546170731E
:102A2C000073657450696E734D6F646500433A00B2
:102A3C007C00646561643B00537461747573005968
:102A4C0000524649443A005461702053656C6563EA
:102A5C007465642050696E002573202564202564FC
:102A6C0000503B000D0A00553B005254204C0025F1
:102A7C007320256420256420256C7520256C752019
:102A8C00256C752025642025642025640053442082
:102A9C004E50204C200053687574646F776E205430
:102AAC00617020746F6F206D616E792070756C731E
:102ABC0065732050696E004B3B00257325732564AC
:0E2ACC0000525000636F6E74696E75650000F5
:00000001FF
