:100000000C9496000C94BE000C94BE000C94F00767
:100010000C94F0070C94F0070C94BE000C94BE00F6
:100020000C94BE000C94BE000C94BE000C94BE0058
:100030000C94BE000C94BE000C94BE000C94BE0048
:100040000C9484020C94BE000C946D010C94470136
:100050000C94BE000C94BE000C94BE000C94BE0028
:100060000C94BE000C94BE00616C697665004D690D
:100070007373696E6720436F6E666967757261742A
:10008000696F6E20456E64005374617475734368C4
:1000900065636B3B0044656275673B00536875742C
:1000A000646F776E20416C6C20746170732C206ECD
:1000B0006F2073656C6563740000000000240027E6
:1000C000002A00534D00534D00000000002300267D
:1000D00000290000000000250028002B0004040473
:1000E00004040404040202020202020303030303E1
:1000F00003010204081020408001020408102001BE
:10010000020408102000000008000201000003049F
:100110000700000000000000005750005750005535
:10012000500044656275673B0000FD1011241FBE3E
:10013000CFEFD8E0DEBFCDBF26E0A6ECB1E001C036
:100140001D92A839B207E1F711E0A0E0B1E0E8E2C2
:10015000FAE202C005900D92A63CB107D9F710E073
:10016000C6E9D0E004C02197FE010E94DA11C5392A
:10017000D107C9F70E945B090C9412150C9400007A
:10018000CF92DF92EF92FF920F931F93CF93DF9363
:100190006C017A018B01C0E0D0E0CE15DF0581F063
:1001A000D8016D918D01D601ED91FC910190F08106
:1001B000E02DC6010995892B11F02196EECF7E0125
:1001C000C701DF91CF911F910F91FF90EF90DF90CA
:1001D000CF900895089580E090E0089589EF95E02C
:1001E0000E94D00121E0892B09F420E0822F08959C
:1001F0000E94E011EF92FF920F931F93CF93DF9332
:10020000EC0181E0888F9B8D8C8D981305C0E88967
:10021000F989808185FD26C0F62E0B8D10E00F5FD9
:100220001F4F0F731127E02E8C8DE8120CC00FB6F4
:1002300007FCFACFE889F989808185FFF5CFCE01E7
:100240000E940F02F1CF8B8DFE01E80FF11DE35AE2
:10025000FF4FF0829FB7F8940B8FEA89FB8980816A
:1002600080620AC09FB7F894EE89FF896083E889AD
:10027000F98980818370806480839FBF81E090E0F2
:10028000DF91CF911F910F91FF90EF9008951F92F2
:100290000F920FB60F9211242F933F934F935F93BA
:1002A0006F937F938F939F93AF93BF93EF93FF933E
:1002B00089EF95E00E940F02FF91EF91BF91AF91FE
:1002C0009F918F917F916F915F914F913F912F916E
:1002D0000F900FBE0F901F9018951F920F920FB6A0
:1002E0000F9211242F938F939F93EF93FF93E0919D
:1002F0000906F0910A068081E0910F06F091100640
:1003000082FD12C09081809112068F5F8F732091C1
:100310001306821751F0E0911206F0E0E750FA4F11
:10032000958F8093120601C08081FF91EF919F917C
:100330008F912F910F900FBE0F901F901895FC0179
:10034000538D448D252F30E0842F90E0821B930B3A
:10035000541710F0CF96089501970895FC01918DE0
:10036000828D981761F0828DDF01A80FB11D5D9617
:100370008C91928D9F5F9F73928F90E008958FEF85
:100380009FEF0895FC01918D828D981731F0828D39
:10039000E80FF11D858D90E008958FEF9FEF089590
:1003A000FC01918D228D892F90E0805C9F4F821BF4
:1003B00091098F739927089580E090E0892B29F0A7
:1003C0000E94EE0081110C9400000895833081F0AA
:1003D00028F4813099F08230A1F008958730A9F097
:1003E0008830B9F08430D1F4809180008F7D03C0D3
:1003F000809180008F7780938000089584B58F77F7
:1004000002C084B58F7D84BD08958091B0008F7740
:1004100003C08091B0008F7D8093B0000895FC01EF
:10042000848DDF01A80FB11DA35ABF4F2C91848D7D
:1004300090E001968F739927848FA689B7892C93B2
:10044000A089B1898C91837080648C93938D848D05
:10045000981306C00288F389E02D80818F7D808308
:100460000895CF93DF93EC01888D8823C9F0EA8942
:10047000FB89808185FD05C0A889B9898C9186FD9D
:100480000FC00FB607FCF5CF808185FFF2CFA8899A
:10049000B9898C9185FFEDCFCE010E940F02E7CF85
:1004A000DF91CF9108953FB7F8948091F505909131
:1004B000F605A091F705B091F80526B5A89B05C0F3
:1004C0002F3F19F00196A11DB11D3FBFBA2FA92FD3
:1004D000982F8827820F911DA11DB11DBC01CD0150
:1004E00042E0660F771F881F991F4A95D1F708953C
:1004F0002FB7F8946091F1057091F2058091F305A2
:100500009091F4052FBF08951F920F920FB60F928E
:1005100011242F933F938F939F93AF93BF93809119
:10052000F1059091F205A091F305B091F405309199
:10053000F00523E0230F2D3720F40196A11DB11DF6
:1005400005C026E8230F0296A11DB11D2093F005DA
:100550008093F1059093F205A093F305B093F40511
:100560008091F5059091F605A091F705B091F805F9
:100570000196A11DB11D8093F5059093F605A093FA
:10058000F705B093F805BF91AF919F918F913F917F
:100590002F910F900FBE0F901F901895CF93DF9360
:1005A000CDB7DEB7E2970FB6F894DEBF0FBECDBF72
:1005B0008091800290918102892BB9F082E291E0D2
:1005C0000E9424099E01275C3F4F4FA958AD62E36A
:1005D00070E0CE0101960E941E12CE0101960E948B
:1005E0004D0989EF95E00E943102E2960FB6F8942A
:1005F000DEBF0FBECDBFDF91CF9108950E9478027C
:1006000089EF95E00E94D00118161906CCF789EF02
:1006100095E00C94AE019F92AF92BF92CF92DF9281
:10062000EF92FF920F931F93CF93DF935C01EB0147
:100630008A01922E0E9478026B017C01C5010E9402
:10064000240981EB91E00E94F008692D70E080E0C0
:1006500090E04AE00E94A90881EB91E00E94F00836
:100660001C161D063CF4CE010E941E0981EB91E090
:100670000E94F008C8010E94F0088FE591E00E94F6
:100680004D0989EF95E00E94310289EF95E00E94C3
:1006900031026AE070E080E090E00E94FE028C3758
:1006A000910561F00E947802DC01CB018C199D0953
:1006B000AE09BF090A97A105B10558F3DF91CF91A3
:1006C0001F910F91FF90EF90DF90CF90BF90AF9070
:1006D0009F9008952F923F924F925F926F927F92D8
:1006E0008F929F92AF92BF92CF92DF92EF92FF9242
:1006F0000F931F93CF93DF9300D000D0CDB7DEB719
:100700002C017A836983342E82E3EEEBF5E0DF017E
:100710001D928A95E9F7E12CF12CC12CD12C8F0187
:1007200022E3222E33EB832E31E0932E4CE8A42ECD
:1007300045E0B42EC414D5040CF0AFC03601BFEFB1
:100740006B1A7B0AF601EE0FFF1F89819A81E80F71
:10075000F91FA081B181BC83AB838091020290918B
:100760000302892B21F01D9711F46301E3CFEB8184
:10077000FC811E161F060CF048C09F013327F901AB
:10078000EB5FFE4F8491F901EF50FF4FC490F901E8
:10079000E352FF4FD490DD20B9F081110E94E601B1
:1007A000ED2DF0E0EE0FFF1FED52FF4FA591B4913C
:1007B0009FB7F894311004C08C91C094C82202C035
:1007C000EC91CE2ACC929FBFD501E22D1D92EA95E5
:1007D000E9F7FC81FF932B812F938FE591E09F93A5
:1007E0008F93BF92AF929F928F921F922F92BF9240
:1007F000AF920E94EE11232D4CE855E061E070E0CD
:100800008FE191E00E940B0331C08B819C81892B89
:1008100009F4ABCFF80101900020E9F7CF018A5B22
:100820009540C29748F5AB81BC81B195A195B109BE
:10083000BC83AB838091BE05882319F081EB91E0E6
:1008400002C08FE591E0BC81BF93EB81EF939F9352
:100850008F931F930F939F928F921F922F921F93AC
:100860000F930E94EE11FFEFEF1AFF0A0FB6F894F4
:10087000DEBF0FBECDBF79CF232D4EEB55E0B701C4
:100880008CE191E00E940B03D801E22D1D92EA95C4
:10089000E9F73601E12CF12C68CF8091BE05882361
:1008A000F1F0232D4EEB55E0B70189E191E00F9077
:1008B0000F900F900F90DF91CF911F910F91FF90AC
:1008C000EF90DF90CF90BF90AF909F908F907F90F0
:1008D0006F905F904F903F902F900C940B030F9070
:1008E0000F900F900F90DF91CF911F910F91FF907C
:1008F000EF90DF90CF90BF90AF909F908F907F90C0
:100900006F905F904F903F902F9008954F925F921D
:100910006F927F928F929F92AF92BF92CF92DF920F
:10092000EF92FF920F931F93CF93DF935C014B01E4
:10093000542E82E3E8E2F5E0DF011D928A95E9F7A3
:1009400000E010E0E12CF12CEF0152E3452E63EBC7
:10095000662E61E0762EEA14FB040CF09AC0670163
:10096000BFEFCB1ADB0AF701EE0FFF1FE80DF91DF1
:100970000190F081E02D8091020290910302892B79
:1009800029F0ED30F10511F47601E5CF1E161F06B2
:100990000CF03DC0CF019927FC01EF50FF4F24918F
:1009A000FC01E352FF4FE491EE2371F3F0E0CF013D
:1009B000880F991FFC01E754FF4FA591B491FC01EA
:1009C000ED52FF4F8591949151100AC04FB7F894A2
:1009D0003C91209532233C93DC01EC912E230DC0F9
:1009E000E2E05E120DC04FB7F8943C91522F509543
:1009F00035233C93DC01EC912E2B2C934FBFC4CFBD
:100A00008FB7F894EC912E2B2C938FBFBDCF3097DE
:100A100009F4BACFDE010D900020E9F7CD01845230
:100A20009540C29728F5F195E195F1098091280547
:100A3000882319F081EB91E002C08FE591E0FF93EC
:100A4000EF939F938F93DF93CF937F926F921F9239
:100A50004F92DF93CF930E94EE110F5F1F4F8DB720
:100A60009EB70C960FB6F8949EBF0FBE8DBF8CCF6D
:100A7000252D48E255E0B80186EC90E00E940B037A
:100A8000DE01E42D1D92EA95E9F7670100E010E030
:100A90007BCF809128058823C1F0252D48E255E0C1
:100AA000B80183EC90E0DF91CF911F910F91FF90FF
:100AB000EF90DF90CF90BF90AF909F908F907F90FE
:100AC0006F905F904F900C940B03DF91CF911F912B
:100AD0000F91FF90EF90DF90CF90BF90AF909F90DD
:100AE0008F907F906F905F904F9008956FEF7FEFA2
:100AF000CB010C94FE026F927F928F929F92AF92E5
:100B0000BF92CF92DF92EF92FF920F931F93CF93FA
:100B1000DF93EC01181619060CF5DD27FE01EB5FDB
:100B2000FE4F8491FE01EF50FF4F1491FE01E352FE
:100B3000FF4FC491CC2309F476C081110E94E601D5
:100B4000EC2FF0E0EE0FFF1FE753FF4FA591B4919C
:100B5000EC91E12321E009F067C065C0892B09F41D
:100B600060C08AEB91E00E94F00881EB91E00E9466
:100B7000F008882799278C1B9D0B0E941E098FE582
:100B800091E00E944D0989EF95E00E94310289EFC2
:100B900095E00E94D001892BD1F3CAE5D5E06E0122
:100BA0007E01A12CB12C812C912C612C712C00E0A8
:100BB00010E00E947605F60181936F018B3331F4CA
:100BC0006114710419F4188237017F0188818B3315
:100BD00031F48114910419F4188247017601888157
:100BE0008B3331F4A114B10419F418825701760142
:100BF00089918A3029F4F801E65AFA4F108207C029
:100C00008C37C9F30F5F1F4F0233110591F6A11402
:100C1000B10449F0C5010E942A1121E0892B21F479
:100C200002C02FEF01C020E0822FDF91CF911F91F2
:100C30000F91FF90EF90DF90CF90BF90AF909F907B
:100C40008F907F906F900895CF92DF92EF92FF92F6
:100C50004091120150911301E6E0F2E020E030E013
:100C60002417350729F126173707F1F0A081B18144
:100C7000A817B907C9F4D901AA0FBB1FAA0FBB1F38
:100C8000A055BC4FCD90DD90ED90FC90CD28CE28A6
:100C9000CF2889F4D901AA0FBB1FA85DBB4F0D90C7
:100CA000BC91A02DAB2B39F42F5F3F4F3296D8CF9C
:100CB00080E090E002C081E090E0FF90EF90DF9054
:100CC000CF9008956F927F928F929F92AF92BF9232
:100CD000CF92DF92EF92FF920F931F93CF93DF9308
:100CE000CDB7DEB7EC970FB6F894DEBF0FBECDBF21
:100CF0003C01CE0101965C018CE3D5011D928A95E1
:100D0000E9F794E4892E92E0992E26E0C22E22E0A3
:100D1000D22E00E010E0E12CF12C80911201909194
:100D200013010817190730F506151705D1F0F4015E
:100D300080819181892BA9F4B801D6018D919C9174
:100D40000E942406892B69F4F701EE0FFF1FEA0DBC
:100D5000FB1DD6018D919C9191838083F701319683
:100D60007F010F5F1F4FF2E08F0E911C82E0C80ED3
:100D7000D11CD3CF41E08091420290914302892B54
:100D800009F040E0B501C7010E946A03EC960FB676
:100D9000F894DEBF0FBECDBFDF91CF911F910F91B1
:100DA000FF90EF90DF90CF90BF90AF909F908F908B
:100DB0007F906F900895CF93DF93EC01CC0FDD1FF0
:100DC000FE01EA5FFD4FBC01808191810E942406F3
:100DD000892BF9F4FE01EC5BFD4F80819181892B19
:100DE000C1F441E08091420290914302892B09F0C5
:100DF00040E0CA5FDD4F888199819093050280931E
:100E0000040264E072E081E090E0DF91CF910C9405
:100E10006A03DF91CF910895CF92DF92EF92FF9214
:100E20009C01220F331FF901E85DFB4F11821082F4
:100E3000AC01440F551F440F551FFA01E85CFC4FED
:100E4000CC24CA94DC2C7601C082D182E282F38267
:100E5000F901E254FD4F11821082FA01E055FC4F76
:100E60001082118212821382F901EE57FD4F118216
:100E700010822091360330913703232B31F0FF90FD
:100E8000EF90DF90CF900C94DB06FF90EF90DF9017
:100E9000CF9008950F931F93CF93DF932091020279
:100EA00030910302232B09F04AC0EC010E94780222
:100EB00000912405109125052091260530912705E4
:100EC000AB01BC01401B510B620B730BCE01A0E0C8
:100ED000B0E0481759076A077B0788F1C1E08091A5
:100EE000200590912105A0912205B0912305892B21
:100EF0008A2B8B2B09F0C0E08DE090E090930502E7
:100F0000809304024C2F64E072E081E090E00E9444
:100F10006A034C2F50E060E070E04093200550934E
:100F2000210560932205709323050E947802609347
:100F30002405709325058093260590932705DF915E
:100F4000CF911F910F910895EF92FF920F931F93EE
:100F5000CF93DF93CDB7DEB7E2970FB6F894DEBF3D
:100F60000FBECDBF7C0100E010E00E947605E1E0FD
:100F7000F0E0EC0FFD1FE00FF11F80838E3749F486
:100F80008DEB91E00E944D0989EF95E00E943102BE
:100F9000EACF8A3369F08C3731F481E090E0F701D1
:100FA0009183808305C00F5F1F4F02331105E9F65F
:100FB000E1E0F0E0EC0FFD1FE00FF11F1082CE0129
:100FC00001960E942A11E2960FB6F894DEBF0FBE7A
:100FD000CDBFDF91CF911F910F91FF90EF900895BA
:100FE0001F920F920FB60F9211246F927F928F92E1
:100FF0009F92AF92BF92CF92DF92EF92FF920F93A8
:101000001F932F933F934F935F936F937F938F9390
:101010009F93AF93BF93CF93DF93EF93FF930E9480
:1010200053024B015C013AEF632E32E0732E46EC23
:10103000C42E41E0D42EC0E0D0E080911201909106
:101040001301C817D90708F053C0F301819191919A
:101050003F010E947B05082F10E0F60180819181FD
:101060000817190709F43FC001301105C9F57E01C1
:10107000EE0CFF1CEE0CFF1CF701E855FB4F408106
:10108000518162817381CE01880F991FFC01841602
:101090009506A606B70661F0E85DFB4F2081318119
:1010A0002F5F3F4F31832083FC01E254FD4F02C08C
:1010B000EE57FD4F208131812F5F3F4F31832083D9
:1010C0000E945302F701E855FB4F608371838283CE
:1010D0009383F701E055FC4F608371838283938390
:1010E000F601118300832196F2E0CF0ED11CA5CF2B
:1010F000FF91EF91DF91CF91BF91AF919F918F9130
:101100007F916F915F914F913F912F911F910F911F
:10111000FF90EF90DF90CF90BF90AF909F908F9017
:101120007F906F900F900FBE0F901F9018950097B3
:1011300069F0FC0101900020E9F73197AF01481BED
:10114000590BBC0189EF95E00C94C00080E090E061
:1011500008958F929F92AF92BF920F931F93CF9358
:10116000DF93CDB7DEB7A1970FB6F894DEBF0FBE01
:10117000CDBF19A2423008F44AE08E010F5D1F4F27
:10118000842E912CA12CB12CA50194010E94B811A0
:10119000E62FB901CA0101501109EA3014F4E05DEB
:1011A00001C0E95CD801EC93232B242B252B61F79C
:1011B000C8010E949708A1960FB6F894DEBF0FBE33
:1011C000CDBFDF91CF911F910F91BF90AF909F90B6
:1011D0008F900895BC0180E090E04AE00C94A9084B
:1011E0000C949708CF92DF92EF92FF92CF93DF9308
:1011F00097FF1BC06B017C016DE289EF95E00E94B7
:10120000FA00EC0166277727CB016C197D098E095E
:101210009F094AE00E94A9088C0F9D1FDF91CF9182
:10122000FF90EF90DF90CF9008954AE0DF91CF914B
:10123000FF90EF90DF90CF900C94A908BC01990F1C
:10124000880B990B0C94F2080F931F93CF93DF93A5
:101250008C01C0E0D0E0F801EC0FFD1F6491662323
:1012600041F089EF95E00E94FA00892B11F0219658
:10127000F2CFCE01DF91CF911F910F910895CF93BF
:10128000DF930E942409EC018DE591E00E9497080C
:101290008C0F9D1FDF91CF910895CF93DF930E9414
:1012A0009708EC018DE591E00E9497088C0F9D1F37
:1012B000DF91CF910895CF93DF93CDB7DEB72A9713
:1012C0000FB6F894DEBF0FBECDBF789484B58260B0
:1012D00084BD84B5816084BD85B5826085BD85B5DA
:1012E000816085BD80916E00816080936E00109258
:1012F00081008091810082608093810080918100D3
:101300008160809381008091800081608093800063
:101310008091B10084608093B1008091B0008160C1
:101320008093B00080917A00846080937A008091ED
:101330007A00826080937A0080917A008160809345
:101340007A0080917A00806880937A001092C100C0
:101350001A821982E0910906F0910A0682E08083E0
:10136000E0910506F09106061082E0910706F091E3
:1013700008068FEC808310921106E0910D06F09123
:101380000E0686E08083E0910B06F0910C068081CA
:1013900080618083E0910B06F0910C06808188606B
:1013A0008083E0910B06F0910C0680818068808339
:1013B000E0910B06F0910C0680818F7D808389EF90
:1013C00095E00E94310289EF95E00E94D001892BBF
:1013D00029F089EF95E00E94AE01F5CF8FE591E00D
:1013E0000E944D0989EF95E00E94310289EF95E056
:1013F0000E94D001181619060CF447C088E690E048
:101400000E943F0989EF95E00E9431020E94780214
:101410002B013C0189EF95E00E94D00118161906B6
:101420002CF30E947802DC01CB0184199509A609EE
:10143000B70988389341A105B105C0F60E9453024F
:101440004B015C0155E0C52ED12CE12CF12C0E9402
:101450005302DC01CB0188199909AA09BB09883E0E
:101460009340A105B10598F331E0C31AD108E10812
:10147000F10848EE840E43E0941EA11CB11CC11477
:10148000D104E104F10419F7C5CF0E947605833435
:101490009105D9F70E947605CA97E1F7CE0101962A
:1014A0000E94A40790931301809312014AEFE42E47
:1014B00042E0F42E00E010E08091120190911301BF
:1014C0000817190758F4CE0101960E94A407D70106
:1014D0008D939D937D010F5F1F4FEECFCE0101963F
:1014E0000E94A4079093370380933603892B01F160
:1014F000CE0101960E94A40790934302809342027A
:1015000036E0E32E32E0F32E00E010E0809112018D
:10151000909113010817190758F4CE0101960E9403
:10152000A407F701819391937F010F5F1F4FEECFC7
:10153000CE0101960E94A40790930D0180930C01A7
:10154000CE0101960E94A40790930B0180930A019B
:10155000CE0101960E94A407909305018093040197
:10156000CE0101960E94A40790930901809308017F
:10157000CE0101960E94A407909307018093060173
:10158000CE0101960E94A407909303028093020269
:10159000CE0101960E94A40790938102809380025D
:1015A00089819A81019721F08EE690E00E943F099F
:1015B00089EF95E00E94310286E291E00E94F008F6
:1015C00080911201909113010E94EA082AEFE22E05
:1015D00022E0F22E00E010E08091120190911301C0
:1015E0000817190768F487E291E00E94F008D70114
:1015F0008D919D917D010E941E090F5F1F4FECCFC1
:1016000087E291E00E94F0088091360390913703C1
:101610000E94EA088091360390913703892B21F1CB
:1016200087E291E00E94F00880914202909143028B
:101630000E94EA0896E0E92E92E0F92E00E010E020
:1016400080911201909113010817190768F487E23D
:1016500091E00E94F008F701819191917F010E9431
:101660001E090F5F1F4FECCF87E291E00E94F00848
:1016700080910C0190910D010E94EA0887E291E0AF
:101680000E94F00880910A0190910B010E94EA08E3
:1016900087E291E00E94F008809104019091050199
:1016A0000E94EA0887E291E00E94F0088091080118
:1016B000909109010E94EA0887E291E00E94F008F7
:1016C00080910601909107010E94EA0887E291E06B
:1016D0000E94F00880910202909103020E94EA08A1
:1016E00087E291E00E94F00880918002909181024F
:1016F0000E94EA0889E291E00E944D0989EF95E095
:101700000E94310240E06AEF72E0809112019091F4
:1017100013010E94860441E06AEF72E08091120199
:10172000909113010E946A038091360390913703D0
:10173000892B49F041E066E072E0809112019091BE
:1017400013010E948604B6ECEB2EB1E0FB2E0AEFEB
:1017500012E0C12CD12C812C912C540183948091C6
:10176000120190911301C816D90608F05FC0C60196
:101770000E940C07D8018D919C910E947B0590E0FE
:10178000F701819391937F01D8018D919D918D01F6
:10179000282F883038F08E3040F0863148F0E0E075
:1017A000F0E008C0EDE6F0E005C0EBE6F0E002C0D6
:1017B000ECE6F0E030819927283028F02E3010F444
:1017C000089701C00E97B501A40104C0440F551F2E
:1017D000661F771F8A95D2F7DB01CA01832B8083AE
:1017E0003BB3283050F091E02E3008F490E0882D83
:1017F00001C0880F9A95EAF701C084E0832B8BBB68
:1018000030916800283050F091E02E3008F490E0DC
:10181000882D01C0880F9A95EAF701C084E0832BD8
:10182000809368005FEFC51AD50A99CF8DE090E0EC
:10183000909365048093640441E064E674E081E081
:1018400090E00E9486042091A6043091A7042115FF
:10185000310531F1409112015091130180E090E087
:101860004817590759F0FC01EE0FFF1FE85DFB4FC9
:1018700060817181672BA1F40196F2CF213031058F
:1018800021F48BE291E00E944D0989EF95E00E94DE
:10189000310282E090E09093A7048093A60462C492
:1018A0000E9478026093A2047093A3048093A4041E
:1018B0009093A50400919E0410919F042091A00490
:1018C0003091A104DC01CB01801B910BA20BB30B67
:1018D00040919C0450919D048B3F9105A105B10559
:1018E00040F4012B022B032B21F04115510509F483
:1018F00050C1C0909804D0909904E0909A04F09060
:101900009B04C114D104E104F10481F0452B71F072
:101910000E947802DC01CB018C199D09AE09BF0938
:10192000893E9340A105B10508F01FC482E3E6E6B5
:10193000F4E0DF011D928A95E9F780919C04909173
:101940009D04892BE1F488E890E00E943F0989EF2B
:1019500095E00E94310289EF95E00E943102E1E0BA
:10196000F0E0F0939D04E0939C040E947802609361
:1019700098047093990480939A0490939B0489EF40
:1019800095E00E94D001181619060CF0F2C000E094
:1019900010E06AE070E080E090E00E94FE02F80152
:1019A000EA59FB4F8083833511F400E010E0F80121
:1019B000EA59FB4F80818A3049F08C3739F088230F
:1019C00029F00F5F1F4F013311051CF3F801EA598D
:1019D000FB4F108261EB71E086E694E00E946F118C
:1019E00061E371E00E94E511892B09F0C2C061EB4F
:1019F00071E080E090E00E946F116C0161EB71E09A
:101A000080E090E00E946F115C0161EB71E080E08A
:101A100090E00E946F114C01E4E44E2EE2E05E2E55
:101A2000F6E06F2EF2E07F2E00E010E080911201D0
:101A30009091130108171907D0F561EB71E080E070
:101A400090E00E946F11009791F10E942A117C0191
:101A5000D2018D919C91E816F906F9F0E114F10498
:101A600031F040914202F301808191818EC38091D7
:101A70000E0190910F01A0911001B09111018F3FC3
:101A80009F4FAF4FBF4F49F4B801D3018D919C9147
:101A90000E942406892B09F46DC3F201E192F192B0
:101AA0002F010F5F1F4FF2E06F0E711CBFCFC114EB
:101AB000D10409F450C068E371E0C6010E94E51149
:101AC000892B09F048C00E9478026093000170934E
:101AD00001018093020190930301A114B104D9F193
:101AE000C5010E94481100910E0110910F01209133
:101AF000100130911101601771078207930759F1A6
:101B000060930E0170930F01809310019093110167
:101B10009F938F937F936F938AE391E09F938F932B
:101B200085EB91E09F938F930E94CE020FB6F894BD
:101B3000DEBF0FBECDBF8091360390913703892B56
:101B400051F04091420266E072E080911201909162
:101B500013010E946A038114910439F0C4010E94A8
:101B600048117093A7046093A60410929D041092EC
:101B70009C048091A2049091A304A091A404B0912C
:101B8000A50480939E0490939F04A093A004B09317
:101B9000A10448E353E05A8749876AEF72E07C83E7
:101BA0006B83212C312C80E090E018861F822091DD
:101BB0001201309113012216330608F062C22FB7CA
:101BC000F894F101EE0FFF1FEE0FFF1FE055FC4FE1
:101BD00040805180628073802FBF411451046104A2
:101BE000710409F440C26101CC0CDD1CDE82CD829F
:101BF000F601E85DFB4F80819181892B29F481E01A
:101C000090E018861F822FC280819181C39718F4BB
:101C100018861F824DC040910E0150910F016091B6
:101C20001001709111014F3F2FEF520762077207A9
:101C300079F3E985FA8580819181A281B3818F3F13
:101C4000FFEF9F07AF07BF0719F7E985FA854083C4
:101C500051836283738380930E0190930F01A0934D
:101C60001001B09311018091360390913703892BB5
:101C700079F23F922F92AB81BC8111968C91119792
:101C80008F938C918F93E0E4F1E0FF93EF9351E514
:101C9000E52E51E0F52EFF92EF920E94CE020FB694
:101CA000F894DEBF0FBECDBF61E070E078876F8330
:101CB0000E9453026093A2047093A3048093A4042F
:101CC0009093A504DC01CB0184199509A609B709F5
:101CD00000910C0110910D0120E030E00817190768
:101CE0002A073B0708F053C0ED81FE81E85DFB4FFA
:101CF0002081318180910A0190910B018217930715
:101D000050F500811181AB81BC81ED90FC90E9859B
:101D1000FA8580809180A280B3808AE591E00E945C
:101D2000F008C501B4010E94F20881EB91E00E9425
:101D3000F008C7010E941E0981EB91E00E94F008A3
:101D4000C8010E94EA088DE591E00E94970889EF9A
:101D500095E00E9431028091360390913703892BE0
:101D600009F449C0ED81FE81E85DFB4F208131819E
:101D7000809108019091090101E010E028173907CE
:101D800008F47EC0E1E0F0E0F887EF8379C080914D
:101D9000360390913703892B89F180910601909148
:101DA0000701009759F1ED81FE81E85DFB4F20812D
:101DB00031812817390710F13F922F92AB81BC81F6
:101DC00011968C9111978F938C918F93EFE8F1E09E
:101DD000FF93EF9381E5E82E81E0F82EFF92EF92DA
:101DE0000E94CE02C1010E94DB060FB6F894DEBF4E
:101DF0000FBECDBF43C001E010E042C00D811E8187
:101E000002541D4FD8012D913C9180910801909171
:101E100009018217930790F5ED81FE81E85DFB4F84
:101E2000E080F180AB81BC81CD90DC90E985FA85C2
:101E300080809180A280B38080E691E00E94F008CB
:101E4000C501B4010E94F20881EB91E00E94F00804
:101E5000C6010E941E0981EB91E00E94F008C701B3
:101E60000E94EA088DE591E00E94970889EF95E0CD
:101E70000E943102D80111961C921E9200E010E0DF
:101E8000ED81FE81EE57FD4F80819181892B49F1D3
:101E9000208131818091040190910501821793077F
:101EA00000F58091A2049091A304A091A404B091A4
:101EB000A504BC01CD01641975098609970928EEAE
:101EC00033E040E050E00E94B81180910C01909105
:101ED0000D01A0E0B0E082179307A407B50708F44E
:101EE0005FC10130110509F057C0ED81FE81E85D49
:101EF000FB4F808191810B9708F44BC080819181C9
:101F0000C090A204D090A304E090A404F090A50493
:101F100020910B012F9320910A012F939F938F9370
:101F200080910D018F9380910C018F93C701B601B1
:101F3000641975098609970928EE33E040E050E0FE
:101F40000E94B8115F934F933F932F937F926F92AC
:101F50005F924F92FF92EF92DF92CF923F922F9239
:101F6000AB81BC8111968C9111978F938C918F933B
:101F7000E3E6F1E0FF93EF9348E6E42E41E0F42E30
:101F8000FF92EF920E94CE020FB6F894DEBF0FBE12
:101F9000CDBFC1010E940C07809136039091370399
:101FA000892B09F45EC0CF80D884CD2809F427CED0
:101FB000ED81FE81E85DFB4F80819181C090A2049C
:101FC000D090A304E090A404F090A50420910B010C
:101FD0002F9320910A012F939F938F9380910D014E
:101FE0008F9380910C018F93C701B6016419750915
:101FF0008609970928EE33E040E050E00E94B811CE
:102000005F934F933F932F937F926F925F924F9284
:10201000FF92EF92DF92CF923F922F92AB81BC81E1
:1020200011968C9111978F938C918F93E6E8F1E044
:10203000FF93EF9338E6E32E31E0F32EFF92EF9219
:102040000E94CE02C1010E9462060FB6F894DEBF64
:102050000FBECDBF81E090E061E070E078876F83D4
:1020600002C081E090E07FEF271A370AAB81BC8184
:102070001296BC83AB83E985FA853496FA87E987A3
:1020800096CD892B19F484EF91E002C088EB9BE098
:102090000E944A070E9478026093A2047093A304EE
:1020A0008093A4049093A504009100011091010174
:1020B00020910201309103010F3FFFEF1F072F070F
:1020C0003F0709F44FC0C0900E01D0900F01E0907F
:1020D0001001F0901101CF20CE20CD20C09409F442
:1020E00041C06B017C01C01AD10AE20AF30A41E344
:1020F000C41645E7D406E104F104A0F1CC24CA9447
:10210000DC2C7601C0920E01D0920F01E0921001FA
:10211000F09211016093000170930101809302011C
:10212000909303018091360390913703892BD1F06E
:10213000EF80F884EF28B1F48091800290918102C1
:10214000892B61F085E990E00E9424098CE990E0F8
:102150000E943F0989EF95E00E9431028FEF9FEFC7
:102160000E9462060E94DC016ECB10929D041092C8
:102170009C04DCCB41E08091420290914302892B88
:1021800009F040E0D3018D919C91909305028093DA
:10219000040264E072E081E090E00E946A037DCC7A
:1021A000EB81FC8100811181A985BA85CD90DD90FC
:1021B000ED90FC9080EB91E00E94F008C701B60121
:1021C0000E94F20881EB91E00E94F008C8010E9491
:1021D0001E098DE591E00E94970889EF95E00E9425
:1021E00031028091360390913703892B09F47DCE1B
:1021F000E1E0F0E0F887EF8378CEE9EFF5E01382D5
:10220000128288EE93E0A0E0B0E084839583A683F9
:10221000B78388E191E09183808385EC90E0958796
:10222000848784EC90E09787868780EC90E0918BA0
:10223000808B81EC90E0938B828B82EC90E0958B8D
:10224000848B86EC90E0978B868B118E128E138E8A
:10225000148E0895FC0188279927E8942191203253
:10226000E9F3293010F02E30C8F32B3241F02D3233
:1022700039F4689404C00E94B011820F911D21911D
:1022800020532A30C0F31EF4909581959F4F0895F6
:102290001F93FC0199278827BC01E8941191103203
:1022A000E9F3193010F01E30C8F31B3251F01D3223
:1022B00049F4689406C00E949B11610F711D811D35
:1022C000911D119110531A30B0F33EF49095809502
:1022D000709561957F4F8F4F9F4F1F91089546E9ED
:1022E00056E00E9474110895FA01A191B0810097FF
:1022F00019F41097E1F0CD01DC01CD010D90002023
:1023000011F4C00113C0FB012191222319F0201503
:10231000D9F7F3CFFB012191201519F41E921196E4
:1023200006C02223C1F70D900020A1F7D001FA01C9
:10233000A193B0830895592F482F372F262F660F6A
:10234000771F881F991F660F771F881F991F620FBD
:10235000731F841F951F660F771F881F991F08958D
:102360007AE0979F902D879F802D910D11240895DD
:10237000A1E21A2EAA1BBB1BFD010DC0AA1FBB1F89
:10238000EE1FFF1FA217B307E407F50720F0A21BFB
:10239000B30BE40BF50B661F771F881F991F1A9468
:1023A00069F760957095809590959B01AC01BD0192
:1023B000CF010895EE0FFF1F0590F491E02D0994D1
:1023C00081E090E0F8940C941215FB01DC018D91F2
:1023D000019080190110D9F3990B0895AEE0B0E097
:1023E000E4EFF1E10C94E9140D891E898F89988D31
:1023F00026E02C831A83098397FF02C080E090E8CF
:1024000001979E838D83AE01455E5F4F698D7A8D06
:10241000CE0101960E944A124D815E8157FD0AC08D
:102420002F813885421753070CF49A01F801E20F07
:10243000F31F10822E96E4E00C940515AEE0B0E098
:10244000E4E2F2E10C94E9148C01FA0186E08C8359
:102450001A83098377FF02C060E070E8CB0101971F
:102460009E838D83A901BF01CE0101960E944A126D
:102470004D815E8157FD0AC02F8138854217530771
:102480000CF49A01F801E20FF31F10822E96E4E09B
:102490000C940515ABE0B0E0E0E5F2E10C94DB1440
:1024A0006C017B018A01FC0117821682838181FF06
:1024B000CCC1CE0101963C01F6019381F70193FD59
:1024C000859193FF81917F01882309F4BAC18532F8
:1024D00039F493FD859193FF81917F01853229F431
:1024E000B60190E00E944114E7CF912C212C312CB1
:1024F000FFE1F315D8F08B3279F038F4803279F0BF
:102500008332A1F4232D20611DC08D3261F0803310
:1025100069F4232D216016C0832D8260382EE32DAF
:10252000E4603E2E2AC0F32DF8601DC037FC2DC09C
:1025300020ED280F2A3040F08E32B9F436FC81C1EC
:10254000232D2064322E19C036FE06C08AE0989EE4
:10255000200D1124922E11C0EAE02E9E200D112490
:10256000222EF32DF0623F2E08C08C3621F4832DED
:102570008068382E02C0883641F4F70193FD8591BA
:1025800093FF81917F018111B3CF982F9F7D955447
:10259000933028F40C5F1F4F9FE399830DC083365F
:1025A00031F0833771F0833509F059C021C0F8014B
:1025B000808189830E5F1F4F88248394912C53015F
:1025C00013C02801F2E04F0E511CF801A080B18029
:1025D00036FE03C0692D70E002C06FEF7FEFC501CA
:1025E0000E9436144C018201F32DFF773F2E16C056
:1025F000280122E0420E511CF801A080B18036FE75
:1026000003C0692D70E002C06FEF7FEFC5010E942B
:102610002B144C01F32DF0683F2E820133FC1BC0BC
:10262000822D90E088169906B0F4B60180E290E021
:102630000E9441142A94F4CFF50137FC859137FEAE
:1026400081915F01B60190E00E94411421102A940B
:1026500021E0821A91088114910471F7E8C0843650
:1026600011F0893641F5F80137FE07C060817181AC
:10267000828193810C5F1F4F08C060817181072E9A
:10268000000C880B990B0E5F1F4FF32DFF763F2E2A
:1026900097FF09C090958095709561957F4F8F4FFA
:1026A0009F4FF0683F2E2AE030E0A3010E947D1486
:1026B000882E861845C0853731F4232D2F7EB22E03
:1026C0002AE030E025C0932D997FB92E8F36C1F0D6
:1026D00018F4883579F0B5C0803719F0883721F0C3
:1026E000B0C0E92FE061BE2EB4FE0DC0FB2DF4603A
:1026F000BF2E09C034FE0AC0292F2660B22E06C0A4
:1027000028E030E005C020E130E002C020E132E006
:10271000F801B7FE07C060817181828193810C5FEF
:102720001F4F06C06081718180E090E00E5F1F4FF7
:10273000A3010E947D14882E8618FB2DFF773F2E63
:1027400036FE0DC0232D2E7FA22E891458F434FEA0
:102750000BC032FC09C0832D8E7EA82E05C0B82C7C
:10276000A32C03C0B82C01C0B92CA4FE0FC0FE01DD
:10277000E80DF11D8081803321F49A2D997EA92ED8
:1027800009C0A2FE06C0B394B39404C08A2D867813
:1027900009F0B394A3FC11C0A0FE06C0B21488F4E3
:1027A000280C922C9B180EC0B21460F4B60180E283
:1027B00090E00E944114B394F7CFB21418F42B1890
:1027C00002C0982C212CA4FE10C0B60180E390E03A
:1027D0000E944114A2FE17C0A1FC03C088E790E04C
:1027E00002C088E590E0B6010CC08A2D867859F0C9
:1027F000A1FE02C08BE201C080E2A7FC8DE2B6011F
:1028000090E00E944114891438F4B60180E390E00E
:102810000E9441149A94F7CF8A94F301E80DF11DB8
:102820008081B60190E00E9441148110F5CF2220F2
:1028300009F442CEB60180E290E00E9441142A944D
:10284000F6CFF6018681978102C08FEF9FEF2B961E
:10285000E2E10C94F714FC01059061507040011006
:10286000D8F7809590958E0F9F1F0895FC016150B9
:10287000704001900110D8F7809590958E0F9F1FA2
:1028800008950F931F93CF93DF93FB01238121FDC5
:1028900003C08FEF9FEF2CC022FF16C046815781E7
:1028A000248135814217530744F4A081B1819D01F1
:1028B0002F5F3F4F318320838C93268137812F5F99
:1028C0003F4F3783268314C08B01EC01FB0100844A
:1028D000F185E02D0995892BE1F6D80116968D91A9
:1028E0009C911797019617969C938E931697CE01FD
:1028F000DF91CF911F910F910895FA01AA272830F7
:1029000051F1203181F1E8946F936E7F6E5F7F4FBC
:102910008F4F9F4FAF4FB1E03ED0B4E03CD0670F38
:10292000781F891F9A1FA11D680F791F8A1F911D8B
:10293000A11D6A0F711D811D911DA11D20D009F4DB
:1029400068943F912AE0269F11243019305D31931D
:10295000DEF6CF010895462F4770405D4193B3E006
:102960000FD0C9F7F6CF462F4F70405D4A3318F0AD
:10297000495D31FD4052419302D0A9F7EACFB4E05E
:10298000A6959795879577956795BA95C9F7009716
:102990006105710508959B01AC010A2E06945795B7
:1029A000479537952795BA95C9F7620F731F841F0E
:1029B000951FA01D08952F923F924F925F926F92A4
:1029C0007F928F929F92AF92BF92CF92DF92EF92BF
:1029D000FF920F931F93CF93DF93CDB7DEB7CA1B40
:1029E000DB0B0FB6F894DEBF0FBECDBF09942A886B
:1029F000398848885F846E847D848C849B84AA8413
:102A0000B984C884DF80EE80FD800C811B81AA819F
:102A1000B981CE0FD11D0FB6F894DEBF0FBECDBF6A
:082A2000ED010895F894FFCFC9
:102A2800FFFFFFFF1E00BC02C8000A002C01FFFFC9
:102A3800FFFF050000000000FA00C0009F013102FE
:102A4800D001AE01C201433A007C00646561643B79
:102A580000537461747573005900524649443A0032
:102A68005461702053656C65637465642050696EA9
:102A780000257320256420256400503B000D0A00C2
:102A8800553B005254204C002573202564202564B2
:102A980020256C7520256C7520256C7520256420F3
:102AA8002564202564005344204E50204C200053B8
:102AB800687574646F776E2054617020746F6F202E
:102AC8006D616E792070756C7365732050696E0046
:102AD8004B3B0025732573256400525000636F6ECD
:062AE80074696E756500C3
:00000001FF
