:100000000C9494000C94BC000C94BC000C9445041B
:100010000C9445040C9445040C94BC000C94BC0056
:100020000C94BC000C94BC000C94BC000C94BC0060
:100030000C94BC000C94BC000C94BC000C94BC0050
:100040000C947D0E0C94BC000C94BD100C9400110B
:100050000C94BC000C94BC000C94BC000C94BC0030
:100060000C94BC000C94BC0044656275673B004472
:10007000656275673B00575000575000534D005361
:100080004D00616C697665005374617475734368E3
:1000900065636B3B0053687574646F776E20416CC9
:1000A0006C20746170732C206E6F2073656C6563B7
:1000B00074004D697373696E6720436F6E6669677C
:1000C00075726174696F6E20456E640000000007F0
:1000D0000002010000030406000000000000000010
:1000E00001020408102040800102040810200102CF
:1000F000040810200404040404040404020202029C
:100100000202030303030303000000002300260090
:10011000290000000000250028002B00000000003E
:10012000240027002A00C11111241FBECFEFD8E000
:10013000DEBFCDBF11E0A0E0B1E0EAECFEE202C01C
:1001400005900D92AA3CB107D9F726E0AAECB1E0E0
:1001500001C01D92A737B207E1F710E0C4E9D0E073
:1001600004C02197FE010E94A213C339D107C9F729
:100170000E9416100C9463170C940000883038F01D
:100180008E3040F0863148F0E0E0F0E008C0EDE667
:10019000F0E005C0EBE6F0E002C0ECE6F0E09081B4
:1001A000883068F441E050E060E070E0082E04C060
:1001B000440F551F661F771F0A94D2F714C0282FCB
:1001C00030E08E3018F42850310902C02E50310929
:1001D00041E050E060E070E004C0440F551F661F2E
:1001E000771F2A95D2F7492B40832BB3883050F0E4
:1001F00031E08E3008F430E091E001C0990F3A957B
:10020000EAF701C094E0922B9BBB90916800883084
:1002100050F021E08E3008F420E081E001C0880F2A
:100220002A95EAF701C084E0892B8093680008953D
:10023000CF92DF92EF92FF9240911A0150911B01F1
:10024000ECE4F5E020E030E02417350729F126172B
:100250003707F1F0A081B181A817B907C9F4D90116
:10026000AA0FBB1FAA0FBB1FAE59BC4FCD90DD908C
:10027000ED90FC90CD28CE28CF2889F4D901AA0F83
:10028000BB1FAE5ABB4F0D90BC91A02DAB2B39F4C8
:100290002F5F3F4F3296D8CF80E090E002C081E0E0
:1002A00090E0FF90EF90DF90CF900895CF92DF9293
:1002B000EF92FF920F931F93CF93DF936B017C011B
:1002C0008A01E9016CE171E08DEC95E00E945C121D
:1002D0002AE030E0B701A6018DEC95E00E941F13E3
:1002E00060E271E08DEC95E00E945C124AE050E023
:1002F000B8018DEC95E00E94671360E271E08DEC2F
:1003000095E00E945C124AE050E0BE018DEC95E061
:100310000E940D138DEC95E0DF91CF911F910F910D
:10032000FF90EF90DF90CF900C946F10CF92DF9200
:10033000EF92FF92CF93DF936B017C01EA016FE1B3
:1003400071E08DEC95E00E945C122AE030E0B7018C
:10035000A6018DEC95E00E941F1360E271E08DEC28
:1003600095E00E945C124AE050E0BE018DEC95E001
:100370000E946E138DEC95E0DF91CF91FF90EF908E
:10038000DF90CF900C946F10CF92DF92EF92FF929C
:100390000F931F93CF93DF936B017C018A01E901D7
:1003A00062E271E08DEC95E00E945C122AE030E0A0
:1003B000B701A6018DEC95E00E941F1360E271E089
:1003C0008DEC95E00E945C124AE050E0B8018DECA3
:1003D00095E00E94671360E271E08DEC95E00E9469
:1003E0005C124AE050E0BE018DEC95E00E940D13D6
:1003F0008DEC95E0DF91CF911F910F91FF90EF90E1
:10040000DF90CF900C946F10CF93DF9320918E04E8
:1004100030918F04232B91F0EC016FE670E08DECAE
:1004200095E00E943912BE018DEC95E00E94791290
:100430008DEC95E0DF91CF910C946F10DF91CF910F
:100440000895CF93DF93CDB7DEB7E2970FB6F89458
:10045000DEBF0FBECDBF80918E0490918F04892B9B
:10046000E1F068E670E08DEC95E00E9439129E01A3
:10047000275C3F4F4FA958AD62E370E0CE01019673
:100480000E946F14BE016F5F7F4F8DEC95E00E945C
:100490008B128DEC95E00E946F10E2960FB6F894E7
:1004A000DEBF0FBECDBFDF91CF910895CF92DF9217
:1004B000EF92FF9263E971E08DEC95E00E948B1260
:1004C0008DEC95E00E946F108DEC95E00E9423105A
:1004D000181619064CF162E870E08DEC95E00E9468
:1004E00079128DEC95E00E946F100E94C70E6B018F
:1004F0007C018DEC95E00E9423101816190624F358
:100500000E94C70EDC01CB018C199D09AE09BF0901
:1005100088389341A105B105B8F665E070E080E048
:1005200090E00E94F80EE5CFFF90EF90DF90CF9023
:1005300008958F929F92AF92BF92CF92DF92EF92E7
:10054000FF926B017C010E94C70E4B015C018DEC98
:1005500095E00E94231018161906D4F0F7FCF7CF87
:100560000E94C70EDC01CB0188199909AA09BB09B1
:10057000C816D906EA06FB0650F780E090E0FF9027
:10058000EF90DF90CF90BF90AF909F908F900895A5
:100590008DEC95E0FF90EF90DF90CF90BF90AF9003
:1005A0009F908F900C944F106FEF7FEFCB010C94C6
:1005B0009902EF92FF920F931F93CF93DF93CDB7E2
:1005C000DEB7E2970FB6F894DEBF0FBECDBF7C0159
:1005D00000E010E00E94D402E1E0F0E0EC0FFD1F2B
:1005E000E00FF11F80838E3759F465E271E08DECE6
:1005F00095E00E948B128DEC95E00E946F10E8CF81
:100600008A3369F08C3731F481E090E0F70191830F
:10061000808305C00F5F1F4F02331105D9F6E1E05B
:10062000F0E0EC0FFD1FE00FF11F1082CE010196EC
:100630000E94A813E2960FB6F894DEBF0FBECDBF9E
:10064000DF91CF911F910F91FF90EF9008956F92DE
:100650007F928F929F92AF92BF92CF92DF92EF9252
:10066000FF920F931F93CF93DF93EC011816190697
:1006700024F40E94ED0F282F72C0892B09F46CC05E
:100680006EE271E08DEC95E00E945C1260E271E038
:100690008DEC95E00E945C12662777276C1B7D0B22
:1006A0004AE050E08DEC95E00E94671363E971E049
:1006B0008DEC95E00E948B128DEC95E00E946F10FE
:1006C0008DEC95E00E942310892BD1F380E0C82E99
:1006D00082E0D82EE6017601A12CB12C812C912C40
:1006E000612C712C00E010E00E94D402F60181938D
:1006F0006F018B3331F46114710419F418823701DE
:100700007F0188818B3331F48114910419F41882AC
:100710004701760188818B3331F4A114B10419F4B7
:1007200018825701760189918A3029F4F801E05046
:10073000FE4F108207C08C37C9F30F5F1F4F023383
:10074000110591F6A114B10449F0C5010E94A81346
:1007500021E0892B21F402C02FEF01C020E0822F7D
:10076000DF91CF911F910F91FF90EF90DF90CF908D
:10077000BF90AF909F908F907F906F9008956F92F1
:100780007F928F929F92AF92BF92CF92DF92EF9221
:10079000FF920F931F93CF93DF930E94C70E4B01DD
:1007A0005C0138E8632E35E0732E4EEAC42E42E039
:1007B000D42EC0E0D0E080911A0190911B01C8179F
:1007C000D90708F053C0F301819191913F010E9434
:1007D0002703082F10E0F60180819181081719077F
:1007E00009F43FC001301105C9F57E01EE0CFF1C74
:1007F000EE0CFF1CF701E651FD4F408151816281F3
:100800007381CE01880F991FFC0184169506A606F8
:10081000B70661F0EE5AFB4F208131812F5F3F4FC9
:1008200031832083FC01E652FC4F02C0EA5EFB4F9D
:10083000208131812F5F3F4F318320830E94C70E7B
:10084000F701E651FD4F6083718382839383F70143
:10085000EE59FC4F6083718382839383F601118389
:1008600000832196F2E0CF0ED11CA5CFDF91CF916E
:100870001F910F91FF90EF90DF90CF90BF90AF90BE
:100880009F908F907F906F9008951F920F920FB658
:100890000F9211242F933F934F935F936F937F9306
:1008A0008F939F93AF93BF93EF93FF930E94BF03E8
:1008B000FF91EF91BF91AF919F918F917F916F9138
:1008C0005F914F913F912F910F900FBE0F901F900E
:1008D00018959F92AF92BF92CF92DF92EF92FF92C4
:1008E0000F931F93CF93DF935C01EB018A01922E4C
:1008F0000E94C70E6B017C01B5018DEC95E00E9452
:10090000391260E271E08DEC95E00E945C124AE0E1
:1009100050E0692D8DEC95E00E94001360E271E0DB
:100920008DEC95E00E945C121C161D066CF44AE0EA
:1009300050E0BE018DEC95E00E94671360E271E02B
:100940008DEC95E00E945C12B8018DEC95E00E9460
:100950005C1263E971E08DEC95E00E948B128DECE6
:1009600095E00E946F108DEC95E00E946F106AE098
:1009700070E080E090E00E9499028C37910561F070
:100980000E94C70EDC01CB018C199D09AE09BF097D
:100990000A97A105B10558F3DF91CF911F910F91EF
:1009A000FF90EF90DF90CF90BF90AF909F90089511
:1009B0004F925F926F927F928F929F92AF92BF926F
:1009C000CF92DF92EF92FF920F931F93CF93DF931B
:1009D0005C014B01542E82E3E2E3F2E0DF011D9261
:1009E0008A95E9F700E010E0E12CF12CEF0192E3A9
:1009F000492E21E3622E21E0722EEA14FB040CF052
:100A00005FC06701BFEFCB1ADB0AF701EE0FFF1FD4
:100A1000E80DF91D80819181209196043091970411
:100A2000232B29F08D30910511F47601E6CF1816AD
:100A3000190624F4652D0E94820FF7CF0097A9F3C1
:100A4000FE0101900020E9F79F012E52324022332F
:100A5000310528F591958195910920913202222343
:100A600019F020E231E002C023E931E09F938F9337
:100A70003F932F93DF93CF937F926F921F924F926A
:100A8000DF93CF930E943F140F5F1F4F8DB79EB728
:100A90000C960FB6F8949EBF0FBE8DBFC6CF252D06
:100AA00042E352E0B8018FE790E00E946904DE0162
:100AB000E42D1D92EA95E9F7670100E010E0B5CF5B
:100AC000809132028823C1F0252D42E352E0B80123
:100AD0008CE790E0DF91CF911F910F91FF90EF9005
:100AE000DF90CF90BF90AF909F908F907F906F904E
:100AF0005F904F900C946904DF91CF911F910F91FB
:100B0000FF90EF90DF90CF90BF90AF909F908F902D
:100B10007F906F905F904F900895462F909365025D
:100B20008093640264E672E081E090E00C94D80463
:100B30004F925F926F927F928F929F92AF92BF92ED
:100B4000CF92DF92EF92FF920F931F93CF93DF9399
:100B50005C014B01542E82E3ECECF1E0DF011D92CD
:100B60008A95E9F700E010E0E12CF12CEF0192E327
:100B7000492E21E3622E21E0722EEA14FB040CF0D0
:100B80005FC06701BFEFCB1ADB0AF701EE0FFF1F53
:100B9000E80DF91D80819181209196043091970490
:100BA000232B29F08D30910511F47601E6CF18162C
:100BB000190624F4652D0E94BE0FF7CF0097A9F304
:100BC000FE0101900020E9F79F01285C31402233AB
:100BD000310528F59195819591092091CC01222329
:100BE00019F020E231E002C023E931E09F938F93B6
:100BF0003F932F93DF93CF937F926F921F924F92E9
:100C0000DF93CF930E943F140F5F1F4F8DB79EB7A6
:100C10000C960FB6F8949EBF0FBE8DBFC6CF252D84
:100C20004CEC51E0B80189E790E00E946904DE01D4
:100C3000E42D1D92EA95E9F7670100E010E0B5CFD9
:100C40008091CC018823C1F0252D4CEC51E0B801F6
:100C500086E790E0DF91CF911F910F91FF90EF9089
:100C6000DF90CF90BF90AF909F908F907F906F90CC
:100C70005F904F900C946904DF91CF911F910F9179
:100C8000FF90EF90DF90CF90BF90AF909F908F90AC
:100C90007F906F905F904F9008956F927F928F92A8
:100CA0009F92AF92BF92CF92DF92EF92FF920F93FB
:100CB0001F93CF93DF93CDB7DEB7EC970FB6F894C1
:100CC000DEBF0FBECDBF3C01CE0101965C018CE3BF
:100CD000D5011D928A95E9F790E1892E95E0992E2C
:100CE0002CE4C22E25E0D22E00E010E0E12CF12C05
:100CF00080911A0190911B010817190730F506150C
:100D00001705D1F0F40180819181892BA9F4B801F4
:100D1000D6018D919C910E941801892B69F4F701ED
:100D2000EE0FFF1FEA0DFB1DD6018D919C91918363
:100D30008083F70131967F010F5F1F4FF2E08F0E26
:100D4000911C82E0C80ED11CD3CF41E08091920467
:100D500090919304892B09F040E0B501C7010E94EE
:100D60009805EC960FB6F894DEBF0FBECDBFDF91AD
:100D7000CF911F910F91FF90EF90DF90CF90BF9098
:100D8000AF909F908F907F906F900895462F909393
:100D9000FF018093FE016EEF71E081E090E00C9422
:100DA00098050F931F93CF93DF9320919604309172
:100DB0009704232B09F042C0EC010E94C70E00915A
:100DC000A2021091A3022091A4023091A502AB01CE
:100DD000BC01401B510B620B730BCE01A0E0B0E0D5
:100DE000481759076A077B0748F1C1E080919E02C6
:100DF00090919F02A091A002B091A102892B8A2B11
:100E00008B2B09F0C0E06C2F8DE090E00E94C606AD
:100E10008C2F90E0A0E0B0E080939E0290939F0220
:100E2000A093A002B093A1020E94C70E6093A202F9
:100E30007093A3028093A4029093A502DF91CF91B7
:100E40001F910F91089584EF91E00C94D10688EBE7
:100E50009BE00C94D106CF93DF93EC01CC0FDD1F08
:100E6000FE01E45BFA4FBC01808191810E94180170
:100E7000892BB9F4FE01E05FFA4F80819181892BC3
:100E800081F461E08091920490919304892B09F0A0
:100E900060E0C45BDA4F88819981DF91CF910C9437
:100EA000C606DF91CF910895CF92DF92EF92FF9225
:100EB0009C01220F331FF901EE5AFB4F1182108261
:100EC000AC01440F551F440F551FFA01E856FB4F64
:100ED000CC24CA94DC2C7601C082D182E282F382D7
:100EE000F901E652FC4F11821082FA01EE59FC4FD3
:100EF0001082118212821382F901EA5EFB4F118285
:100F000010822091940430919504232B31F0FF90AE
:100F1000EF90DF90CF900C942B07FF90EF90DF9035
:100F2000CF9008956F927F928F929F92AF92BF92CF
:100F3000CF92DF92EF92FF920F931F93CF93DF93A5
:100F40008091980290919902A0919A02B0919B028F
:100F5000892B8A2B8B2BE1F080919C0290919D0232
:100F6000892BB1F00E94C70E00919802109199024E
:100F700020919A0230919B02DC01CB01801B910BE6
:100F8000A20BB30B893E9340A105B10508F020C127
:100F900082E3E6E6F2E0DF011D928A95E9F78091AF
:100FA0009C0290919D02892BF1F468E870E08DEC31
:100FB00095E00E9479128DEC95E00E946F108DEC07
:100FC00095E00E946F1081E090E090939D028093E5
:100FD0009C020E94C70E60939802709399028093BE
:100FE0009A0290939B028DEC95E00E9423101816B4
:100FF00019060CF0FFC0C0E0D0E06AE070E080E0CD
:1010000090E00E949902FE01EA59FD4F80838335EA
:1010100011F4C0E0D0E0FE01EA59FD4F80818A3032
:1010200041F08C3731F0882321F02196C133D1056E
:1010300024F3CA59DD4F188260E271E086E692E03F
:101040000E94ED1368E371E00E94F213892B09F00E
:10105000D1C060E271E080E090E00E94ED137C017D
:1010600060E271E080E090E00E94ED136C0160E2CC
:1010700071E080E090E00E94ED135C0180E1682E59
:1010800085E0782ECCE4D5E0812C912C80911A015A
:1010900090911B0188169906A8F560E271E080E046
:1010A00090E00E94ED13009769F10E94A8138C0153
:1010B000F3018081918108171907D9F001151105F5
:1010C00019F06091920491C08091160190911701DE
:1010D000A0911801B09119018F3F9F4FAF4FBF4FA3
:1010E00041F4B401888199810E941801892B09F487
:1010F00074C0D3010D931D933D01BFEF8B1A9B0A62
:101100002296C4CFE114F10409F453C06FE371E0F7
:10111000C7010E94F213892B09F04BC00E94C70E31
:101120006093120170931301809314019093150141
:10113000C114D104F1F1C6010E94C6130091160139
:101140001091170120911801309119016017710752
:101150008207930771F160931601709317018093D2
:101160001801909319019F938F937F936F9382E45B
:1011700091E09F938F9383E391E09F938F930E94DD
:101180002102EDB7FEB738960FB6F894FEBF0FBE3A
:10119000EDBF8091940490919504892B51F040917A
:1011A00092046CE475E080911A0190911B010E94F9
:1011B0009805A114B10439F0C5010E94C6137093BB
:1011C00091046093900410929D0210929C0212C0B0
:1011D00010929D0210929C02DBCE61E080919204FD
:1011E00090919304892B09F060E0888199810E9495
:1011F000C6067FCFDF91CF911F910F91FF90EF90A7
:10120000DF90CF90BF90AF909F908F907F906F9026
:1012100008952F923F924F925F926F927F928F929A
:101220009F92AF92BF92CF92DF92EF92FF920F9375
:101230001F93CF93DF93CDB7DEB72C970FB6F894FB
:10124000DEBF0FBECDBF20919004309191042115D7
:10125000310541F140911A0150911B0180E090E06D
:101260008417950759F0FC01EE0FFF1FEE5AFB4F54
:1012700060817181672BB1F40196F2CF2130310585
:1012800031F468E471E08DEC95E00E948B128DECF6
:1012900095E00E946F1082E090E09093910480931B
:1012A000900406C30E94C70E6093AA027093AB021B
:1012B0008093AC029093AD02C090A602D090A7029A
:1012C000E090A802F090A902DC01CB018C199D09E5
:1012D000AE09BF0900910A0110910B0120E030E036
:1012E000081719072A073B0750F0CD28CE28CF282A
:1012F00031F080919C0290919D02892B91F00E9487
:1013000092078091AA029091AB02A091AC02B09199
:10131000AD028093A6029093A702A093A802B09377
:10132000A90208E815E078E9872E74E0972E1E825E
:101330001D8280E090E0C12CD12CEDE6AE2EE1E0E4
:10134000BE2EFFE52F2EF1E03F2E20911A013091A5
:101350001B014D815E814217530708F0D2C12FB7A0
:10136000F894FA01EE0FFF1FEE0FFF1FEE59FC4F2E
:1013700040805180628073802FBF4114510461040A
:10138000710409F4B2C17A01EE0CFF1CF701EE5AA8
:10139000FB4F80819181892B29F481E090E0C12C61
:1013A000D12CA3C120813181809100019091010154
:1013B0008217930718F0C12CD12C47C04091160119
:1013C0005091170160911801709119014F3F8FEFF3
:1013D00058076807780779F3F40180819181A28129
:1013E000B3818F3FFFEF9F07AF07BF0721F7F401DE
:1013F0004083518362837383809316019093170116
:10140000A0931801B09319018091940490919504D0
:10141000892B89F22E812F933D813F93D80111961C
:101420008C9111978F938C918F93EEE4F1E0FF9361
:10143000EF933F922F920E9421020FB6F894DEBFE5
:101440000FBECDBFCC24C394D12C0E94C70E609395
:10145000AA027093AB028093AC029093AD02AB01F1
:10146000BC01441955096609770980910C019091D6
:101470000D01A0E0B0E084179507A607B70790F527
:10148000F701EE5AFB4F2081318180910801909144
:1014900009018217930760F420813181D8014D91B1
:1014A0005C91F40160817181828193810E94560177
:1014B0008091940490919504892B61F1F701EE5A83
:1014C000FB4F208131818091040190910501281703
:1014D000390728F121E030E03C872B87CC24C394E6
:1014E000D12C21C08091940490919504892B09F40A
:1014F00087C18091020190910301009709F480C196
:10150000F701EE5AFB4F208131812817390708F087
:101510009BC176C1E1E0F0E0FC87EB8704C021E0ED
:1015200030E03C872B87F701EA5EFB4F2081318159
:10153000232B61F1408151812091060130910701F7
:101540002417350718F58091AA029091AB02A0915B
:10155000AC02B091AD02AC01BD0144195509660958
:1015600077094F83588769877A8720910C013091DA
:101570000D01B90180E090E02F81388549855A85B9
:10158000621773078407950708F47DC14B855C8556
:101590004130510509F04EC0F701EE5AFB4F8081F2
:1015A00091810B9708F442C0808191814091AA02F9
:1015B0005091AB026091AC027091AD022091090193
:1015C0002F93209108012F939F938F9380910D016A
:1015D0008F9380910C018F93DB01CA0184199509C7
:1015E000A609B709BF93AF939F938F937F926F9292
:1015F0005F924F927F936F935F934F935E815F9360
:101600006D816F93D80111968C9111978F938C9166
:101610008F93E8E6F1E0FF93EF93BF92AF920E94C1
:1016200021020FB6F894DEBF0FBECDBF8D819E8123
:101630000E9454078091940490919504892B09F499
:1016400052C0CD2809F4A9CEF701EE5AFB4F808194
:1016500091814091AA025091AB026091AC027091CD
:10166000AD02209109012F93209108012F939F93A0
:101670008F9380910D018F9380910C018F93DB01EB
:10168000CA0184199509A609B709BF93AF939F931F
:101690008F937F926F925F924F927F936F935F933E
:1016A0004F935E815F936D816F93D80111968C91FA
:1016B00011978F938C918F93EBE8F1E0FF93EF9369
:1016C000BF92AF920E9421028D819E810E944D06A1
:1016D0000FB6F894DEBF0FBECDBF81E090E0CC2402
:1016E000C394D12C02C081E090E06D817E816F5F58
:1016F0007F4F7E836D830E5F1F4F74E0870E911CBA
:1017000024CE892B19F40E94230702C00E942707C8
:101710000E94C70E6093AA027093AB028093AC0242
:101720009093AD02009112011091130120911401C8
:10173000309115010F3FAFEF1A072A073A0709F456
:10174000B7C08090160190901701A0901801B0903A
:1017500019018B208A208920809409F4A9C04B01AB
:101760005C01801A910AA20AB30A00910E0110913D
:101770000F012091100130911101081519052A055A
:101780003B0508F095C00FEF1FEF9801009316017D
:1017900010931701209318013093190160931201DF
:1017A0007093130180931401909315018091940418
:1017B00090919504892B09F47BC0CD2809F078C05D
:1017C00085E990E00E9404028FEF9FEF2C960FB600
:1017D000F894DEBF0FBECDBFDF91CF911F910F9167
:1017E000FF90EF90DF90CF90BF90AF909F908F9041
:1017F0007F906F905F904F903F902F900C944D068C
:10180000970126523C4F3A832983D9012D913C916F
:1018100080910401909105018217930788F5F701E3
:10182000EE5AFB4F20813181D8014D915C91F4013A
:1018300060817181828193810E94C401A981BA81F2
:1018400011961C921E921CC0BE81BF93ED81EF9336
:10185000D80111968C9111978F938C918F93E4E915
:10186000F1E0FF93EF933F922F920E9421028D812E
:101870009E810E942B070FB6F894DEBF0FBECDBF2E
:101880001C861B8650CED8014D915C91F40160817D
:101890007181828193810E9496018091940490913C
:1018A0009504892B09F478CECC24C394D12C74CE22
:1018B0002C960FB6F894DEBF0FBECDBFDF91CF914F
:1018C0001F910F91FF90EF90DF90CF90BF90AF905E
:1018D0009F908F907F906F905F904F903F902F9050
:1018E0000895AF92BF92CF92DF92EF92FF920F9343
:1018F0001F93CF93DF9300D0CDB7DEB71A82198242
:1019000040E855E260E070E08DEC95E00E943B110C
:101910008DEC95E00E94BF118823D1F38DEC95E00A
:101920000E946F108DEC95E00E942310892B29F006
:101930008DEC95E00E944F10F5CF0E9456020E9458
:10194000D40283349105D9F70E94D402CA97E1F7F3
:10195000CE0101960E94D90290931B0180931A0137
:1019600048E8E42E45E0F42E670100E010E08091A5
:101970001A0190911B010817190758F4CE0101961E
:101980000E94D902F601819391936F010F5F1F4F5F
:10199000EECFCE0101960E94D902909395048093D8
:1019A0009404892B01F1CE0101960E94D9029093F3
:1019B0009304809392043CE4C32E35E0D32E00E0E0
:1019C00010E080911A0190911B010817190758F433
:1019D000CE0101960E94D902F601819391936F0185
:1019E0000F5F1F4FEECFCE0101960E94D902909358
:1019F0000D0180930C01CE0101960E94D9029093B3
:101A0000090180930801CE0101960E94D9029093AA
:101A1000070180930601CE0101960E94D90290939E
:101A2000050180930401CE0101960E94D902909392
:101A3000030180930201CE0101960E94D902909386
:101A4000970480939604CE0101960E94D902909348
:101A50008F0480938E0489819A81019731F062EB23
:101A600070E08DEC95E00E9479128DEC95E00E947B
:101A70006F1065EB71E08DEC95E00E945C12609157
:101A80001A0170911B014AE050E08DEC95E00E9434
:101A9000071328E8C22E25E0D22E00E010E0809146
:101AA0001A0190911B0166EB71E00817190788F481
:101AB0008DEC95E00E945C12F601619171916F01CD
:101AC0004AE050E08DEC95E00E9467130F5F1F4FD6
:101AD000E6CF8DEC95E00E945C12609194047091C9
:101AE00095044AE050E08DEC95E00E940713809148
:101AF000940490919504892B81F166EB71E08DEC53
:101B000095E00E945C1260919204709193044AE007
:101B100050E08DEC95E00E9407139CE4C92E95E0FF
:101B2000D92E00E010E080911A0190911B01081756
:101B3000190798F466EB71E08DEC95E00E945C1259
:101B4000F601619171916F014AE050E08DEC95E0F2
:101B50000E9467130F5F1F4FE6CF66EB71E08DECBD
:101B600095E00E945C1260910C0170910D014AE0B9
:101B700050E08DEC95E00E94071366EB71E08DEC70
:101B800095E00E945C1260910801709109014AE0A1
:101B900050E08DEC95E00E94071366EB71E08DEC50
:101BA00095E00E945C1260910601709107014AE085
:101BB00050E08DEC95E00E94071366EB71E08DEC30
:101BC00095E00E945C1260910401709105014AE069
:101BD00050E08DEC95E00E94071366EB71E08DEC10
:101BE00095E00E945C1260910201709103014AE04D
:101BF00050E08DEC95E00E94071366EB71E08DECF0
:101C000095E00E945C1260919604709197044AE0FE
:101C100050E08DEC95E00E94071366EB71E08DECCF
:101C200095E00E945C1260918E0470918F044AE0EE
:101C300050E08DEC95E00E94071368EB71E08DECAD
:101C400095E00E948B128DEC95E00E946F1040E0B1
:101C500068E875E080911A0190911B010E94D804F8
:101C600041E068E875E080911A0190911B010E94A3
:101C700098058091940490919504892B49F041E056
:101C80006CE475E080911A0190911B010E94D804C8
:101C90008EEAC82E82E0D82E00E010E080911A0172
:101CA00090911B0108171907B0F4C8010E9454074E
:101CB0005701F701819191917F010E94270390E0E4
:101CC000F601819391936F01F50180810E94BE001E
:101CD0000F5F1F4FE3CF61E08DE090E00E948D0524
:101CE0000F900F90DF91CF911F910F91FF90EF9088
:101CF000DF90CF90BF90AF9008951F920F920FB6D4
:101D00000F9211242F933F938F939F93AF93BF9381
:101D10008091C5059091C605A091C705B091C805F1
:101D20003091C40523E0230F2D3720F40196A11D27
:101D3000B11D05C026E8230F0296A11DB11D2093F9
:101D4000C4058093C5059093C605A093C705B093BD
:101D5000C8058091C9059091CA05A091CB05B091A5
:101D6000CC050196A11DB11D8093C9059093CA05AC
:101D7000A093CB05B093CC05BF91AF919F918F916C
:101D80003F912F910F900FBE0F901F9018952FB776
:101D9000F8946091C5057091C6058091C705909132
:101DA000C8052FBF08953FB7F8948091C905909159
:101DB000CA05A091CB05B091CC0526B5A89B05C05E
:101DC0002F3F19F00196A11DB11D3FBFBA2FA92FBA
:101DD000982F8827820F911DA11DB11DBC01CD0137
:101DE00042E0660F771F881F991F4A95D1F7089523
:101DF000CF92DF92EF92FF92CF93DF936B017C0142
:101E00000E94D30EEB01C114D104E104F10479F076
:101E10000E94D30E6C1B7D0B683E7340A0F381E0E3
:101E2000C81AD108E108F108C851DC4FECCFDF91A6
:101E3000CF91FF90EF90DF90CF900895789484B584
:101E4000826084BD84B5816084BD85B5826085BDB6
:101E500085B5816085BDEEE6F0E08081816080839C
:101E6000E1E8F0E01082808182608083808181607F
:101E70008083E0E8F0E0808181608083E1EBF0E046
:101E8000808184608083E0EBF0E0808181608083EA
:101E9000EAE7F0E0808184608083808182608083D3
:101EA0008081816080838081806880831092C100FE
:101EB0000895833081F028F4813099F08230A1F0C8
:101EC00008958630A9F08730B9F08430D1F480913C
:101ED00080008F7D03C0809180008F778093800089
:101EE000089584B58F7702C084B58F7D84BD089531
:101EF0008091B0008F7703C08091B0008F7D809378
:101F0000B0000895CF93DF9390E0FC01E052FF4FC3
:101F10002491FC01EC50FF4F8491882361F190E003
:101F2000880F991FFC01E45EFE4FC591D491FC011E
:101F3000EE5EFE4FA591B491611109C09FB7F89470
:101F40008881209582238883EC912E230BC06230F8
:101F500061F49FB7F8948881322F3095832388836A
:101F6000EC912E2B2C939FBF06C08FB7F894E8817D
:101F70002E2B28838FBFDF91CF9108951F93CF938E
:101F8000DF93282F30E0F901E453FF4F8491F901EA
:101F9000E052FF4FD491F901EC50FF4FC491CC2394
:101FA000C1F0162F81110E94590FEC2FF0E0EE0FB7
:101FB000FF1FEE5EFE4FA591B4919FB7F8941111EB
:101FC00004C08C91D095D82302C0EC91DE2BDC9319
:101FD0009FBFDF91CF911F910895CF93DF93282F5B
:101FE00030E0F901E453FF4F8491F901E052FF4FD3
:101FF000D491F901EC50FF4FC491CC2391F08111A1
:102000000E94590FEC2FF0E0EE0FFF1FE85FFE4F2C
:10201000A591B491EC91ED2381E090E021F480E072
:1020200002C080E090E0DF91CF9108950E941E0FE2
:102030000E94710CC7EFD0E10E9409092097E1F3DB
:102040000E94F710F9CFFC0124853585F901E05C89
:10205000FF4F80819181329620813181821B930BC9
:102060008F7399270895DC011C96ED91FC911D97C3
:10207000DF01A05CBF4F2D913C91119712968D917D
:102080009C9111972817390739F08D919C91E80F91
:10209000F91F808190E008958FEF9FEF0895FC0174
:1020A000A485B585FD01E05CFF4F2081318132962A
:1020B000808191812817390779F080819181A80F5B
:1020C000B91F8C91208131812F5F3F4F2F733327B0
:1020D0003183208390E008958FEF9FEF0895FC01F6
:1020E00081A1882329F0A489B5898C9186FFFBCF33
:1020F00011A208950F931F93CF93DF93FC01A68540
:10210000B7858D01005C1F4FE80188819981019698
:102110008F739927AD014E5B5F4FEA0128813981AA
:1021200028173907D1F3E80128813981A20FB31F9D
:102130006C93A685B785A05CBF4F11969C938E9338
:10214000A689B7892C9181E090E0078C02C0880FA6
:10215000991F0A94E2F7822B8C9381E081A3048873
:10216000F589E02D80818064808381E090E0DF91BB
:10217000CF911F910F91089508951F920F920FB65E
:102180000F9211242F934F935F938F939F93EF930D
:10219000FF938091C00082FD1CC02091C6008091F9
:1021A00073069091740640917506509176060196DB
:1021B0008F7399274817590771F0E0917306F091D2
:1021C0007406ED5CF94F2083909374068093730638
:1021D00002C08091C600FF91EF919F918F915F9116
:1021E0004F912F910F900FBE0F901F9018958DEC6F
:1021F00095E00E942310892B11F00C94BC100895D7
:102200001F920F920FB60F9211242F933F938F932B
:102210009F93EF93FF9320912F063091300680918A
:102220003106909132062817390731F48091C100A8
:102230008F7D8093C10014C0E0913106F091320689
:10224000E151FA4F2081809131069091320601963A
:102250008F73992790933206809331062093C6009E
:10226000FF91EF919F918F913F912F910F900FBE12
:102270000F901F901895CF92DF92EF92FF92CF931D
:10228000DF93EC016A017B014115514E6105710537
:1022900009F1EC89FD8981E090E008A002C0880F77
:1022A000991F0A94E2F7808360E079E08DE390E083
:1022B000A70196010E948013DA01C9010197A109C3
:1022C000B109B695A795979587959C01211580E151
:1022D0003807A8F0EC89FD89108260E874E88EE187
:1022E00090E0A70196010E948013DA01C9010197CD
:1022F000A109B109B695A795979587959C01E8899D
:10230000F9893083EA89FB89208319A2EE89FF8944
:10231000408181E090E09C010C8C02C0220F331FB1
:102320000A94E2F7242B2083EE89FF8940819C01E7
:102330000D8C02C0220F331F0A94E2F7242B208356
:10234000EE89FF8940819C010E8C02C0220F331F51
:102350000A94E2F7242B2083EE89FF8920810F8CD9
:1023600002C0880F991F0A94E2F780958223808328
:10237000DF91CF91FF90EF90DF90CF90089581E0B3
:102380000895EDECF5E01382128288EE93E0A0E070
:10239000B0E084839583A683B7838EEB91E091832D
:1023A000808383E396E0958784878FEE95E0978717
:1023B000868785EC90E0918B808B84EC90E0938B0A
:1023C000828B80EC90E0958B848B81EC90E0978BF6
:1023D000868B82EC90E0918F808F86EC90E0938FDB
:1023E000828F84E0848F83E0858F87E0868F85E00D
:1023F000878F81E080A30895CF92DF92EF92FF92C2
:102400000F931F93CF93DF936C01EB017B01E40EDD
:10241000F51E00E010E0CE15DF0561F06991D601F0
:10242000ED91FC910190F081E02DC6010995080F16
:10243000191FF1CFC801DF91CF911F910F91FF902C
:10244000EF90DF90CF9008956115710579F0FB0151
:1024500001900020E9F73197AF01461B570BDC01D3
:10246000ED91FC910280F381E02D099480E090E0F1
:102470000895EF92FF920F931F93CF93DF937C0108
:10248000FB0100E010E06491EF012196662361F00A
:10249000D701ED91FC910190F081E02DC7010995E4
:1024A000080F191FFE01EFCFC801DF91CF911F91D7
:1024B0000F91FF90EF9008950C942412DC01ED91A0
:1024C000FC910190F081E02D09940F931F93CF931D
:1024D000DF93EC016DE00E945E128C016AE0CE0198
:1024E0000E945E12800F911FDF91CF911F910F917B
:1024F00008950F931F93CF93DF93EC010E9439123D
:102500008C01CE010E946512800F911FDF91CF9147
:102510001F910F9108950F931F93CF93DF93EC01B9
:102520000E9424128C01CE010E946512800F911F1F
:10253000DF91CF911F910F9108958F929F92AF924B
:10254000BF92CF92DF92EF92FF920F931F93CF93A0
:10255000DF93CDB7DEB7A1970FB6F894DEBF0FBEFD
:10256000CDBF6C01142FE52FCB01022F19A2223011
:1025700008F40AE07E0121E2E20EF11C802E912C8B
:10258000A12CB12C612F7E2FA50194010E948013F4
:10259000029F1019112481E0E81AF1081A3014F48E
:1025A000105D01C0195CF7011083122FE32FCA01DF
:1025B000232B242B252B31F7B701C6010E942412AF
:1025C000A1960FB6F894DEBF0FBECDBFDF91CF91BD
:1025D0001F910F91FF90EF90DF90CF90BF90AF9041
:1025E0009F908F9008952115310541F4DC01ED9104
:1025F000FC910190F081E02D642F09940C949D12C0
:102600009A01462F50E060E070E00C94F3129A01BA
:10261000AB0160E070E00C94F3120F931F93CF9323
:10262000DF93EC010E9407138C01CE010E9465121A
:10263000800F911FDF91CF911F910F910895CF923D
:10264000DF92EF92FF920F931F93CF93DF932115A9
:10265000310581F4DC01ED91FC910190F081E02DD8
:10266000642FDF91CF911F910F91FF90EF90DF903A
:10267000CF9009942A30310501F577FF1DC06A011A
:102680007B01EC016DE20E945E128C01442755270C
:10269000BA014C195D096E097F092AE0CE010E943A
:1026A0009D12800F911FDF91CF911F910F91FF908D
:1026B000EF90DF90CF9008952AE0DF91CF911F91A6
:1026C0000F91FF90EF90DF90CF900C949D129A01A4
:1026D000AB01770F660B770B0C941F130F931F93AF
:1026E000CF93DF93EC010E9467138C01CE010E940F
:1026F0006512800F911FDF91CF911F910F91089567
:10270000A1E21A2EAA1BBB1BFD010DC0AA1FBB1FF5
:10271000EE1FFF1FA217B307E407F50720F0A21B67
:10272000B30BE40BF50B661F771F881F991F1A94D4
:1027300069F760957095809590959B01AC01BD01FE
:10274000CF010895EE0FFF1F0590F491E02D09943D
:10275000FC0188279927E89421912032E9F3293058
:1027600010F02E30C8F32B3241F02D3239F468943A
:1027700004C00E943714820F911D219120532A30EA
:10278000C0F31EF4909581959F4F08951F93FC010F
:1027900099278827BC01E89411911032E9F3193088
:1027A00010F01E30C8F31B3251F01D3249F468940A
:1027B00006C00E942214610F711D811D911D11918F
:1027C00010531A30B0F33EF4909580957095619552
:1027D0007F4F8F4F9F4F1F9108954AEC51E00E9409
:1027E000FB130895FB01DC018D910190801901100C
:1027F000D9F3990B0895FA01A191B081009719F4CA
:102800001097E1F0CD01DC01CD010D90002011F415
:10281000C00113C0FB012191222319F02015D9F723
:10282000F3CFFB012191201519F41E92119606C0D9
:102830002223C1F70D900020A1F7D001FA01A19346
:10284000B0830895592F482F372F262F660F771FF3
:10285000881F991F660F771F881F991F620F731FAC
:10286000841F951F660F771F881F991F08957AE0B0
:10287000979F902D879F802D910D11240895AEE094
:10288000B0E0E5E4F4E10C943A170D891E898F89D4
:10289000988D26E02C831A83098397FF02C080E07D
:1028A00090E801979E838D83AE01455E5F4F698DF1
:1028B0007A8DCE0101960E949B144D815E8157FD59
:1028C0000AC02F813885421753070CF49A01F8018A
:1028D000E20FF31F10822E96E4E00C945617AEE040
:1028E000B0E0E5E7F4E10C943A178C01FA0186E0D8
:1028F0008C831A83098377FF02C060E070E8CB0104
:1029000001979E838D83A901BF01CE0101960E948C
:102910009B144D815E8157FD0AC02F813885421777
:1029200053070CF49A01F801E20FF31F10822E9660
:10293000E4E00C945617ABE0B0E0E1EAF4E10C946B
:102940002C176C017B018A01FC011782168283819E
:1029500081FFCCC1CE0101963C01F6019381F701C4
:1029600093FD859193FF81917F01882309F4BAC17A
:10297000853239F493FD859193FF81917F018532F2
:1029800029F4B60190E00E949216E7CF912C212CF9
:10299000312CFFE1F315D8F08B3279F038F4803226
:1029A00079F08332A1F4232D20611DC08D3261F0B6
:1029B000803369F4232D216016C0832D8260382E68
:1029C000E32DE4603E2E2AC0F32DF8601DC037FCD5
:1029D0002DC020ED280F2A3040F08E32B9F436FC9D
:1029E00081C1232D2064322E19C036FE06C08AE034
:1029F000989E200D1124922E11C0EAE02E9E200DEB
:102A00001124222EF32DF0623F2E08C08C3621F4C3
:102A1000832D8068382E02C0883641F4F70193FD7B
:102A2000859193FF81917F018111B3CF982F9F7D75
:102A30009554933028F40C5F1F4F9FE399830DC08A
:102A4000833631F0833771F0833509F059C021C0E6
:102A5000F801808189830E5F1F4F88248394912C15
:102A6000530113C02801F2E04F0E511CF801A08061
:102A7000B18036FE03C0692D70E002C06FEF7FEFBA
:102A8000C5010E9487164C018201F32DFF773F2E6E
:102A900016C0280122E0420E511CF801A080B1802E
:102AA00036FE03C0692D70E002C06FEF7FEFC501F5
:102AB0000E947C164C01F32DF0683F2E820133FCFE
:102AC0001BC0822D90E088169906B0F4B60180E212
:102AD00090E00E9492162A94F4CFF50137FC85917C
:102AE00037FE81915F01B60190E00E94921621109D
:102AF0002A9421E0821A91088114910471F7E8C0A8
:102B0000843611F0893641F5F80137FE07C060813F
:102B10007181828193810C5F1F4F08C06081718138
:102B2000072E000C880B990B0E5F1F4FF32DFF76BD
:102B30003F2E97FF09C090958095709561957F4FC6
:102B40008F4F9F4FF0683F2E2AE030E0A3010E9494
:102B5000CE16882E861845C0853731F4232D2F7E5A
:102B6000B22E2AE030E025C0932D997FB92E8F3602
:102B7000C1F018F4883579F0B5C0803719F088377E
:102B800021F0B0C0E92FE061BE2EB4FE0DC0FB2DD8
:102B9000F460BF2E09C034FE0AC0292F2660B22E71
:102BA00006C028E030E005C020E130E002C020E1AE
:102BB00032E0F801B7FE07C06081718182819381A4
:102BC0000C5F1F4F06C06081718180E090E00E5F56
:102BD0001F4FA3010E94CE16882E8618FB2DFF776B
:102BE0003F2E36FE0DC0232D2E7FA22E891458F4C1
:102BF00034FE0BC032FC09C0832D8E7EA82E05C08A
:102C0000B82CA32C03C0B82C01C0B92CA4FE0FC053
:102C1000FE01E80DF11D8081803321F49A2D997E0B
:102C2000A92E09C0A2FE06C0B394B39404C08A2D95
:102C3000867809F0B394A3FC11C0A0FE06C0B214BC
:102C400088F4280C922C9B180EC0B21460F4B601C4
:102C500080E290E00E949216B394F7CFB21418F479
:102C60002B1802C0982C212CA4FE10C0B60180E3C2
:102C700090E00E949216A2FE17C0A1FC03C088E754
:102C800090E002C088E590E0B6010CC08A2D8678FD
:102C900059F0A1FE02C08BE201C080E2A7FC8DE2E8
:102CA000B60190E00E949216891438F4B60180E3D0
:102CB00090E00E9492169A94F7CF8A94F301E80D5F
:102CC000F11D8081B60190E00E9492168110F5CF2F
:102CD000222009F442CEB60180E290E00E949216D2
:102CE0002A94F6CFF6018681978102C08FEF9FEF7D
:102CF0002B96E2E10C944817FC010590615070405E
:102D00000110D8F7809590958E0F9F1F0895FC01B4
:102D10006150704001900110D8F7809590958E0F0A
:102D20009F1F08950F931F93CF93DF93FB01238180
:102D300021FD03C08FEF9FEF2CC022FF16C04681FC
:102D40005781248135814217530744F4A081B18112
:102D50009D012F5F3F4F318320838C9326813781E4
:102D60002F5F3F4F3783268314C08B01EC01FB019B
:102D70000084F185E02D0995892BE1F6D80116969E
:102D80008D919C911797019617969C938E93169709
:102D9000CE01DF91CF911F910F910895FA01AA27DB
:102DA000283051F1203181F1E8946F936E7F6E5F8E
:102DB0007F4F8F4F9F4FAF4FB1E03ED0B4E03CD03C
:102DC000670F781F891F9A1FA11D680F791F8A1F1F
:102DD000911DA11D6A0F711D811D911DA11D20D086
:102DE00009F468943F912AE0269F11243019305D40
:102DF0003193DEF6CF010895462F4770405D419331
:102E0000B3E00FD0C9F7F6CF462F4F70405D4A337D
:102E100018F0495D31FD4052419302D0A9F7EACF45
:102E2000B4E0A6959795879577956795BA95C9F774
:102E300000976105710508959B01AC010A2E069467
:102E40005795479537952795BA95C9F7620F731F20
:102E5000841F951FA01D08952F923F924F925F925D
:102E60006F927F928F929F92AF92BF92CF92DF929A
:102E7000EF92FF920F931F93CF93DF93CDB7DEB7FF
:102E8000CA1BDB0B0FB6F894DEBF0FBECDBF099493
:102E90002A88398848885F846E847D848C849B84EA
:102EA000AA84B984C884DF80EE80FD800C811B81F8
:102EB000AA81B981CE0FD11D0FB6F894DEBF0FBE27
:0A2EC000CDBFED010895F894FFCF97
:102ECA003200BC02C8001E000A00FA002C0130754C
:102EDA000000FFFFFFFFFFFFFFFF0500503B004B15
:102EEA003B00553B00636F6E74696E756500525006
:102EFA000025732573256400537461747573004F3C
:102F0A004B00524649443A00646561643B0054618F
:102F1A00702053656C65637465642050696E002582
:102F2A0073202564202564005254204C0025732008
:102F3A00256420256420256C7520256C7520256C58
:102F4A0075202564202564202564005344204E50B2
:102F5A00204C200053687574646F776E205461703A
:102F6A0020746F6F206D616E792070756C73657354
:102F7A002050696E00433A007C00000000007A107D
:0A2F8A00FC1123104F1033106F10DC
:00000001FF
