:100000000C9462000C948A000C948A000C948A0070
:100010000C948A000C948A000C948A000C948A0038
:100020000C948A000C948A000C948A000C948A0028
:100030000C948A000C948A000C948A000C948A0018
:100040000C9400040C948A000C94A5070C94E1070E
:100050000C948A000C948A000C948A000C948A00F8
:100060000C948A000C948A00000000070002010032
:100070000003040600000000000000000102040864
:100080001020408001020408102001020408102002
:10009000040404040404040402020202020203032E
:1000A00003030303000000002300260029000000D2
:1000B0000000250028002B0000000000240027007D
:1000C0002A009E0811241FBECFEFD8E0DEBFCDBFAF
:1000D00011E0A0E0B1E0E8EEF3E102C005900D927E
:1000E000A832B107D9F714E0A8E2B1E001C01D922F
:1000F000AC39B107E1F710E0C4ECD0E004C02297BE
:10010000FE010E94EE09C23CD107C9F70E94A60970
:100110000C94F2090C9400002F923F924F925F9240
:100120006F927F928F929F92AF92BF92CF92DF9207
:10013000EF92FF920F931F93CF93DF9388E8682E7F
:1001400083E0782EC8E2D1E00CE811E094E2E92ED9
:1001500093E0F92E2CE5C22E22E0D22E30ECA32E15
:1001600032E0B32E812C912C4FC0F3018081F2E05C
:100170006F0E711C0E9480052881398182179307B8
:10018000A1F18130910579F54091580250915902C1
:1001900060915A0270915B02F801208031804280A8
:1001A0005380421553056405750549F0F701208118
:1001B00031812F5F3F4F31832083F60101C0F5016C
:1001C000208131812F5F3F4F31832083F8014083AD
:1001D000518362837383409354025093550260931A
:1001E00056027093570299838883FFEF8F1A9F0AF4
:1001F00022960C5F1F4F82E0E80EF11C92E0C90EC0
:10020000D11CE2E0AE0EB11C809108019091090171
:10021000881699060CF4A9CFDF91CF911F910F9109
:10022000FF90EF90DF90CF90BF90AF909F908F9016
:100230007F906F905F904F903F902F900895FF9226
:100240000F931F93CF93DF93F82E8B01EA016AE09F
:1002500071E085EF93E00E94E1054AE050E06F2DE8
:1002600085EF93E00E94950661E171E085EF93E0F0
:100270000E94E1054AE050E0B80185EF93E00E945A
:10028000E70661E171E085EF93E00E94E1054AE055
:1002900050E0BE0185EF93E0DF91CF911F910F9168
:1002A000FF900C947D06CF92DF92EF92FF920F9316
:1002B0001F93CF93DF93C4E2D3E04CE5E42E42E0FA
:1002C000F42E58E8C52E53E0D52E00E010E020C0F3
:1002D000488159814115510591F080910401909117
:1002E00005018417950730F4F6016081718180E083
:1002F0000E941F0119821882F701118210820F5F7C
:100300001F4F2296F2E0EF0EF11C82E0C80ED11CC6
:10031000809108019091090108171907CCF2DF912B
:10032000CF911F910F91FF90EF90DF90CF900895A4
:10033000FF920F931F93CF93DF93F82E8B01EA0167
:100340006DE071E085EF93E00E94E1054AE050E046
:100350006F2D85EF93E00E94950661E171E085EFD6
:1003600093E00E94E1054AE050E0B80185EF93E098
:100370000E94E70661E171E085EF93E00E94E105EC
:100380004AE050E0BE0185EF93E0DF91CF911F91ED
:100390000F91FF900C947D06CF92DF92EF92FF9227
:1003A0000F931F93CF93DF93CCE5D2E064E2E62E68
:1003B00063E0F62E78E8C72E73E0D72E00E010E059
:1003C0001DC028813981809100019091010182171F
:1003D000930758F4F70140815181F60160817181E2
:1003E00080E00E949801198218820F5F1F4F2296A9
:1003F000F2E0EF0EF11C82E0C80ED11C80910801E2
:100400009091090108171907E4F2DF91CF911F912C
:100410000F91FF90EF90DF90CF9008951F93CF93AF
:10042000DF93182FEB0160E171E085EF93E00E940C
:10043000E1054AE050E0612F85EF93E00E949506C8
:1004400061E171E085EF93E00E94E1054AE050E050
:10045000BE0185EF93E0DF91CF911F910C94EF06E1
:10046000EF92FF920F931F93CF93DF93C0ECD2E0F4
:10047000E8E8EE2EE3E0FE2E00E010E019C08881EF
:100480009981009779F0209102013091030128179A
:10049000390730F4F7016081718180E00E940E021B
:1004A000198218820F5F1F4F2296F2E0EF0EF11CA7
:1004B00080910801909109010817190704F3DF9151
:1004C000CF911F910F91FF90EF9008950F931F937D
:1004D0000E944A04609358027093590280935A0212
:1004E00090935B020E948C000E94CC0140915402C8
:1004F00050915502609156027091570280915802B6
:1005000090915902A0915A02B0915B02841B950B05
:10051000A60BB70B0091060110910701222717FDCA
:100520002095322F081719072A073B0790F4452B0F
:10053000462B472B71F010925402109255021092E4
:100540005602109257020E9453011F910F910C9472
:1005500030021F910F9108950BC061E685EF93E083
:100560000E94E3056CE271E080E090E00E94860466
:1005700085EF93E00E9409071816190674F708958D
:1005800085EF93E00E94090718161906CCF785EF4E
:1005900093E00C9438076F927F928F929F92AF9264
:1005A000BF92CF92DF92EF92FF920F931F93CF9360
:1005B000DF9361E08DE00E94110540E855E260E0C4
:1005C00070E085EF93E00E941C0885EF93E00E94A5
:1005D0009C088823D1F385EF93E00E945C0704C058
:1005E00085EF93E00E94380785EF93E00E940907AA
:1005F000892BB1F70E94AC020E94C002833491059E
:10060000D9F70E94C002CA97E1F785EF93E00E94F4
:10061000A3097093090160930801F0ECCF2EF2E07A
:10062000DF2EACE5AA2EA2E0BA2EB8E8EB2EB3E09E
:10063000FB2EC8E28C2EC1E09C2EE70100E010E00A
:1006400026C00E94C002CA97E1F785EF93E00E949E
:10065000A309862F3E016883798360E00E9411051B
:1006600061E088810E944905F601119211926F01A3
:10067000F501119211925F012296F30180810E948F
:100680008005F401819391934F010F5F1F4F80917B
:10069000080190910901081719079CF20E94C002F5
:1006A000CA97E1F785EF93E00E94A30970930701D1
:1006B000609306010E94C002CA97E1F785EF93E0BC
:1006C0000E94A30970930501609304010E94C00277
:1006D000CA97E1F785EF93E00E94A30970930301A5
:1006E000609302010E94C002CA97E1F785EF93E090
:1006F0000E94A30970930101609300010E94C0024F
:100700008C379105D9F763E171E085EF93E00E94A2
:10071000E10560910801709109014AE050E085EF20
:1007200093E00E94E706C0E0D0E00FC085EF93E0C1
:100730000E94E105F701619171917F014AE050E06B
:1007400085EF93E00E94E706219680910801909141
:10075000090164E171E0C817D90744F385EF93E01C
:100760000E94E10560910601709107014AE050E0A6
:1007700085EF93E00E94E70664E171E085EF93E086
:100780000E94E10560910401709105014AE050E08A
:1007900085EF93E00E94E70664E171E085EF93E066
:1007A0000E94E10560910201709103014AE050E06E
:1007B00085EF93E00E94E70664E171E085EF93E046
:1007C0000E94E10560910001709101014AE050E052
:1007D00085EF93E00E94E70666E171E085EF93E024
:1007E000DF91CF911F910F91FF90EF90DF90CF900D
:1007F000BF90AF909F908F907F906F900C94000669
:100800001F920F920FB60F9211242F933F938F9345
:100810009F93AF93BF938091EC039091ED03A091D0
:10082000EE03B091EF033091F403232F2D5F2D37AA
:1008300020F40196A11DB11D05C0232F2A57029651
:10084000A11DB11D2093F4038093EC039093ED035D
:10085000A093EE03B093EF038091F0039091F10326
:10086000A091F203B091F3030196A11DB11D8093F5
:10087000F0039093F103A093F203B093F303BF91BD
:10088000AF919F918F913F912F910F900FBE0F903D
:100890001F9018950F931F938FB7F8940091EC0356
:1008A0001091ED032091EE033091EF038FBFB8015B
:1008B000C9011F910F9108950F931F939FB7F8944B
:1008C0000091F0031091F1032091F2033091F303B2
:1008D00086B5A89B06C08F3F21F00F5F1F4F2F4F9B
:1008E0003F4F9FBF322F212F102F0027080F111DC0
:1008F000211D311D42E0000F111F221F331F4A9599
:10090000D1F7B801C9011F910F910895CF92DF92DD
:10091000EF92FF92CF93DF936B017C010E945C0406
:10092000EB010EC00E945C046C1B7D0B683E7340A3
:1009300038F081E0C81AD108E108F108C851DC4F4D
:10094000C114D104E104F10469F7DF91CF91FF9064
:10095000EF90DF90CF900895789484B5826084BD45
:1009600084B5816084BD85B5826085BD85B58160B3
:1009700085BDEEE6F0E0808181608083E1E8F0E013
:100980001082808182608083808181608083E0E842
:10099000F0E0808181608083E1EBF0E08081846021
:1009A0008083E0EBF0E0808181608083EAE7F0E023
:1009B0008081846080838081826080838081816087
:1009C00080838081806880831092C1000895833085
:1009D00069F028F48130A1F0823011F514C086301E
:1009E000B1F08730C1F08430D9F404C08091800028
:1009F0008F7703C0809180008F7D80938000089561
:100A000084B58F7702C084B58F7D84BD08958091B1
:100A1000B0008F7703C08091B0008F7D8093B000CD
:100A20000895CF93DF9390E0FC01E458FF4F449189
:100A3000FC01E057FF4F8491882341F190E0880F3B
:100A4000991FFC01E854FF4F25913491D90182553B
:100A50009F4FFC0185919491C82FD92F9FB7F8948F
:100A60008C91611106C0409584238C9388818423E6
:100A700008C0623041F4242F209582238C93888112
:100A8000842B888302C0842B8C939FBFDF91CF91EE
:100A900008950F931F93CF93DF931F92CDB7DEB7C7
:100AA000282F30E0F901E859FF4F8491F901E4580B
:100AB000FF4F1491F901E057FF4F04910023D1F04B
:100AC000882321F069830E94E7046981E02FF0E028
:100AD000EE0FFF1FE255FF4F85919491DC019FB708
:100AE000F8948C91611103C01095812301C0812B72
:100AF0008C939FBF0F90DF91CF911F910F9108951D
:100B0000CF93DF93282F30E0F901E859FF4F84910C
:100B1000F901E458FF4FD491F901E057FF4FC49118
:100B2000CC2389F081110E94E704EC2FF0E0EE0F56
:100B3000FF1FEC55FF4F85919491DC018C918D2323
:100B400021E030E011F420E030E0C901DF91CF91E5
:100B50000895CF92DF92EF92FF920F931F93CF935E
:100B6000DF936C01EB017A01E60EF71E00E010E066
:100B70000BC06991D601ED91FC910190F081E02DBF
:100B8000C6010995080F191FCE15DF0591F7C80199
:100B9000DF91CF911F910F91FF90EF90DF90CF9059
:100BA0000895DB010D900020E9F7AD014150510996
:100BB000461B570BDC01ED91FC910280F381E02D87
:100BC00009940C94D105DC01ED91FC910190F08128
:100BD000E02D09940F931F93CF93DF93EC016DE009
:100BE0000E94E3058C016AE0CE010E94E3059C01AE
:100BF000200F311FC901DF91CF911F910F910895EF
:100C00000F931F93CF93DF93EC010E94D1058C01CA
:100C1000CE010E94EA059801280F391FC901DF9112
:100C2000CF911F910F9108954F925F926F927F9293
:100C30009F92AF92BF92CF92DF92EF92FF920F936B
:100C40001F93CF93DF93CDB7DEB7A1970FB6F8947C
:100C5000DEBF0FBECDBF5C016A017B01922E19A2DF
:100C600081E0821710F08AE0982E8E010F5D1F4FF1
:100C7000492C512C612C712CC701B601A3019201A2
:100C80000E94BE098C2D929E8019112401501109D9
:100C90008A3014F4805D01C0895CF80180836901A9
:100CA0007A01C114D104E104F10431F7B801C5019E
:100CB0000E94D105A1960FB6F894DEBF0FBECDBF3E
:100CC000DF91CF911F910F91FF90EF90DF90CF9028
:100CD000BF90AF909F907F906F905F904F900895DE
:100CE0002115310541F4DC01ED91FC910190F08179
:100CF000E02D642F09940C9414060F931F93CF9347
:100D0000DF93EC019A01AB0160E070E00E94700695
:100D10008C01CE010E94EA059801280F391FC901F4
:100D2000DF91CF911F910F9108959A01462F50E0C6
:100D300060E070E00C947006CF92DF92EF92FF9229
:100D40000F931F93CF93DF93EC016A017B01211571
:100D5000310579F4E881F9810190F081E02D642F6B
:100D6000DF91CF911F910F91FF90EF90DF90CF9087
:100D700009942A30310519F477FD0EC02AE0B70135
:100D8000A601CE01DF91CF911F910F91FF90EF90BF
:100D9000DF90CF900C9414066DE20E94E3058C0165
:100DA00044275527BA014C195D096E097F092AE0CD
:100DB000CE010E941406080F191FC801DF91CF91C0
:100DC0001F910F91FF90EF90DF90CF9008959A01BF
:100DD000AB01662757FD6095762F0C949C060F9308
:100DE0001F93CF93DF93EC019A01AB01662757FD68
:100DF0006095762F0E949C068C01CE010E94EA0528
:100E00009801280F391FC901DF91CF911F910F91D0
:100E10000895FC0184859585FC01E05CFF4F2081ED
:100E20003181FC01EE5BFF4F80819181281B390BE2
:100E30002F733327C9010895FC0184859585FC0132
:100E4000E05CFF4F40815181FC01EE5BFF4F208150
:100E500031814217530741F00190F081E02DE80FF6
:100E6000F91F208130E002C02FEF3FEFC901089544
:100E7000FC0184859585FC01E05CFF4F4081518138
:100E8000FC01EE5BFF4F208131814217530781F057
:100E9000A081B181A80FB91F8C91208131812F5F72
:100EA0003F4F2F73332731832083282F30E002C038
:100EB0002FEF3FEFC9010895FC0186859785FC015E
:100EC000E05CFF4FDC01AE5BBF4F408151812D9153
:100ED0003C91119742175307C1F70895CF93DF93C1
:100EE000FC0186859785DC01A05CBF4F2D913C916C
:100EF00011972F5F3F4F2F733327EC01CE5BDF4FEE
:100F00004881598124173507D9F30D90BC91A02D44
:100F1000A80FB91F6C93A685B785A05CBF4F11962B
:100F20003C932E93A689B7892C9181E090E0058CA3
:100F300002C0880F991F0A94E2F7282B2C9381E0B6
:100F400090E0DF91CF91089508951F920F920FB610
:100F50000F9211242F933F934F938F939F93EF936F
:100F6000FF934091C6008091980490919904019656
:100F70008F73992720919A0430919B0482179307CD
:100F800059F0E0919804F0919904E85AFB4F40839E
:100F90009093990480939804FF91EF919F918F9182
:100FA0004F913F912F910F900FBE0F901F9018956A
:100FB00085EF93E00E940907892B11F00C94A40798
:100FC00008951F920F920FB60F9211242F933F9303
:100FD0008F939F93EF93FF93209154043091550486
:100FE00080915604909157042817390731F4809165
:100FF000C1008F7D8093C10014C0E0915604F09130
:101000005704EC5EFB4F2081809156049091570469
:1010100001968F73992790935704809356042093D9
:10102000C600FF91EF919F918F913F912F910F906B
:101030000FBE0F901F901895CF92DF92EF92FF9204
:10104000CF93DF93EC016A017B01411581EE5807D4
:1010500061057105F9F0EC89FD8981E090E00E8C65
:1010600002C0880F991F0A94E2F7808360E079E05C
:101070008DE390E0A70196010E94BE09215031093D
:10108000410951095695479537952795211580E1D6
:10109000380798F0EC89FD89108260E874E88EE1E9
:1010A00090E0A70196010E94BE0921503109410933
:1010B00051095695479537952795E889F9893083E1
:1010C000EA89FB892083EE89FF89408181E090E0F5
:1010D0009C010A8C02C0220F331F0A94E2F7422BB4
:1010E0004083EE89FF8940819C010B8C02C0220F56
:1010F000331F0A94E2F7422B4083EE89FF89408137
:101100009C010C8C02C0220F331F0A94E2F7422B81
:101110004083EE89FF8920810D8C02C0880F991FC2
:101120000A94E2F7809582238083DF91CF91FF902C
:10113000EF90DF90CF90089581E008951092F8032A
:101140001092F70388EE93E0A0E0B0E08093F903FB
:101150009093FA03A093FB03B093FC038CE191E01E
:101160009093F6038093F50388E594E0909302044E
:101170008093010484E194E0909304048093030439
:1011800085EC90E0909306048093050484EC90E055
:10119000909308048093070480EC90E090930A04F5
:1011A0008093090481EC90E090930C0480930B04ED
:1011B00086EC90E090930E0480930D0484E080937D
:1011C0000F0483E08093100487E08093110485E08E
:1011D0008093120481E08093130408950F931F936A
:1011E000CF93DF93EC010E944A04688779878A874E
:1011F0009B87E881F9810084F185E02DCE01099576
:101200009C0197FF15C00E944A04088519852A850C
:101210003B85601B710B820B930B0C811D812E8112
:101220003F81601771078207930718F32FEF3FEF95
:10123000C901DF91CF911F910F910895CF93DF9353
:10124000EC01CE010E94EE089C0197FD0EC08D328C
:10125000910559F0C0970A9740F0E881F98106801E
:10126000F781E02DCE010995ECCFC901DF91CF9137
:101270000895CF92DF92FF920F931F93CF93DF9346
:1012800000D000D0CDB7DEB76C01062F0E941E093A
:10129000FC0120E030E0A90197FD47C0F12C1127A7
:1012A00007FD1095E017F107E9F0ED32F105C1F007
:1012B000CF01C0970A97B0F4AAE0B0E00E94B3094A
:1012C0009B01AC01CF01AA2797FDA095BA2F280F4B
:1012D000391F4A1F5B1F205331094109510902C0C0
:1012E000FF24F394D601ED91FC910680F781E02D67
:1012F000C60129833A834B835C830995C6010E940A
:10130000EE08FC01C09729813A814B815C810A97E4
:1013100048F2E017F10731F2FF2039F0509540957F
:10132000309521953F4F4F4F5F4FB901CA010F9044
:101330000F900F900F90DF91CF911F910F91FF9021
:10134000DF90CF90089561E00C9439090E94AC04BD
:101350000E94CB02C8EDD7E00E9466022097E1F31D
:101360000E94D807F9CF0E94E009A59F900DB49F75
:10137000900DA49F800D911D11240895A1E21A2EB5
:10138000AA1BBB1BFD010DC0AA1FBB1FEE1FFF1F29
:10139000A217B307E407F50720F0A21BB30BE40B79
:1013A000F50B661F771F881F991F1A9469F76095C0
:1013B0007095809590959B01AC01BD01CF0108957A
:1013C000A29FB001B39FC001A39F01D0B29F700D37
:1013D000811D1124911D0895EE0FFF1F0590F491BA
:0813E000E02D0994F894FFCF01
:1013E800C8001E000A002C010500503B00553B00B8
:1013F8004B3B00433A007C00000000006E07A90543
:08140800090738071C075C0707
:00000001FF
