:100000000C9496000C94BE000C94BE000C94E60672
:100010000C94E6060C94E6060C94BE000C94BE000C
:100020000C94BE000C94BE000C94BE000C94BE0058
:100030000C94BE000C94BE000C94BE000C94BE0048
:100040000C9484020C94BE000C941C010C94F600D9
:100050000C94BE000C94BE000C94BE000C94BE0028
:100060000C94BE000C94BE00616C697665004D690D
:100070007373696E6720436F6E666967757261742A
:10008000696F6E20456E64005374617475734368C4
:1000900065636B3B0044656275673B00536875742C
:1000A000646F776E20416C6C20746170732C206ECD
:1000B0006F2073656C6563740000000000240027E6
:1000C000002A00534D00534D00000000002300267D
:1000D00000290044656275673B00000000002500B0
:1000E00028002B0004040404040404040202020295
:1000F00002020303030303030102040810204080EB
:100100000102040810200102040810200000000869
:1001100000020100000304070000000000000000CE
:1001200057500057500055500000DC1011241FBEDE
:10013000CFEFD8E0DEBFCDBF26E0AEE0B2E001C039
:100140001D92A03EB207E1F712E0A0E0B1E0E6EEBA
:10015000F9E202C005900D92AE30B107D9F710E078
:10016000C6E9D0E004C02197FE010E94B911C5394B
:10017000D107C9F70E9455090C94F1140C940000A2
:10018000CF92DF92EF92FF920F931F93CF93DF9363
:100190006C017A018B01C0E0D0E0CE15DF0581F063
:1001A000D8016D918D01D601ED91FC910190F08106
:1001B000E02DC6010995892B11F02196EECF7E0125
:1001C000C701DF91CF911F910F91FF90EF90DF90CA
:1001D000CF9008958DED95E00E94830121E0892B59
:1001E00009F420E0822F08950E94BF111F920F9200
:1001F0000FB60F9211242F933F934F935F936F93FA
:100200007F938F939F93AF93BF93EF93FF938DED66
:1002100095E00E949901FF91EF91BF91AF919F915D
:100220008F917F916F915F914F913F912F910F909F
:100230000FBE0F901F9018951F920F920FB60F923E
:1002400011242F938F939F93EF93FF93E091ED05EC
:10025000F091EE058081E091F305F091F40582FDC7
:1002600012C090818091F6058F5F8F732091F70502
:10027000821751F0E091F605F0E0E352FA4F958FC6
:100280008093F60501C08081FF91EF919F918F913E
:100290002F910F900FBE0F901F901895089580E03A
:1002A00090E00895FC01538D448D252F30E0842F7C
:1002B00090E0821B930B541710F0CF96089501978E
:1002C0000895FC01918D828D981761F0828DDF0178
:1002D000A80FB11D5D968C91928D9F5F9F73928F39
:1002E00090E008958FEF9FEF0895FC01918D828D2E
:1002F000981731F0828DE80FF11D858D90E00895FB
:100300008FEF9FEF0895FC01918D228D892F90E052
:10031000805C9F4F821B91098F739927089580E01D
:1003200090E0892B29F00E94EA0081110C940000D2
:100330000895FC01848DDF01A80FB11DA35ABF4FA2
:100340002C91848D90E001968F739927848FA689D4
:10035000B7892C93A089B1898C91837080648C9328
:10036000938D848D981306C00288F389E02D8081D7
:100370008F7D80830895EF92FF920F931F93CF9309
:10038000DF93EC0181E0888F9B8D8C8D981305C0E5
:10039000E889F989808185FD26C0F62E0B8D10E055
:1003A0000F5F1F4F0F731127E02E8C8DE8120CC0CA
:1003B0000FB607FCFACFE889F989808185FFF5CF70
:1003C000CE010E949901F1CF8B8DFE01E80FF11D46
:1003D000E35AFF4FF0829FB7F8940B8FEA89FB89AD
:1003E000808180620AC09FB7F894EE89FF8960839C
:1003F000E889F98980818370806480839FBF81E070
:1004000090E0DF91CF911F910F91FF90EF900895B1
:10041000CF93DF93EC01888D8823C9F0EA89FB89AB
:10042000808185FD05C0A889B9898C9186FD0FC0A2
:100430000FB607FCF5CF808185FFF2CFA889B98977
:100440008C9185FFEDCFCE010E949901E7CFDF911E
:10045000CF910895833081F028F4813099F0823073
:10046000A1F008958730A9F08830B9F08430D1F434
:10047000809180008F7D03C0809180008F77809372
:100480008000089584B58F7702C084B58F7D84BDC8
:1004900008958091B0008F7703C08091B0008F7D68
:1004A0008093B00008953FB7F8948091D70590915C
:1004B000D805A091D905B091DA0526B5A89B05C04D
:1004C0002F3F19F00196A11DB11D3FBFBA2FA92FD3
:1004D000982F8827820F911DA11DB11DBC01CD0150
:1004E00042E0660F771F881F991F4A95D1F708953C
:1004F0002FB7F8946091D3057091D4058091D505FC
:100500009091D6052FBF08951F920F920FB60F92AC
:1005100011242F933F938F939F93AF93BF93809119
:10052000D3059091D405A091D505B091D605309111
:10053000D20523E0230F2D3720F40196A11DB11D14
:1005400005C026E8230F0296A11DB11D2093D205F8
:100550008093D3059093D405A093D505B093D60589
:100560008091D7059091D805A091D905B091DA0571
:100570000196A11DB11D8093D7059093D805A09336
:10058000D905B093DA05BF91AF919F918F913F91BB
:100590002F910F900FBE0F901F901895CF93DF9360
:1005A000CDB7DEB7E2970FB6F894DEBF0FBECDBF72
:1005B0008091C6029091C702892BB9F083ED90E03B
:1005C0000E941A089E01275C3F4F4FA958AD62E375
:1005D00070E0CE0101960E94FD11CE0101960E94AD
:1005E00043088DED95E00E940802E2960FB6F8945C
:1005F000DEBF0FBECDBFDF91CF9108950E9478027C
:100600008DED95E00E94830118161906CCF78DED4B
:1006100095E00C9461017F928F929F92AF92BF926E
:10062000CF92DF92EF92FF920F931F93CF93DF93BE
:100630006C01EB017A01722E0E9478024B015C0181
:10064000C6010E941A0888EF91E00E94E607672D14
:1006500070E080E090E04AE00E949F0788EF91E020
:100660000E94E6071C161D063CF4CE010E941408E9
:1006700088EF91E00E94E607C7010E94E60788EF35
:1006800091E00E94E607C8010E94E60786EA91E031
:100690000E9443088DED95E00E9408028DED95E0E3
:1006A0000E9408026AE070E080E090E00E94FE0292
:1006B0008C37910561F00E947802DC01CB0188192A
:1006C0009909AA09BB090A97A105B10558F3DF9159
:1006D000CF911F910F91FF90EF90DF90CF90BF903F
:1006E000AF909F908F907F9008954F925F926F92FE
:1006F0007F928F929F92AF92BF92CF92DF92EF92B2
:10070000FF920F931F93CF93DF935C014B01542E05
:1007100082E3EEE6F5E0DF011D928A95E9F7E12C30
:10072000F12CC12CD12CEF0152E3452E6AEF662E3D
:1007300061E0762ECA14DB040CF09CC086010F5FCA
:100740001F4FF601EE0FFF1FE80DF91D0190F0811C
:10075000E02D8091DB059091DC05892B29F0ED30AF
:10076000F10511F46801E6CF1E161F060CF03DC01E
:10077000CF019927FC01E850FF4F2491FC01EC5177
:10078000FF4FE491EE2371F3F0E0CF01880F991F42
:10079000FC01E754FF4FA591B491FC01E652FF4FD5
:1007A0008591949151100AC04FB7F8943C912095CF
:1007B00032233C93DC01EC912E230DC0E2E05E126B
:1007C0000DC04FB7F8943C91522F509535233C9370
:1007D000DC01EC912E2B2C934FBFC4CF8FB7F89434
:1007E000EC912E2B2C938FBFBDCF309709F4BACF4D
:1007F000DE010D900020E9F7CD018A569540C297A1
:1008000030F5F195E195F10980916E05882319F095
:1008100088EF91E002C086EA91E0FF93EF939F9307
:100820008F93DF93CF937F926F921F924F92DF93BC
:10083000CF930E94CD11FFEFEF1AFF0A8DB79EB73D
:100840000C960FB6F8949EBF0FBE8DBF8BCF01E6FE
:1008500011E0252D4EE655E0B70186EC90E00E94B0
:100860000B03DE01E42D1D92EA95E9F78601E12CE8
:10087000F12C78CF80916E05882351F001E611E0CC
:10088000252D4EE655E0B70183EC90E00E940B0366
:10089000DF91CF911F910F91FF90EF90DF90CF905C
:1008A000BF90AF909F908F907F906F905F904F9090
:1008B00008956FEF7FEFCB010C94FE026F927F9251
:1008C0008F929F92AF92BF92CF92DF92EF92FF9260
:1008D0000F931F93CF93DF93EC01181619060CF5B5
:1008E000DD27FE01E45FFE4F8491FE01E850FF4FDB
:1008F0001491FE01EC51FF4FC491CC2309F476C052
:1009000081110E942A02EC2FF0E0EE0FFF1FE75347
:10091000FF4FA591B491EC91E12321E009F067C06C
:1009200065C0892B09F460C081E092E00E94E6076F
:1009300088EF91E00E94E607882799278C1B9D0B82
:100940000E94140886EA91E00E9443088DED95E02C
:100950000E9408028DED95E00E948301892BD1F35E
:10096000C0EAD5E06E017E01A12CB12C812C912C26
:10097000612C712C00E010E00E945904F601819373
:100980006F018B3331F46114710419F4188237014B
:100990007F0188818B3331F48114910419F418821A
:1009A0004701760188818B3331F4A114B10419F425
:1009B00018825701760189918A3029F4F801E056AE
:1009C000FA4F108207C08C37C9F30F5F1F4F0233F5
:1009D000110591F6A114B10449F0C5010E94091155
:1009E00021E0892B21F402C02FEF01C020E0822FEB
:1009F000DF91CF911F910F91FF90EF90DF90CF90FB
:100A0000BF90AF909F908F907F906F900895CF92FE
:100A1000DF92EF92FF924091120150911301ECE4AA
:100A2000F2E020E030E02417350729F126173707D8
:100A3000F1F0A081B181A817B907C9F4D901AA0FB3
:100A4000BB1FAA0FBB1FAA50BC4FCD90DD90ED90ED
:100A5000FC90CD28CE28CF2889F4D901AA0FBB1F3E
:100A6000A259BB4F0D90BC91A02DAB2B39F42F5F39
:100A70003F4F3296D8CF80E090E002C081E090E016
:100A8000FF90EF90DF90CF9008956F927F928F92BA
:100A90009F92AF92BF92CF92DF92EF92FF920F930D
:100AA0001F93CF93DF93CDB7DEB7EC970FB6F894D3
:100AB000DEBF0FBECDBF3C01CE0101965C018CE3D1
:100AC000D5011D928A95E9F79AE8892E92E0992E30
:100AD0002CE4C22E22E0D22E00E010E0E12CF12C1A
:100AE00080911201909113010817190730F506152E
:100AF0001705D1F0F40180819181892BA9F4B80107
:100B0000D6018D919C910E940705892B69F4F7010C
:100B1000EE0FFF1FEA0DFB1DD6018D919C91918375
:100B20008083F70131967F010F5F1F4FF2E08F0E38
:100B3000911C82E0C80ED11CD3CF41E08091880285
:100B400090918902892B09F040E02AE431E0B50157
:100B5000C7010E945108EC960FB6F894DEBF0FBE95
:100B6000CDBFDF91CF911F910F91FF90EF90DF905C
:100B7000CF90BF90AF909F908F907F906F9008958F
:100B8000CF93DF93EC01CC0FDD1FFE01E45BFD4F43
:100B9000BC01808191810E940705892B09F5FE0126
:100BA000E657FD4F80819181892BD1F441E08091FE
:100BB000880290918902892B09F040E0C45BDD4FE7
:100BC0008881998190934B0280934A022EE331E011
:100BD0006AE472E081E090E0DF91CF910C945108DB
:100BE000DF91CF910895CF92DF92EF92FF929C0117
:100BF000220F331FF901E259FB4F11821082AC0121
:100C0000440F551F440F551FFA01E258FC4FCC24E6
:100C1000CA94DC2C7601C082D182E282F382F9018F
:100C2000EC5FFC4F11821082FA01EA50FC4F1082F7
:100C3000118212821382F901E853FD4F1182108252
:100C400020917C0330917D03232B99F040910E017C
:100C500050910F0160911001709111014F3F5F4F52
:100C60006F4F7F4F31F4FF90EF90DF90CF900C9457
:100C7000C005FF90EF90DF90CF9008950F931F93E2
:100C8000CF93DF932091DB053091DC05232B09F016
:100C90004CC0EC010E94780200916A0510916B052E
:100CA00020916C0530916D05AB01BC01401B510BCF
:100CB000620B730BCE01A0E0B0E0481759076A073A
:100CC0007B0798F1C1E08091660590916705A0913E
:100CD0006805B0916905892B8A2B8B2B09F0C0E040
:100CE0008DE090E090934B0280934A022AE331E03A
:100CF00040E06AE472E081E090E00E9451088C2FAD
:100D000090E0A0E0B0E08093660590936705A09323
:100D10006805B09369050E94780260936A05709334
:100D20006B0580936C0590936D05DF91CF911F91BA
:100D30000F910895EF92FF920F931F93CF93DF933C
:100D4000CDB7DEB7E2970FB6F894DEBF0FBECDBFCA
:100D50007C0100E010E00E945904E1E0F0E0EC0FBB
:100D6000FD1FE00FF11F80838E3749F484E092E08D
:100D70000E9443088DED95E00E940802EACF8A3375
:100D800069F08C3731F481E090E0F7019183808342
:100D900005C00F5F1F4F02331105E9F6E1E0F0E0F7
:100DA000EC0FFD1FE00FF11F1082CE0101960E9493
:100DB0000911E2960FB6F894DEBF0FBECDBFDF91EA
:100DC000CF911F910F91FF90EF9008951F920F9276
:100DD0000FB60F9211246F927F928F929F92AF92D3
:100DE000BF92CF92DF92EF92FF920F931F932F93B8
:100DF0003F934F935F936F937F938F939F93AF93A3
:100E0000BF93CF93DF93EF93FF930E9478024B0140
:100E10005C0130E4632E33E0732E4EE0C42E42E0DA
:100E2000D42EC0E0D0E08091120190911301C81738
:100E3000D90708F053C0F301819191913F010E94BD
:100E40005E04082F10E0F6018081918108171907D0
:100E500009F43FC001301105C9F57E01EE0CFF1CFD
:100E6000EE0CFF1CF701E251FB4F40815181628182
:100E70007381CE01880F991FFC0184169506A60682
:100E8000B70661F0E259FB4F208131812F5F3F4F60
:100E900031832083FC01EC5FFC4F02C0E853FD4F1F
:100EA000208131812F5F3F4F318320830E94780260
:100EB000F701E251FB4F6083718382839383F701D3
:100EC000EA50FC4F6083718382839383F601118320
:100ED00000832196F2E0CF0ED11CA5CFFF91EF91B8
:100EE000DF91CF91BF91AF919F918F917F916F9142
:100EF0005F914F913F912F911F910F91FF90EF9034
:100F0000DF90CF90BF90AF909F908F907F906F9029
:100F10000F900FBE0F901F901895009769F0FC017D
:100F200001900020E9F73197AF01481B590BBC0134
:100F30008DED95E00C94C00080E090E008958F92D4
:100F40009F92AF92BF920F931F93CF93DF93CDB732
:100F5000DEB7A1970FB6F894DEBF0FBECDBF19A2C2
:100F6000423008F44AE08E010F5D1F4F842E912C11
:100F7000A12CB12CA50194010E949711E62FB90173
:100F8000CA0101501109EA3014F4E05D01C0E95CC6
:100F9000D801EC93232B242B252B61F7C8010E9449
:100FA0008D07A1960FB6F894DEBF0FBECDBFDF91BF
:100FB000CF911F910F91BF90AF909F908F90089508
:100FC000BC0180E090E04AE00C949F070C948D07F0
:100FD000CF92DF92EF92FF92CF93DF9397FF1BC0E8
:100FE0006B017C016DE28DED95E00E94BB01EC018F
:100FF00066277727CB016C197D098E099F094AE086
:101000000E949F078C0F9D1FDF91CF91FF90EF9063
:10101000DF90CF9008954AE0DF91CF91FF90EF905D
:10102000DF90CF900C949F07BC01990F880B990B10
:101030000C94E8070F931F93CF93DF938C01C0E0CC
:10104000D0E0F801EC0FFD1F6491662341F08DEDB7
:1010500095E00E94BB01892B11F02196F2CFCE01C1
:10106000DF91CF911F910F910895CF93DF930E944D
:101070001A08EC0184EA91E00E948D078C0F9D1FF5
:10108000DF91CF910895CF93DF930E948D07EC01FC
:1010900084EA91E00E948D078C0F9D1FDF91CF9114
:1010A00008952F923F924F925F926F927F928F920C
:1010B0009F92AF92BF92CF92DF92EF92FF920F93E7
:1010C0001F93CF93DF9300D000D0CDB7DEB79A83C4
:1010D00089837C836B83342E490182E3ECEAF6E05A
:1010E000DF011D928A95E9F7E12CF12CC12CD12C5E
:1010F00022E3222E3AEF632E31E0732E4AE7A42E2C
:1011000046E0B42EE981FA81CE16DF060CF0A9C0C4
:101110002601FFEF4F1A5F0AF601EE0FFF1F8B81CA
:101120009C81E80FF91F008111818091DB0590916E
:10113000DC05892B29F00D30110511F46201E2CF95
:10114000101611060CF047C098013327F901E45F2F
:10115000FE4F8491F901E850FF4FC490F901EC5122
:10116000FF4FD490DD20B9F081110E942A02ED2DAD
:10117000F0E0EE0FFF1FE652FF4FA591B4919FB72D
:10118000F894311004C08C91C094C82202C0EC9134
:10119000CE2ACC929FBFD501E22D1D92EA95E9F7A8
:1011A0001F930F9386EA91E09F938F93BF92AF9224
:1011B0007F926F921F922F92BF92AF920E94CD1199
:1011C0008401232D4AE756E061E070E086E291E079
:1011D0000E940B032DC00115110509F4AFCFECEAF5
:1011E000F6E001900020E9F7CF01885A9640C297B7
:1011F00028F51195019511098091AC06882319F005
:1012000088EF91E002C086EA91E01F930F939F93CD
:101210008F938CEA96E09F938F937F926F921F92A9
:101220002F929F938F930E94CD11EFEFEE1AFE0A3B
:101230000FB6F894DEBF0FBECDBF80CF8401232D43
:101240004CEA56E0B70183E291E00E940B03ACEA5E
:10125000B6E0E22D1D92EA95E9F72601E12CF12C8A
:101260006DCF8091AC06882349F08401232D4CEA90
:1012700056E0B70180E291E00E940B030F900F90BF
:101280000F900F90DF91CF911F910F91FF90EF90F2
:10129000DF90CF90BF90AF909F908F907F906F9096
:1012A0005F904F903F902F900895CF93DF93CDB7ED
:1012B000DEB72A970FB6F894DEBF0FBECDBF789485
:1012C00084B5826084BD84B5816084BD85B582604B
:1012D00085BD85B5816085BD80916E0081608093FC
:1012E0006E00109281008091810082608093810065
:1012F0008091810081608093810080918000816075
:10130000809380008091B10084608093B1008091CF
:10131000B00081608093B00080917A0084608093F7
:101320007A0080917A00826080937A0080917A00BE
:10133000816080937A0080917A00806880937A003F
:101340001092C1001A821982E091ED05F091EE052C
:1013500082E08083E091E905F091EA051082E09156
:10136000EB05F091EC058FEC80831092F505E09190
:10137000F105F091F20586E08083E091EF05F091B0
:10138000F005808180618083E091EF05F091F005A8
:10139000808188608083E091EF05F091F005808185
:1013A00080688083E091EF05F091F00580818F7D6A
:1013B00080838DED95E00E9408028DED95E00E94FE
:1013C0008301892B29F08DED95E00E946101F5CF15
:1013D00086EA91E00E9443088DED95E00E940802A4
:1013E0008DED95E00E948301181619060CF447C094
:1013F00088E690E00E9435088DED95E00E94080295
:101400000E9478022B013C018DED95E00E94830142
:10141000181619062CF30E947802DC01CB018419FE
:101420009509A609B70988389341A105B105C0F609
:101430000E9453024B015C0155E0C52ED12CE12CDA
:10144000F12C0E945302DC01CB0188199909AA09E9
:10145000BB09883E9340A105B10598F331E0C31A5A
:10146000D108E108F10848EE840E43E0941EA11C67
:10147000B11CC114D104E104F10419F7C5CF0E94D5
:10148000590483349105D9F70E945904CA97E1F7AA
:10149000CE0101960E949A06909313018093120147
:1014A00040E4E42E43E0F42E00E010E080911201CD
:1014B000909113010817190758F4CE0101960E9464
:1014C0009A06D7018D939D937D010F5F1F4FEECF3D
:1014D000CE0101960E949A0690937D0380937C032F
:1014E000892B01F1CE0101960E949A069093890200
:1014F000809388023CE4E32E32E0F32E00E010E01B
:1015000080911201909113010817190758F4CE0128
:1015100001960E949A06F701819391937F010F5FD4
:101520001F4FEECFCE0101960E949A0690930D01B7
:1015300080930C01CE0101960E949A0690930B01B4
:1015400080930A01CE0101960E949A0690930501AC
:1015500080930401CE0101960E949A06909309019E
:1015600080930801CE0101960E949A06909307018C
:1015700080930601CE0101960E949A069093DC05A5
:101580008093DB05CE0101960E949A069093C702D4
:101590008093C60289819A81019721F08EE690E0BE
:1015A0000E9435088DED95E00E9408028DE691E0DD
:1015B0000E94E60780911201909113010E94E007BA
:1015C00020E4E22E23E0F22E00E010E080911201F0
:1015D000909113010817190768F48EE691E00E94B4
:1015E000E607D7018D919D917D010E9414080F5F40
:1015F0001F4FECCF8EE691E00E94E60780917C03BE
:1016000090917D030E94E00780917C0390917D037F
:10161000892B21F18EE691E00E94E60780918802F5
:10162000909189020E94E0079CE4E92E92E0F92E55
:1016300000E010E080911201909113010817190742
:1016400068F48EE691E00E94E607F701819191919E
:101650007F010E9414080F5F1F4FECCF8EE691E0D0
:101660000E94E60780910C0190910D010E94E00715
:101670008EE691E00E94E60780910A0190910B01AD
:101680000E94E0078EE691E00E94E6078091040147
:10169000909105010E94E0078EE691E00E94E60726
:1016A00080910801909109010E94E0078EE691E087
:1016B0000E94E60780910601909107010E94E007D1
:1016C0008EE691E00E94E6078091DB059091DC05B3
:1016D0000E94E0078EE691E00E94E6078091C60234
:1016E0009091C7020E94E00780E791E00E944308C2
:1016F0008DED95E00E94080240E060E473E0809187
:101700001201909113010E94750326E231E041E03D
:1017100060E473E080911201909113010E945108DE
:1017200080917C0390917D03892B49F041E06CE42A
:1017300072E080911201909113010E947503BEE046
:10174000EB2EB2E0FB2E00E413E0C12CD12C812C57
:10175000912C540183948091120190911301C81629
:10176000D90608F05FC0C6010E94F305D8018D912B
:101770009C910E945E0490E0F701819391937F0118
:10178000D8018D919D918D01282F883038F08E30B1
:1017900040F0863148F0E0E0F0E008C0EDE6F0E02F
:1017A00005C0EBE6F0E002C0ECE6F0E030819927FE
:1017B000283028F02E3010F4089701C00E97B5019C
:1017C000A40104C0440F551F661F771F8A95D2F7E6
:1017D000DB01CA01832B80833BB3283050F091E0BA
:1017E0002E3008F490E0882D01C0880F9A95EAF712
:1017F00001C084E0832B8BBB30916800283050F00F
:1018000091E02E3008F490E0882D01C0880F9A9561
:10181000EAF701C084E0832B809368005FEFC51A6C
:10182000D50A99CF8DE090E09093AB048093AA0401
:1018300041E06AEA74E081E090E00E947503209143
:10184000EC043091ED042115310531F14091120184
:101850005091130180E090E04817590759F0FC01BE
:10186000EE0FFF1FE259FB4F60817181672BA1F4DE
:101870000196F2CF2130310521F482E791E00E94F8
:1018800043088DED95E00E94080282E090E090937D
:10189000ED048093EC04FDC30E9478026093E80499
:1018A0007093E9048093EA049093EB040091E404BC
:1018B0001091E5042091E6043091E704DC01CB01AE
:1018C000801B910BA20BB30B4091E2045091E304F7
:1018D0008B3F9105A105B10540F4012B022B032B91
:1018E00021F04115510509F454C1C090DE04D09097
:1018F000DF04E090E004F090E104C114D104E104BD
:10190000F10481F0452B71F00E947802DC01CB01DB
:101910008C199D09AE09BF09893E9340A105B10507
:1019200008F0BAC382E3ECEAF4E0DF011D928A9585
:10193000E9F78091E2049091E304892BE1F488E8CF
:1019400090E00E9435088DED95E00E9408028DED33
:1019500095E00E940802E1E0F0E0F093E304E093F8
:10196000E2040E9478026093DE047093DF048093A7
:10197000E0049093E1048DED95E00E948301181638
:1019800019060CF0F6C000E010E06AE070E080E0BC
:1019900090E00E94FE02F801E455FB4F80838335FE
:1019A00011F400E010E0F801E455FB4F80818A302B
:1019B00049F08C3739F0882329F00F5F1F4F01332E
:1019C00011051CF3F801E455FB4F108268EF71E03C
:1019D0008CEA94E00E944E1168E771E00E94C41105
:1019E000892B09F0C6C068EF71E080E090E00E94AA
:1019F0004E116C0168EF71E080E090E00E944E11A2
:101A00005C0168EF71E080E090E00E944E114C01B3
:101A10006AE8462E62E0562E7CE4672E72E0772E4E
:101A200000E010E08091120190911301081719074E
:101A3000E0F568EF71E080E090E00E944E110097C1
:101A4000A1F10E9409117C01D2018D919C91E816AF
:101A5000F90611F1E114F10431F040918802F3012B
:101A60008081918129C380910E0190910F01A091F5
:101A70001001B09111018F3F9F4FAF4FBF4F49F4FD
:101A8000B801D3018D919C910E940705892B09F41F
:101A900008C3F201F182E0820F5F1F4FF2E04F0EA8
:101AA000511C22E0620E711CBDCFC114D10409F497
:101AB00052C06FE771E0C6010E94C411892B09F082
:101AC0004AC00E94780260930001709301018093E4
:101AD000020190930301A114B104E9F1C5010E9430
:101AE000271100910E0110910F01209110013091EA
:101AF0001101601771078207930769F160930E0166
:101B000070930F0180931001909311019F938F9315
:101B10007F936F9381E891E09F938F938CEF91E097
:101B20009F938F930E94CE020FB6F894DEBF0FBE34
:101B3000CDBF80917C0390917D03892B61F02CE2D5
:101B400031E0409188026CE472E080911201909142
:101B500013010E9451088114910439F0C4010E94BC
:101B600027117093ED046093EC041092E30410923B
:101B7000E2048091E8049091E904A091EA04B09114
:101B8000EB048093E4049093E504A093E604B093FF
:101B9000E7046EE773E07E836D8350E4C52E53E067
:101BA000D52E212C312C80E090E01C821B822091CC
:101BB0001201309113012216330608F0F9C12FB734
:101BC000F894F101EE0FFF1FEE0FFF1FEA50FC4FDC
:101BD00040805180628073802FBF411451046104A2
:101BE000710409F4D8C17101EE0CFF1CF701E25930
:101BF000FB4F80819181892B29F481E090E01C8248
:101C00001B82C9C180819181C39718F41C821B82F9
:101C10004AC040910E0150910F01609110017091E6
:101C200011014F3F8FEF58076807780779F3ED816F
:101C3000FE8180819181A281B3818F3FFFEF9F0759
:101C4000AF07BF0719F7ED81FE814083518362839F
:101C5000738380930E0190930F01A0931001B093B2
:101C6000110180917C0390917D03892B79F23F9241
:101C70002F92D60111968C9111978F938C918F93FF
:101C8000E7E8F1E0FF93EF9348E951E05F934F936A
:101C90000E94CE020FB6F894DEBF0FBECDBFA1E00A
:101CA000B0E0BC83AB830E9478026093E804709339
:101CB000E9048093EA049093EB04DC01CB018419DE
:101CC0009509A609B70900910C0110910D0120E0BA
:101CD00030E0081719072A073B0708F053C0F7013F
:101CE000E259FB4F2081318180910A0190910B01D3
:101CF0008217930768F500811181F6010190F08148
:101D0000E02DF887EF83AD81BE818D909D90AD90E1
:101D1000BC9081EA91E00E94E607C501B4010E94EF
:101D2000E80788EF91E00E94E6078F8198850E947E
:101D3000140888EF91E00E94E607C8010E94E007BE
:101D400084EA91E00E948D078DED95E00E940802E3
:101D500080917C0390917D03892B09F446C0F701A3
:101D6000E259FB4F20813181809108019091090156
:101D700028173907D0F181E090E0E1E0F0E0FC8342
:101D8000EB8335C080917C0390917D03892B09F40E
:101D9000A0C18091060190910701009709F499C1B3
:101DA000F701E259FB4F208131812817390708F4E8
:101DB00090C13F922F92D60111968C9111978F93DB
:101DC0008C918F93E6EDF1E0FF93EF9348E951E0BA
:101DD0005F934F930E94CE02C1010E94C0050FB6CF
:101DE000F894DEBF0FBECDBFB8C181E090E0F7012F
:101DF000E853FD4F20813181232B11F14081518126
:101E0000209104013091050124173507C8F4409151
:101E1000E8045091E9046091EA047091EB044419DC
:101E200055096609770920910C0130910D0189014E
:101E300020E030E0041715072607370708F490C1A3
:101E4000019709F04BC0F701E259FB4F8081918166
:101E50000B9708F440C0208131818091E804909173
:101E6000E904A091EA04B091EB0440910B014F9377
:101E700040910A014F933F932F9320910D012F938F
:101E800020910C012F93AC01BD014419550966093D
:101E900077097F936F935F934F937F926F925F92D7
:101EA0004F92BF93AF939F938F933F922F92F601E0
:101EB00081818F9380818F932AEA31E03F932F9322
:101EC0006FEA71E07F936F930E94CE020FB6F89491
:101ED000DEBF0FBECDBFC1010E94F30580917C0320
:101EE00090917D03892B09F454C0EB81FC81EF2B89
:101EF00009F483CEF701E259FB4F208131818091B3
:101F0000E8049091E904A091EA04B091EB044091B7
:101F10000B014F9340910A014F933F932F932091D0
:101F20000D012F9320910C012F93AC01BD01441999
:101F30005509660977097F936F935F934F937F925B
:101F40006F925F924F92BF93AF939F938F933F9205
:101F50002F92D60111968C9111978F938C918F931C
:101F6000EDECF1E0FF93EF932FEA31E03F932F93F5
:101F70000E94CE02C1010E9445050FB6F894DEBF53
:101F80000FBECDBF81E090E0A1E0B0E0BC83AB83A9
:101F900002C081E090E0BFEF2B1A3B0AE2E0CE0ED8
:101FA000D11C2D813E812C5F3F4F3E832D83FFCD81
:101FB000892B19F484EF91E002C088EB9BE00E942A
:101FC0003E060E9478026093E8047093E9048093CF
:101FD000EA049093EB04009100011091010120911B
:101FE0000201309103010F3F4FEF1407240734071C
:101FF00009F44FC0C0900E01D0900F01E090100185
:10200000F0901101CF20CE20CD20C09409F441C022
:102010006B017C01C01AD10AE20AF30A41E3C4163B
:1020200045E7D406E104F104A0F1CC24CA94DC2CE9
:102030007601C0920E01D0920F01E0921001F09251
:10204000110160930001709301018093020190934C
:10205000030180917C0390917D03892BD1F0EB806B
:10206000FC80EF28B1F48091C6029091C702892BC1
:1020700061F085E990E00E941A088CE990E00E94E6
:1020800035088DED95E00E9408028FEF9FEF0E94CA
:1020900045050E948F01D3CB1092E3041092E20415
:1020A00041CC41E08091880290918902892B09F00E
:1020B00040E0D3018D919C9190934B0280934A0212
:1020C0002CE231E06AE472E081E090E00E94510885
:1020D000E0CC87010C5F1C4FD8012D913C91809181
:1020E00008019091090182179307B8F5F701E259A9
:1020F000FB4F2081318138872F83D6010D90BC9111
:10210000A02DBA87A987ED81FE8180809180A28071
:10211000B38087EA91E00E94E607C501B4010E94FE
:10212000E80788EF91E00E94E60789859A850E947A
:10213000140888EF91E00E94E6078F8198850E943D
:10214000E00784EA91E00E948D078DED95E00E9402
:102150000802D80111961C921E9280E090E047CEB2
:10216000F60100811181AD81BE818D909D90AD9071
:10217000BC9087EF91E00E94E607C501B4010E9480
:10218000E80788EF91E00E94E607C8010E94140862
:1021900084EA91E00E948D078DED95E00E9408028F
:1021A00080917C0390917D03892B09F44CCEE1E072
:1021B000F0E0FC83EB8347CEEDEDF5E01382128275
:1021C00088EE93E0A0E0B0E084839583A683B78394
:1021D00088E191E09183808385EC90E09587848706
:1021E00084EC90E09787868780EC90E0918B808BE1
:1021F00081EC90E0938B828B82EC90E0958B848BCA
:1022000086EC90E0978B868B118E128E138E148E37
:102210000895FC0188279927E89421912032E9F359
:10222000293010F02E30C8F32B3241F02D3239F422
:10223000689404C00E948F11820F911D2191205338
:102240002A30C0F31EF4909581959F4F08951F93F7
:10225000FC0199278827BC01E89411911032E9F319
:10226000193010F01E30C8F31B3251F01D3249F402
:10227000689406C00E947A11610F711D811D911D25
:10228000119110531A30B0F33EF4909580957095EB
:1022900061957F4F8F4F9F4F1F9108954EED56E0F0
:1022A0000E9453110895FA01A191B081009719F489
:1022B0001097E1F0CD01DC01CD010D90002011F46B
:1022C000C00113C0FB012191222319F02015D9F779
:1022D000F3CFFB012191201519F41E92119606C02F
:1022E0002223C1F70D900020A1F7D001FA01A1939C
:1022F000B0830895592F482F372F262F660F771F49
:10230000881F991F660F771F881F991F620F731F01
:10231000841F951F660F771F881F991F08957AE005
:10232000979F902D879F802D910D11240895A1E2F4
:102330001A2EAA1BBB1BFD010DC0AA1FBB1FEE1F3F
:10234000FF1FA217B307E407F50720F0A21BB30B8A
:10235000E40BF50B661F771F881F991F1A9469F706
:1023600060957095809590959B01AC01BD01CF0162
:102370000895EE0FFF1F0590F491E02D099481E080
:1023800090E0F8940C94F114FB01DC018D91019024
:1023900080190110D9F3990B0895AEE0B0E0E3ED98
:1023A000F1E10C94C8140D891E898F89988D26E05F
:1023B0002C831A83098397FF02C080E090E801977D
:1023C0009E838D83AE01455E5F4F698D7A8DCE0110
:1023D00001960E9429124D815E8157FD0AC02F810E
:1023E0003885421753070CF49A01F801E20FF31FE6
:1023F00010822E96E4E00C94E414AEE0B0E0E3E04A
:10240000F2E10C94C8148C01FA0186E08C831A83E3
:10241000098377FF02C060E070E8CB0101979E83DB
:102420008D83A901BF01CE0101960E9429124D8121
:102430005E8157FD0AC02F813885421753070CF47F
:102440009A01F801E20FF31F10822E96E4E00C943B
:10245000E414ABE0B0E0EFE2F2E10C94BA146C01EA
:102460007B018A01FC0117821682838181FFCCC126
:10247000CE0101963C01F6019381F70193FD859110
:1024800093FF81917F01882309F4BAC1853239F421
:1024900093FD859193FF81917F01853229F4B601E7
:1024A00090E00E942014E7CF912C212C312CFFE1E9
:1024B000F315D8F08B3279F038F4803279F083322A
:1024C000A1F4232D20611DC08D3261F0803369F4A9
:1024D000232D216016C0832D8260382EE32DE46009
:1024E0003E2E2AC0F32DF8601DC037FC2DC020ED14
:1024F000280F2A3040F08E32B9F436FC81C1232DEA
:102500002064322E19C036FE06C08AE0989E200D47
:102510001124922E11C0EAE02E9E200D1124222EAD
:10252000F32DF0623F2E08C08C3621F4832D806895
:10253000382E02C0883641F4F70193FD859193FF50
:1025400081917F018111B3CF982F9F7D9554933056
:1025500028F40C5F1F4F9FE399830DC0833631F041
:10256000833771F0833509F059C021C0F8018081AB
:1025700089830E5F1F4F88248394912C530113C0CD
:102580002801F2E04F0E511CF801A080B18036FE08
:1025900003C0692D70E002C06FEF7FEFC5010E949C
:1025A00015144C018201F32DFF773F2E16C0280130
:1025B00022E0420E511CF801A080B18036FE03C01B
:1025C000692D70E002C06FEF7FEFC5010E940A1411
:1025D0004C01F32DF0683F2E820133FC1BC0822D8D
:1025E00090E088169906B0F4B60180E290E00E946F
:1025F00020142A94F4CFF50137FC859137FE8191A0
:102600005F01B60190E00E94201421102A9421E07D
:10261000821A91088114910471F7E8C0843611F090
:10262000893641F5F80137FE07C0608171818281EA
:1026300093810C5F1F4F08C060817181072E000CD1
:10264000880B990B0E5F1F4FF32DFF763F2E97FFE0
:1026500009C090958095709561957F4F8F4F9F4FE2
:10266000F0683F2E2AE030E0A3010E945C14882E1F
:10267000861845C0853731F4232D2F7EB22E2AE0EF
:1026800030E025C0932D997FB92E8F36C1F018F414
:10269000883579F0B5C0803719F0883721F0B0C09F
:1026A000E92FE061BE2EB4FE0DC0FB2DF460BF2EFD
:1026B00009C034FE0AC0292F2660B22E06C028E0C9
:1026C00030E005C020E130E002C020E132E0F80156
:1026D000B7FE07C060817181828193810C5F1F4FBB
:1026E00006C06081718180E090E00E5F1F4FA30102
:1026F0000E945C14882E8618FB2DFF773F2E36FE35
:102700000DC0232D2E7FA22E891458F434FE0BC049
:1027100032FC09C0832D8E7EA82E05C0B82CA32CB8
:1027200003C0B82C01C0B92CA4FE0FC0FE01E80DF7
:10273000F11D8081803321F49A2D997EA92E09C044
:10274000A2FE06C0B394B39404C08A2D867809F023
:10275000B394A3FC11C0A0FE06C0B21488F4280CE8
:10276000922C9B180EC0B21460F4B60180E290E087
:102770000E942014B394F7CFB21418F42B1802C09F
:10278000982C212CA4FE10C0B60180E390E00E949A
:102790002014A2FE17C0A1FC03C088E790E002C08D
:1027A00088E590E0B6010CC08A2D867859F0A1FE2C
:1027B00002C08BE201C080E2A7FC8DE2B60190E08E
:1027C0000E942014891438F4B60180E390E00E943E
:1027D00020149A94F7CF8A94F301E80DF11D8081BB
:1027E000B60190E00E9420148110F5CF222009F458
:1027F00042CEB60180E290E00E9420142A94F6CFE7
:10280000F6018681978102C08FEF9FEF2B96E2E160
:102810000C94D614FC010590615070400110D8F75B
:10282000809590958E0F9F1F0895FC016150704018
:1028300001900110D8F7809590958E0F9F1F0895F5
:102840000F931F93CF93DF93FB01238121FD03C0DF
:102850008FEF9FEF2CC022FF16C046815781248145
:1028600035814217530744F4A081B1819D012F5F48
:102870003F4F318320838C93268137812F5F3F4FD9
:102880003783268314C08B01EC01FB010084F185A2
:10289000E02D0995892BE1F6D80116968D919C9132
:1028A0001797019617969C938E931697CE01DF91FA
:1028B000CF911F910F910895FA01AA27283051F165
:1028C000203181F1E8946F936E7F6E5F7F4F8F4F61
:1028D0009F4FAF4FB1E03ED0B4E03CD0670F781FC0
:1028E000891F9A1FA11D680F791F8A1F911DA11DA5
:1028F0006A0F711D811D911DA11D20D009F46894DE
:102900003F912AE0269F11243019305D3193DEF685
:10291000CF010895462F4770405D4193B3E00FD03B
:10292000C9F7F6CF462F4F70405D4A3318F0495D26
:1029300031FD4052419302D0A9F7EACFB4E0A69509
:102940009795879577956795BA95C9F7009761052B
:10295000710508959B01AC010A2E06945795479581
:1029600037952795BA95C9F7620F731F841F951F76
:10297000A01D08952F923F924F925F926F927F9287
:102980008F929F92AF92BF92CF92DF92EF92FF927F
:102990000F931F93CF93DF93CDB7DEB7CA1BDB0B2B
:1029A0000FB6F894DEBF0FBECDBF09942A883988D0
:1029B00048885F846E847D848C849B84AA84B984D7
:1029C000C884DF80EE80FD800C811B81AA81B981E3
:1029D000CE0FD11D0FB6F894DEBF0FBECDBFED01F7
:0629E0000895F894FFCFFA
:1029E600FFFFFFFF1E00BC02C8000A002C01FFFF0C
:1029F600FFFF050000000000BB01C00052010802F5
:102A06008301610175017365747570007069537493
:102A160061747573436865636B004C454400736865
:102A26007574446F776E5461700073687574446F83
:102A3600776E4E6F6E506F7572696E675461707304
:102A46000073657450696E734D6F646500433A0098
:102A56007C00646561643B0053746174757300594E
:102A660000524649443A005461702053656C6563D0
:102A76007465642050696E002573202564202564E2
:102A860000503B000D0A00553B005254204C0025D7
:102A96007320256420256420256C7520256C7520FF
:102AA600256C752025642025642025640053442068
:102AB6004E50204C200053687574646F776E205416
:102AC600617020746F6F206D616E792070756C7304
:102AD60065732050696E004B3B0025732573256492
:0E2AE60000525000636F6E74696E75650000DB
:00000001FF
