:100000000C9462000C948A000C948A000C941F0AD1
:100010000C941F0A0C941F0A0C948A000C948A00FA
:100020000C948A000C948A000C948A000C948A0028
:100030000C948A000C948A000C948A000C948A0018
:100040000C94E90C0C948A000C946C0E0C94AF0E7A
:100050000C948A000C948A000C948A000C948A00F8
:100060000C948A000C948A00000000070002010032
:100070000003040600000000000000000102040864
:100080001020408001020408102001020408102002
:10009000040404040404040402020202020203032E
:1000A00003030303000000002300260029000000D2
:1000B0000000250028002B0000000000240027007D
:1000C0002A00740F11241FBECFEFD8E0DEBFCDBFD2
:1000D00011E0A0E0B1E0EEE7FEE202C005900D9273
:1000E000AE38B107D9F727E0AEE8B1E001C01D9204
:1000F000AB30B207E1F710E0C2E6D0E004C02197D0
:10010000FE010E94D713C136D107C9F70E94C50D61
:100110000C943D170C940000883038F08E3040F07D
:10012000863148F4ECE6F0E008C0EDE6F0E005C00A
:10013000EBE6F0E002C0E0E0F0E09081883068F4A7
:1001400041E050E060E070E0082E04C0440F551F0D
:10015000661F771F0A94D2F714C0282F30E08E3024
:1001600018F42850310902C02E50310941E050E006
:1001700060E070E004C0440F551F661F771F2A958A
:10018000D2F7492B40832BB3883050F031E08E30CA
:1001900008F430E091E001C0990F3A95EAF701C008
:1001A00094E0922B9BBB90916800883050F021E046
:1001B0008E3008F420E081E001C0880F2A95EAF72C
:1001C00001C084E0892B809368000895CF92DF926C
:1001D000EF92FF9240911A0150911B01ECE8F5E07B
:1001E000AAECB2E020E030E024173507B1F0261782
:1001F000370771F0E080F180E816F90649F4CD90F8
:10020000DD90ED90FC901397CD28CE28CF2841F4B7
:100210002F5F3F4F32961496E7CF80E090E002C008
:1002200081E090E0FF90EF90DF90CF900895CF9223
:10023000DF92EF92FF920F931F93CF93DF936B01A7
:100240007C018A01E9016CE571E08DE596E00E9490
:10025000EC0F2AE030E0B701A6018DE596E00E94A0
:10026000711063E271E08DE596E00E94EC0F4AE0C8
:1002700050E0B8018DE596E00E94BB1063E271E0AA
:100280008DE596E00E94EC0F4AE050E0BE018DE55E
:1002900096E0DF91CF911F910F91FF90EF90DF904B
:1002A000CF900C940511CF92DF92EF92FF92CF93F3
:1002B000DF936B017C01EA0162E271E08DE596E07B
:1002C0000E94EC0F2AE030E0B701A6018DE596E030
:1002D0000E94711063E271E08DE596E00E94EC0FE0
:1002E0004AE050E0BE018DE596E0DF91CF91FF90AE
:1002F000EF90DF90CF900C94C210CF92DF92EF92EC
:10030000FF920F931F93CF93DF936B017C018A01C0
:10031000E90165E271E08DE596E00E94EC0F2AE0CC
:1003200030E0B701A6018DE596E00E94711063E20E
:1003300071E08DE596E00E94EC0F4AE050E0B801D4
:100340008DE596E00E94BB1063E271E08DE596E0DA
:100350000E94EC0F4AE050E0BE018DE596E0DF918F
:10036000CF911F910F91FF90EF90DF90CF900C9461
:1003700005116BE771E08DE596E00E9409108DE5AF
:1003800096E00E94D20D181619066CF068E271E032
:100390008DE596E00E94091064E670E080E090E050
:1003A0000E94640DECCF08958F929F92AF92BF92FE
:1003B000CF92DF92EF92FF924B015C010E94330DCE
:1003C0006B017C01C80CD91CEA1CFB1C8DE596E076
:1003D0000E94D20D18161906A4F0B7FCF7CF0E94A0
:1003E000330DC616D706E806F90680F780E090E0E0
:1003F000FF90EF90DF90CF90BF90AF909F908F9045
:1004000008958DE596E0FF90EF90DF90CF90BF903C
:10041000AF909F908F900C94FE0D6FEF7FEFCB010C
:100420000C94D401EF92FF920F931F93CF93DF931D
:10043000CDB7DEB7E2970FB6F894DEBF0FBECDBFE3
:100440007C0100E010E00E940D02E1E0F0E0EC0F22
:10045000FD1FE00FF11F80838E3739F46EE271E0EB
:100460008DE596E00E940910ECCF8A3369F08C3755
:1004700031F481E090E0F7019183808305C00F5F44
:100480001F4F02331105FCF2E1E0F0E0EC0FFD1F1D
:10049000E00FF11F1082CE0101960E94DD13E2965B
:1004A0000FB6F894DEBF0FBECDBFDF91CF911F9185
:1004B0000F91FF90EF9008958F929F92AF92BF920D
:1004C000CF92DF92EF92FF920F931F93CF93DF9320
:1004D0001F92CDB7DEB75C014B018A0129830E94D0
:1004E000330D6B017C01B5018DE596E00E94EC0FA8
:1004F00063E271E08DE596E00E94EC0F4AE050E087
:100500002981622F8DE596E00E94F81063E271E088
:100510008DE596E00E94EC0F181419046CF44AE083
:1005200050E0B4018DE596E00E94BB1063E271E0FB
:100530008DE596E00E94EC0FB8018DE596E00E94F3
:10054000EC0F6BE771E08DE596E00E94091084E600
:10055000C80ED11CE11CF11C64E670E080E090E064
:100560000E94D4018C37910539F00E94330D6C152F
:100570007D058E059F0580F30F90DF91CF911F9130
:100580000F91FF90EF90DF90CF90BF90AF909F9032
:100590008F9008952F923F924F925F926F927F9229
:1005A0008F929F92AF92BF92CF92DF92EF92FF9283
:1005B0000F931F93CF93DF93CDB7DEB7CD56D109FD
:1005C0000FB6F894DEBF0FBECDBFAE969FAF8EAF15
:1005D000AE973B01342E1BAAE12CF12CC12CD12C5F
:1005E00092E3292ECE0101965C018E010D5C1F4F16
:1005F000AE968EAD9FADAE97C816D9060CF081C0F1
:1006000046019FEF891A990AF601EE0FFF1FE60DCA
:10061000F71D408051808091C2049091C304892BC2
:1006200029F0ADE04A16510409F469C06BE771E0A6
:10063000CE018B599F4F0E948911141415042CF47C
:10064000632D842D0E94540C55C04114510409F4AB
:1006500051C05194419451085F924F92A7E3B1E089
:10066000BF93AF931F922F92BF92AF920E945814E4
:10067000D5010D900020E9F7F80101900020E9F77D
:100680003197E01BF10BEA19FB09EA0FFB1F0FB6CC
:10069000F894DEBF0FBECDBFF29708F58BA9882373
:1006A00019F083E291E002C08BE791E0BF92AF9234
:1006B0009F938F931F930F93AAE3B1E0BF93AF93E0
:1006C0001F922F921F930F930E9458149FEFE91AC5
:1006D000F90A0FB6F894DEBF0FBECDBF0BC0232DB5
:1006E000A801B70181E491E00E945C021BAA4601C7
:1006F000E12CF12CCE018B599F4F0E941B116401FC
:1007000077CF8BA9882349F0232DAE014D5C5F4F35
:10071000B70181E491E00E945C02C359DF4F0FB63C
:10072000F894DEBF0FBECDBFDF91CF911F910F9127
:10073000FF90EF90DF90CF90BF90AF909F908F9001
:100740007F906F905F904F903F902F900895CF9340
:10075000DF9300D000D0CDB7DEB7462F9A838983D0
:10076000BE016F5F7F4F81E090E00E94CA020F9050
:100770000F900F900F90DF91CF9108952F923F929D
:100780004F925F926F927F928F929F92AF92BF92A1
:10079000CF92DF92EF92FF920F931F93CF93DF934D
:1007A000CDB7DEB7C456D1090FB6F894DEBF0FBE81
:1007B000CDBF2C013B01342E1BAAE12CF12CC12C06
:1007C000D12C92E3292ECE0101965C018E010D5CA5
:1007D0001F4FC414D5040CF072C046019FEF891A54
:1007E000990AF601EE0FFF1FE60DF71D808191813A
:1007F0002091C2043091C304232B21F08D30910548
:1008000009F45BC01816190624F4632D0E94900C9D
:1008100054C0009709F451C09195819591099F9317
:100820008F93A7E3B1E0BF93AF931F922F92BF9234
:10083000AF920E945814D5010D900020E9F7F801FD
:1008400001900020E9F73197E01BF10BEA19FB0951
:10085000EA0FFB1F0FB6F894DEBF0FBECDBFF297B5
:1008600008F58BA9882319F083E291E002C08BE799
:1008700091E0BF92AF929F938F931F930F93AAE340
:10088000B1E0BF93AF931F922F921F930F930E94DB
:1008900058149FEFE91AF90A0FB6F894DEBF0FBE9D
:1008A000CDBF0BC0232DA801B70184E491E00E94C5
:1008B0005C021BAA4601E12CF12C64018ACF8BA9B2
:1008C000882349F0232DAE014D5C5F4FB70184E4CE
:1008D00091E00E945C02CC59DF4F0FB6F894DEBF66
:1008E0000FBECDBFDF91CF911F910F91FF90EF9081
:1008F000DF90CF90BF90AF909F908F907F906F9040
:100900005F904F903F902F9008954F925F926F921B
:100910007F928F929F92AF92BF92CF92DF92EF928F
:10092000FF920F931F93CF93DF93CDB7DEB7C456DB
:10093000D1090FB6F894DEBF0FBECDBF3C01CE018A
:1009400001966C0184E6F60111928A95E9F7809090
:100950001A0190901B019CE8A92E95E0B92E00E0A9
:1009600010E0E12CF12C08151905E1F0061517052A
:1009700099F0F50140805180B801C2010E94E60063
:10098000892B51F4F701EE0FFF1FEC0DFD1D518275
:100990004082C70101967C010F5F1F4F92E0A90EB4
:1009A000B11CE1CF41E08091BE049091BF04892B3E
:1009B00009F040E0B601C7010E94BE03CC59DF4FE9
:1009C0000FB6F894DEBF0FBECDBFDF91CF911F9160
:1009D0000F91FF90EF90DF90CF90BF90AF909F90DE
:1009E0008F907F906F905F904F900895CF93DF939B
:1009F00000D000D0CDB7DEB7462F9A838983BE01E1
:100A00006F5F7F4F81E090E00E94BE030F900F90D8
:100A10000F900F90DF91CF9108950F931F93CF9375
:100A2000DF932091C2043091C304232B09F043C00B
:100A3000EC010E94330D00919201109193012091DD
:100A4000940130919501AB01BC01401B510B620B2D
:100A5000730BCE01DD0FAA0BBB0B481759076A07B2
:100A60007B0748F1C1E080918E0190918F01A091A8
:100A70009001B0919101892B8A2B8B2B09F0C0E05A
:100A80006C2F8DE090E00E94F6048C2F90E0A0E0A7
:100A9000B0E080938E0190938F01A0939001B0936A
:100AA00091010E94330D60939201709393018093A2
:100AB000940190939501DF91CF911F910F9108952B
:100AC00084EF91E00C940D05CF93DF93FC01EE0FC2
:100AD000FF1FE457FA4FC081D181BC01CE010E94B3
:100AE000E600892B69F461E08091BE049091BF0417
:100AF000892B09F060E0CE01DF91CF910C94F604D0
:100B0000DF91CF910895CF92DF92EF92FF929C01F7
:100B1000220F331FF901E65AFB4F11821082AC01FC
:100B2000440F551F440F551FFA01EC53FB4FCC24C3
:100B3000CA94DC2C7601C082D182E282F382F90170
:100B4000EE56FC4F11821082FA01E653FD4F1082DF
:100B5000118212821382F901EA50FC4F1182108235
:100B60002091C0043091C104232B31F0FF90EF900D
:100B7000DF90CF900C946405FF90EF90DF90CF90C2
:100B800008952F923F924F925F926F927F928F9231
:100B90009F92AF92BF92CF92DF92EF92FF920F930C
:100BA0001F93CF93DF93CDB7DEB7E2970FB6F894DC
:100BB000DEBF0FBECDBFCE0101965C0182E3D50141
:100BC0001D928A95E9F767E471E08DE596E00E9451
:100BD000091085012501C12CD12C3A2C2B2C612C1C
:100BE000712C812C912CE12CF12C8DE596E00E944A
:100BF000D20D892B29F0F2E3EF16F10409F059C068
:100C00006114710409F48EC062E571E0C3010E94B1
:100C10002B14892B09F086C00E94330D60931201BA
:100C2000709313018093140190931501C114D104A2
:100C300009F478C08090160190901701A0901801D7
:100C4000B0901901C6010E94FB1386169706A806EC
:100C5000B90609F467C06093160170931701809379
:100C600018019093190165E571E08DE596E00E9409
:100C7000EC0F40911601509117016091180170918D
:100C800019012AE030E08DE596E00E94D9108091AC
:100C9000C0049091C104892B09F444C04091BE0462
:100CA0006CE875E080911A0190911B010E94BE03CF
:100CB00039C08DE596E00E94FE0DD8018D938D011F
:100CC0008B3349F48114910431F4F2011082832CA6
:100CD000922C302E212EF20180818B3341F461144D
:100CE000710429F41082632C722C302E212ED20133
:100CF0008C918B3341F4C114D10429F41C92C32C80
:100D0000D22C302E212EBFEF4B1A5B0A80818A3005
:100D100029F4F501EE0DFF1D108272CFEFEFEE1AF0
:100D2000FE0A63CFE2960FB6F894DEBF0FBECDBFCA
:100D3000DF91CF911F910F91FF90EF90DF90CF90B7
:100D4000BF90AF909F908F907F906F905F904F90EB
:100D50003F902F9008952F923F924F925F926F9203
:100D60007F928F929F92AF92BF92CF92DF92EF923B
:100D7000FF920F931F93CF93DF9300D000D000D04A
:100D8000CDB7DEB70E94330D60939A0170939B013B
:100D900080939C0190939D012091C2043091C304E3
:100DA000232B79F1C0909601D0909701E0909801A3
:100DB000F0909901DC01CB018C199D09AE09BF09A6
:100DC00000910A0110910B0120E030E0081719078B
:100DD0002A073B0720F0CD28CE28CF2891F40E9487
:100DE000C10580919A0190919B01A0919C01B091C5
:100DF0009D018093960190939701A0939801B093E1
:100E000099012AEC32E03C832B8350EFC52E55E04C
:100E1000D52E64ECE62E64E0F62E00E010E0612CA6
:100E2000712C1A82198280911A0190911B01081766
:100E3000190708F0B7C00E94330D60939A017093B0
:100E40009B0180939C0190939D01EB81FC818080AC
:100E50009180A280B38081149104A104B10409F4AB
:100E600093C09801220F331F3E832D83F901E65A68
:100E7000FB4F20813181232B09F486C040815181B1
:100E8000209100013091010124173507D0F4209002
:100E900016013090170140901801509019013FEF52
:100EA000231633064306530661F0F7012081318192
:100EB000428153812F3FFFEF3F074F075F0709F440
:100EC000E2C0ED81FE81E65AFB4F408151812091C5
:100ED0000801309109012417350790F4AB01BC01DA
:100EE000481959096A097B0980910C0190910D01FB
:100EF000A0E0B0E084179507A607B70708F4E7C09D
:100F00008091C0049091C104892B39F08091020135
:100F100090910301009709F0CFC08D819E818E567C
:100F20009C4F5C01FC0120813181809104019091F2
:100F300005018217930798F4ED81FE81E65AFB4F75
:100F400020813181F60140815181F70160817181F9
:100F5000828193810E947D01F50111821082ED81D1
:100F6000FE81EA50FC4F80819181892B09F0C6C037
:100F7000F1E06F16710409F4FDC08091C0049091F6
:100F8000C104892B09F0FDC00F5F1F4F8B819C812D
:100F900004969C838B8392E0C90ED11CE4E0EE0E94
:100FA000F11C41CF0E946005409112015091130144
:100FB00060911401709115014F3FFFEF5F076F07BC
:100FC0007F0709F4F0C08091160190911701A0915C
:100FD0001801B09119018F3F9F4FAF4FBF4F09F4D8
:100FE000E2C080919A0190919B01A0919C01B091E7
:100FF0009D018C019D01041B150B260B370B4091A5
:101000000E0150910F016091100170911101401774
:1010100051076207730708F0C6C04FEF5FEFBA01D0
:1010200040931601509317016093180170931901B2
:101030008093120190931301A0931401B0931501B2
:101040008091C0049091C104892B09F4ACC08FEF4A
:101050009FEF26960FB6F894DEBF0FBECDBFDF918F
:10106000CF911F910F91FF90EF90DF90CF90BF90A5
:10107000AF909F908F907F906F905F904F903F9038
:101080002F900C948504F701208231824282538292
:1010900020931601309317014093180150931901C2
:1010A0002091C0043091C104232B09F40ACF21E020
:1010B00030E03A83298305CFED81FE81E65AFB4F6C
:1010C000208131812817390708F069C026CF208197
:1010D0003181F60140815181F70160817181828106
:1010E00093810E9417018091C0049091C1046624ED
:1010F0006394712C892B09F432CF4CC0208131814B
:1011000080910601909107018217930708F030CF74
:1011100040919A0150919B0160919C0170919D01B9
:10112000EB81FC8180819181A281B381481B590BA5
:101130006A0B7B0B80910C0190910D01A0E0B0E057
:1011400084179507A607B70708F012CFF60140816C
:101150005181F70160817181828193810E945301E5
:101160008091C0049091C104892B21F021E030E0EE
:101170003A832983C8010E94830566246394712CF5
:10118000FCCE29813A81232B09F4FECEC8010E94AE
:101190008504FACE21E030E03A832983E0CEC8010D
:1011A0000E946405DCCE26960FB6F894DEBF0FBE13
:1011B000CDBFDF91CF911F910F91FF90EF90DF9006
:1011C000CF90BF90AF909F908F907F906F905F90E7
:1011D0004F903F902F9008952F923F924F925F92A1
:1011E0006F927F928F929F92AF92BF92CF92DF9237
:1011F000EF92FF920F931F93CF93DF93CDB7DEB79C
:10120000E2970FB6F894DEBF0FBECDBF8C01181663
:10121000190624F40E94C00C282F75C0892B09F4EC
:1012200070C06BE571E08DE596E00E94EC0F6627DB
:101230007727601B710B4AE050E08DE596E00E9435
:10124000BB106BE771E08DE596E00E9409108DE51B
:1012500096E00E94D20D892BD1F38E010F5F1F4FB4
:101260007801C12CD12C812C912CA12CB12C412C9A
:10127000512C302E212E38010E940D02F80181934D
:101280008F018B3349F4A114B10431F4F7011082BA
:10129000A32CB22C302E212EF70180818B3341F408
:1012A0008114910429F41082832C922C302E212E4B
:1012B000F70180818B3341F4C114D10429F41082E9
:1012C000C32CD22C302E212EF70181917F018A3040
:1012D00029F4F301E40DF51D108209C08C37C9F320
:1012E000FFEF4F1A5F0A82E34816510429F6C11432
:1012F000D10441F0C6010E94DD1321E0892B19F4CD
:1013000001C002C020E0822FE2960FB6F894DEBF43
:101310000FBECDBFDF91CF911F910F91FF90EF9046
:10132000DF90CF90BF90AF909F908F907F906F9005
:101330005F904F903F902F9008956F927F928F9281
:101340009F92AF92BF92CF92DF92EF92FF920F9354
:101350001F93CF93DF930E94330D4B015C01F0EF9D
:101360006F2EF5E07F2E0EE911E0A2E0EA2EA2E05A
:10137000FA2EBAECCB2EB2E0DB2EC0E0D0E08091AA
:101380001A0190911B01C817D90708F049C0F30151
:10139000819191913F010E94EC0890E0F801208139
:1013A00031818217930791F18130910561F5F70141
:1013B00040815181628173819E01220F331FF901A7
:1013C00084169506A606B70661F0E65AFB4F4081E3
:1013D00051814F5F5F4F51834083F901EE56FC4FBF
:1013E00002C0EA50FC4F408151814F5F5F4F5183F3
:1013F0004083F70180829182A282B382F6018082CB
:101400009182A282B382F8019183808321960E5F3C
:101410001F4FF4E0EF0EF11C84E0C80ED11CAFCFDB
:10142000DF91CF911F910F91FF90EF90DF90CF90C0
:10143000BF90AF909F908F907F906F9008951F9274
:101440000F920FB60F9211242F933F934F935F93F8
:101450006F937F938F939F93AF93BF93EF93FF937C
:101460000E949D09FF91EF91BF91AF919F918F9144
:101470007F916F915F914F913F912F910F900FBE90
:101480000F901F901895AF92BF92CF92DF92EF927C
:10149000FF920F931F93CF93DF9300D0CDB7DEB7AA
:1014A0001A82198240E855E260E070E08DE596E02E
:1014B0000E94EA0E8DE596E00E94720F8823D1F318
:1014C0008DE596E00E941E0E8DE596E00E94D20DFD
:1014D000892B29F08DE596E00E94FE0DF5CF0E9444
:1014E000B9010E940D0283349105D9F70E940D02C3
:1014F000CA97E1F7CE0101960E94120290931B0158
:1015000080931A0140EFE42E45E0F42E670100E0DD
:1015100010E080911A0190911B010817190758F4E7
:10152000CE0101960E941202F601819391936F0100
:101530000F5F1F4FEECFCE0101960E9412029093D3
:10154000C1048093C004892BD9F5CE0101960E9475
:10155000120290930D0180930C01CE0101960E941E
:1015600012029093090180930801CE0101960E9416
:1015700012029093070180930601CE0101960E940A
:1015800012029093050180930401CE0101960E94FE
:1015900012029093030180930201CE0101960E94F2
:1015A00012029093C3048093C20489819A810197A7
:1015B00041F16FE571E08DE596E00E94091021C0D0
:1015C000CE0101960E9412029093BF048093BE0444
:1015D0003CE8C32E35E0D32E00E010E080911A01E4
:1015E00090911B010817190708F0AFCFCE010196A3
:1015F0000E941202F601819391936F010F5F1F4FBA
:10160000EDCF69E771E08DE596E00E94EC0F609107
:101610001A0170911B014AE050E08DE596E00E94AE
:10162000FF1020EFC22E25E0D22E00E010E08091C6
:101630001A0190911B016AE771E00817190788F4F5
:101640008DE596E00E94EC0FF601619171916F01BA
:101650004AE050E08DE596E00E94BB100F5F1F4FFF
:10166000E6CF8DE596E00E94EC0F6091C00470918A
:10167000C1044AE050E08DE596E00E94FF108091A1
:10168000C0049091C104892B09F07FC06AE771E022
:101690008DE596E00E94EC0F60910C0170910D01B8
:1016A0004AE050E08DE596E00E94FF106AE771E0A5
:1016B0008DE596E00E94EC0F6091080170910901A0
:1016C0004AE050E08DE596E00E94FF106AE771E085
:1016D0008DE596E00E94EC0F609106017091070184
:1016E0004AE050E08DE596E00E94FF106AE771E065
:1016F0008DE596E00E94EC0F609104017091050168
:101700004AE050E08DE596E00E94FF106AE771E044
:101710008DE596E00E94EC0F60910201709103014B
:101720004AE050E08DE596E00E94FF106AE771E024
:101730008DE596E00E94EC0F6091C2047091C304A5
:101740004AE050E08DE596E00E94FF106CE771E002
:101750008DE596E00E94091040E060EF75E0809111
:101760001A0190911B010E94CA028091C0049091BD
:10177000C104892BD9F141E06CE875E080911A0130
:1017800090911B010E94CA0231C06AE771E08DE5A9
:1017900096E00E94EC0F6091BE047091BF044AE095
:1017A00050E08DE596E00E94FF109CE8C92E95E080
:1017B000D92E00E010E080911A0190911B010817CA
:1017C000190708F063CF6AE771E08DE596E00E94A3
:1017D000EC0FF601619171916F014AE050E08DE5E7
:1017E00096E00E94BB100F5F1F4FE5CF8EE9C82E19
:1017F00081E0D82E00E010E080911A0190911B0149
:1018000008171907B0F4C8010E9483055701F701B2
:10181000819191917F010E94EC0890E0F601819303
:1018200091936F01F50180810E948C000F5F1F4F23
:10183000E3CF61E08DE090E00E94A7030F900F904E
:10184000DF91CF911F910F91FF90EF90DF90CF909C
:10185000BF90AF900895833081F028F4813099F0E3
:101860008230A1F008958630A9F08730B9F0843035
:10187000D1F4809180008F7D03C0809180008F77AC
:1018800080938000089584B58F7702C084B58F7DE2
:1018900084BD08958091B0008F7703C08091B0001F
:1018A0008F7D8093B0000895CF93DF9390E0FC018B
:1018B000E458FF4F2491FC01E057FF4F84918823A7
:1018C00061F190E0880F991FFC01E854FF4FC5912A
:1018D000D491FC01E255FF4FA591B491611109C06B
:1018E0009FB7F8948881209582238883EC912E23DA
:1018F0000BC0623061F49FB7F8943881822F8095D5
:1019000083238883EC912E2B2C939FBF06C08FB727
:10191000F894E8812E2B28838FBFDF91CF91089513
:101920001F93CF93DF93282F30E0F901E859FF4F41
:101930008491F901E458FF4FD491F901E057FF4F2A
:10194000C491CC23C9F0162F81110E942B0CEC2FCF
:10195000F0E0EE0FFF1FE255FF4FA591B4918FB756
:10196000F894111105C09C91ED2FE095E92302C078
:10197000EC91ED2BEC938FBFDF91CF911F910895E8
:10198000CF93DF93282F30E0F901E859FF4F84917E
:10199000F901E458FF4FD491F901E057FF4FC4918A
:1019A000CC2391F081110E942B0CEC2FF0E0EE0F74
:1019B000FF1FEC55FF4FA591B491EC91ED2381E011
:1019C00090E021F480E002C080E090E0DF91CF91D0
:1019D00008951F920F920FB60F9211242F933F93E9
:1019E0008F939F93AF93BF93809155069091560626
:1019F000A0915706B09158063091540623E0230F6A
:101A00002D3720F40196A11DB11D05C026E8230F36
:101A10000296A11DB11D2093540680935506909304
:101A20005606A0935706B093580680915906909198
:101A30005A06A0915B06B0915C060196A11DB11DEE
:101A40008093590690935A06A0935B06B0935C0668
:101A5000BF91AF919F918F913F912F910F900FBEAA
:101A60000F901F9018952FB7F894609155067091BC
:101A7000560680915706909158062FBF08953FB79C
:101A8000F8948091590690915A06A0915B06B09106
:101A90005C0626B5A89B05C02F3F19F00196A11D35
:101AA000B11D3FBFBA2FA92F982F8827820F911DF4
:101AB000A11DB11DBC01CD0142E0660F771F881F3B
:101AC000991F4A95D1F70895CF92DF92EF92FF9236
:101AD000CF93DF936B017C010E943F0DEB01C1149A
:101AE000D104E104F10479F00E943F0D6C1B7D0BE1
:101AF000683E7340A0F381E0C81AD108E108F108FC
:101B0000C851DC4FECCFDF91CF91FF90EF90DF9089
:101B1000CF900895789484B5826084BD84B5816047
:101B200084BD85B5826085BD85B5816085BDEEE6E5
:101B3000F0E0808181608083E1E8F0E010828081C4
:101B400082608083808181608083E0E8F0E0808132
:101B500081608083E1EBF0E0808184608083E0EB52
:101B6000F0E0808181608083EAE7F0E0808184603A
:101B70008083808182608083808181608083808196
:101B8000806880831092C10008950E948A0D0E948F
:101B9000430AC6EADEE00E94AB062097E1F30E940A
:101BA000A60EF9CFFC0124853585F901E05CFF4FD5
:101BB00080819181329620813181821B930B8F73BA
:101BC00099270895DC011C96ED91FC911D97DF018A
:101BD000A05CBF4F2D913C91119712968D919C91D5
:101BE00011972817390739F08D919C91E80FF91F4B
:101BF000808190E008958FEF9FEF0895FC01A48508
:101C0000B585FD01E05CFF4F2081318132968081F6
:101C100091812817390779F080819181A80FB91F28
:101C20008C91208131812F5F3F4F2F733327318378
:101C3000208390E008958FEF9FEF0895FC0181A12C
:101C4000882329F0A489B5898C9186FFFBCF11A246
:101C500008950F931F93CF93DF93FC01A685B7855B
:101C60008D01005C1F4FE8018881998101968F7377
:101C70009927AD014E5B5F4FEA01288139818217B8
:101C80009307D1F3E80128813981A20FB31F6C9328
:101C9000A685B785A05CBF4F11969C938E93A689AD
:101CA000B7892C9181E090E0078C02C0880F991FC2
:101CB0000A94E2F7822B8C9381E081A30488F58952
:101CC000E02D80818064808381E090E0DF91CF917E
:101CD0001F910F91089508951F920F920FB60F92C2
:101CE00011242F934F935F938F939F93EF93FF93C1
:101CF0008091C00082FD1CC02091C6008091030726
:101D00009091040701968F73992740910507509190
:101D100006078417950771F0E0910307F091040717
:101D2000ED53F94F2083909304078093030702C07B
:101D30008091C600FF91EF919F918F915F914F919C
:101D40002F910F900FBE0F901F9018958DE596E084
:101D50000E94D20D892B11F00C946B0E08951F92E6
:101D60000F920FB60F9211242F933F938F939F934F
:101D7000EF93FF932091BF063091C0068091C1067A
:101D80009091C2062817390731F48091C1008F7DE8
:101D90008093C10014C0E091C106F091C206E158E1
:101DA000F94F20818091C1069091C20601968F73F0
:101DB00099279093C2068093C1062093C600FF9195
:101DC000EF919F918F913F912F910F900FBE0F90A8
:101DD0001F901895CF92DF92EF92FF920F931F936F
:101DE000CF93DF93EC016A017B014115514E6105F0
:101DF000710509F1EC89FD8981E090E008A002C03D
:101E0000880F991F0A94E2F7808360E079E08DE300
:101E100090E0A70196010E94B51389019A01015033
:101E200011092109310936952795179507959801CC
:101E300001151041A8F0EC89FD89108260E874E872
:101E40008EE190E0A70196010E94B513DA01C90165
:101E50000197A109B109B695A795979587959C011A
:101E6000E889F9893083EA89FB89208319A2EE8900
:101E7000FF89408181E090E09C010C8C02C0220F20
:101E8000331F0A94E2F7242B2083EE89FF894081D7
:101E90009C010D8C02C0220F331F0A94E2F7242B01
:101EA0002083EE89FF8940819C010E8C02C0220FA5
:101EB000331F0A94E2F7242B2083EE89FF892081C7
:101EC0000F8C02C0880F991F0A94E2F78095822335
:101ED0008083DF91CF911F910F91FF90EF90DF9062
:101EE000CF90089581E00895EDE5F6E01382128227
:101EF00088EE93E0A0E0B0E084839583A683B78367
:101F000082E891E09183808383EC96E095878487D3
:101F10008FE796E09787868785EC90E0918B808BA2
:101F200084EC90E0938B828B80EC90E0958B848B9B
:101F300081EC90E0978B868B82EC90E0918F808F84
:101F400086EC90E0938F828F84E0848F83E0858F8E
:101F500087E0868F85E0878F81E080A30895CF9208
:101F6000DF92EF92FF920F931F93CF93DF936C0159
:101F7000EB017B01E40EF51E00E010E0CE15DF055D
:101F800061F06991D601ED91FC910190F081E02D15
:101F9000C6010995080F191FF1CFC801DF91CF9134
:101FA0001F910F91FF90EF90DF90CF9008956115F2
:101FB000710579F0FB0101900020E9F73197AF013D
:101FC000461B570BDC01ED91FC910280F381E02D63
:101FD000099480E090E008950C94D70FDC01ED9116
:101FE000FC910190F081E02D09940F931F93CF9302
:101FF000DF93EC016DE00E94EE0F8C016AE0CE01F0
:102000000E94EE0F800F911FDF91CF911F910F91D2
:1020100008950F931F93CF93DF93EC010E94D70F86
:102020008C01CE010E94F50F800F911FDF91CF919F
:102030001F910F9108958F929F92AF92BF92CF926E
:10204000DF92EF92FF920F931F93CF93DF93CDB761
:10205000DEB7A1970FB6F894DEBF0FBECDBF6C01FF
:10206000142FE52FCB01022F19A2223008F40AE029
:102070007E0121E2E20EF11C802E912CA12CB12CCC
:10208000612F7E2FA50194010E94B513029F1019A4
:10209000112481E0E81AF1081A3014F4105D01C02F
:1020A000195CF7011083122FE32FCA01232B242B75
:1020B000252B31F7B701C6010E94D70FA1960FB6A5
:1020C000F894DEBF0FBECDBFDF91CF911F910F916E
:1020D000FF90EF90DF90CF90BF90AF909F908F9048
:1020E0000895CF92DF92EF92FF920F931F93CF93B9
:1020F000DF93EC016A017B012115310579F4E88158
:10210000F9810190F081E02D642FDF91CF911F9133
:102110000F91FF90EF90DF90CF9009942A30310516
:10212000E9F477FF1AC06DE20E94EE0F8C0144279C
:102130005527BA014C195D096E097F092AE0CE01C5
:102140000E941B10800F911FDF91CF911F910F9163
:10215000FF90EF90DF90CF9008952AE0B701A6019D
:10216000CE01DF91CF911F910F91FF90EF90DF9003
:10217000CF900C941B109A01AB01770F660B770B75
:102180000C9471100F931F93CF93DF93EC019A017E
:10219000AB01770F660B770B0E9471108C01CE019B
:1021A0000E94F50F800F911FDF91CF911F910F912A
:1021B00008950F931F93CF93DF93EC010E9471104A
:1021C0008C01CE010E94F50F800F911FDF91CF91FE
:1021D0001F910F9108952115310541F4DC01ED9116
:1021E000FC910190F081E02D642F09940C941B1058
:1021F0009A01462F50E060E070E00C94EB109A01D9
:10220000AB0160E070E00C94EB100F931F93CF9341
:10221000DF93EC019A01AB0160E070E00E94EB10EB
:102220008C01CE010E94F50F800F911FDF91CF919D
:102230001F910F910895FC01808191810C943412BB
:10224000CF93DF93EC0188819981009711F00E9470
:102250003412198218821D821C821B821A82DF911D
:10226000CF9108950F931F93CF93DF93EC018B01D0
:102270006F5F7F4F888199810E94CC12009731F067
:10228000998388831B830A8381E001C080E0DF910A
:10229000CF911F910F910895CF93DF93EC01888127
:1022A0009981892B29F08A819B818617970760F491
:1022B000CE010E943211882341F08C819D81892BAF
:1022C00019F4E881F981108281E0DF91CF910895BE
:1022D000EF92FF920F931F93CF93DF93EC017B015B
:1022E0008A01BA010E944C11811104C0CE010E94E2
:1022F000201107C01D830C83B701888199810E943A
:102300003414CE01DF91CF911F910F91FF90EF9088
:102310000895FC01118210821382128215821482A8
:1023200016826115710551F0FB0101900020E9F75B
:102330003197AF01461B570B0C9468110895CF934A
:10234000DF938230910510F482E090E0E09109077C
:10235000F0910A0720E030E0C0E0D0E0309711F1C2
:102360004081518148175907C0F04817590761F457
:1023700082819381209719F09B838A832BC090934D
:102380000A078093090726C02115310519F0421765
:10239000530718F49A01BE01DF01EF010280F381B7
:1023A000E02DDCCF2115310509F1281B390B243034
:1023B000310590F412968D919C91139761157105DA
:1023C00021F0FB019383828304C090930A078093DA
:1023D0000907FD01329644C0FD01E20FF31F81930E
:1023E0009193225031092D933C933AC020910707D5
:1023F00030910807232B41F420911E0130911F01D9
:10240000309308072093070720911C0130911D018C
:102410002115310541F42DB73EB74091200150916F
:102420002101241B350BE0910707F0910807E21703
:10243000F307A0F42E1B3F0B2817390778F0AC01E7
:102440004E5F5F4F2417350748F04E0F5F1F5093C4
:102450000807409307078193919302C0E0E0F0E002
:10246000CF01DF91CF9108950F931F93CF93DF9307
:10247000009709F48CC0FC013297138212820091FC
:10248000090710910A070115110581F42081318196
:10249000820F931F209107073091080728173907EB
:1024A00079F5F0930807E093070771C0D80140E081
:1024B00050E0AE17BF0750F412962D913C91139740
:1024C000AD012115310509F1D901F3CF9D01DA01E3
:1024D0003383228360817181860F971F8217930750
:1024E00069F4EC0128813981260F371F2E5F3F4F99
:1024F000318320838A819B8193838283452B29F4B6
:10250000F0930A07E093090742C01396FC93EE93F9
:102510001297ED01499159919E01240F351FE21741
:10252000F30771F480819181840F951F02961196B3
:102530009C938E938281938113969C938E93129792
:10254000E0E0F0E0D80112968D919C9113970097EE
:1025500019F0F8018C01F6CF8D919C9198012E5FB6
:102560003F4F820F931F20910707309108072817CC
:10257000390769F4309729F410920A071092090775
:1025800002C0138212821093080700930707DF919D
:10259000CF911F910F9108956F927F928F929F928A
:1025A000AF92BF92CF92DF92EF92FF920F931F9361
:1025B000CF93DF93EC01009789F4CB01DF91CF91AA
:1025C0001F910F91FF90EF90DF90CF90BF90AF9051
:1025D0009F908F907F906F900C949F11FC01E60F5D
:1025E000F71F9C0122503109E217F30708F4ACC031
:1025F000D9010D911C91119706171707B0F00530FE
:10260000110508F49FC0C80104978617970708F4BE
:1026100099C002501109061B170B019311936D937A
:102620007C93CF010E9434128DC05B01A01AB10AC5
:102630004C01800E911EA0910907B0910A0740E05D
:1026400050E0E12CF12C109709F44AC0A815B90507
:10265000D1F56D907C901197630182E0C80ED11C7A
:10266000CA14DB0480F1A3014A195B096A0182E004
:10267000C80ED11C1296BC9012971396AC91B5E07F
:10268000CB16D10440F0B282A38351834083D90199
:102690006D937C930AC00E5F1F4FC301800F911F83
:1026A000F90191838083EB2DFA2FE114F10431F0CD
:1026B000D7011396FC93EE93129744C0F0930A0748
:1026C000E09309073FC08D919C91119748175907D6
:1026D00008F4AC017D0112960D90BC91A02DB3CFF2
:1026E000809107079091080788159905E1F446172E
:1026F0005707C8F480911C0190911D01009741F487
:102700008DB79EB74091200150912101841B950BFC
:10271000E817F907C8F4F0930807E0930707F901F1
:10272000718360830FC0CB010E949F117C010097D1
:1027300059F0A801BE010E942214CE010E94341259
:10274000C70104C0CE0102C080E090E0DF91CF91CC
:102750001F910F91FF90EF90DF90CF90BF90AF90BF
:102760009F908F907F906F900895A1E21A2EAA1BE0
:10277000BB1BFD010DC0AA1FBB1FEE1FFF1FA21731
:10278000B307E407F50720F0A21BB30BE40BF50B2E
:10279000661F771F881F991F1A9469F760957095B7
:1027A000809590959B01AC01BD01CF010895EE0F7E
:1027B000FF1F0590F491E02D0994FC0188279927CB
:1027C000E89421912032E9F3293010F02E30C8F33B
:1027D0002B3241F02D3239F4689404C00E94501419
:1027E000820F911D219120532A30C0F31EF4909541
:1027F00081959F4F08951F93FC0199278827BC015D
:10280000E89411911032E9F3193010F01E30C8F33A
:102810001B3251F01D3249F4689406C00E943B14EB
:10282000610F711D811D911D119110531A30B0F36C
:102830003EF490958095709561957F4F8F4F9F4F97
:102840001F910895FB01DC0102C001900D924150DF
:102850005040D8F70895FB01DC018D91019080195B
:102860000110D9F3990B0895FB01DC0101900D9241
:102870000020E1F70895592F482F372F262F660F94
:10288000771F881F991F660F771F881F991F620F78
:10289000731F841F951F660F771F881F991F089548
:1028A0007AE0979F902D879F802D910D1124089598
:1028B000AEE0B0E0EEE5F4E10C9414170D891E894A
:1028C0008F89988D26E02C831A83098397FF02C095
:1028D00080E090E801979E838D83AE01455E5F4F57
:1028E000698D7A8DCE0101960E9488144D815E819A
:1028F00057FD0AC02F813885421753070CF49A01FF
:10290000F801E20FF31F10822E96E4E00C943017CA
:10291000ACE0B0E0EEE8F4E10C9406177C016B014A
:102920008A01FC0117821682838181FFBDC1CE011D
:1029300001964C01F7019381F60193FD859193FF78
:1029400081916F01882309F4ABC1853239F493FD7D
:10295000859193FF81916F01853229F4B70190E051
:102960000E947016E7CF512C312C20E02032A0F4C9
:102970008B3269F030F4803259F0833269F420618F
:102980002CC08D3239F0803339F4216026C02260AA
:10299000246023C0286021C027FD27C030ED380FF8
:1029A0003A3078F426FF06C0FAE05F9E300D11241D
:1029B000532E13C08AE0389E300D1124332E20622E
:1029C0000CC08E3221F426FD6BC1206406C08C360B
:1029D00011F4206802C0883641F4F60193FD859118
:1029E00093FF81916F018111C1CF982F9F7D9554E5
:1029F000933028F40C5F1F4FFFE3F9830DC083363B
:102A000031F0833771F0833509F05BC022C0F801E3
:102A1000808189830E5F1F4F44244394512C5401BD
:102A200015C03801F2E06F0E711CF801A080B18072
:102A300026FF03C0652D70E002C06FEF7FEFC50178
:102A40002C870E9465162C0183012C852F77222E5E
:102A500017C03801F2E06F0E711CF801A080B18040
:102A600026FF03C0652D70E002C06FEF7FEFC50148
:102A70002C870E945A162C012C852068222E830157
:102A800023FC1BC0832D90E048165906B0F4B70113
:102A900080E290E00E9470163A94F4CFF50127FC92
:102AA000859127FE81915F01B70190E00E94701629
:102AB00031103A94F1E04F1A51084114510471F762
:102AC000E5C0843611F0893639F5F80127FF07C0D3
:102AD00060817181828193810C5F1F4F08C060818A
:102AE0007181072E000C880B990B0E5F1F4F2F76FC
:102AF000722E97FF09C090958095709561957F4FD4
:102B00008F4F9F4F2068722E2AE030E0A4010E9470
:102B1000A816A82EA81844C0853729F42F7EB22EF7
:102B20002AE030E025C0F22FF97FBF2E8F36C1F0AA
:102B300018F4883579F0B4C0803719F0883721F05F
:102B4000AFC02F2F2061B22EB4FE0DC08B2D84603C
:102B5000B82E09C024FF0AC09F2F9660B92E06C068
:102B600028E030E005C020E130E002C020E132E0A2
:102B7000F801B7FE07C060817181828193810C5F8B
:102B80001F4F06C06081718180E090E00E5F1F4F93
:102B9000A4010E94A816A82EA818FB2DFF777F2E4F
:102BA00076FE0BC0372D3E7FA51450F474FE0AC08C
:102BB00072FC08C0372D3E7E05C0BA2C372D03C0ED
:102BC000BA2C01C0B52C34FF0DC0FE01EA0DF11D79
:102BD0008081803311F4397E09C032FF06C0B3947E
:102BE000B39404C0832F867809F0B39433FD13C0E7
:102BF00030FF06C05A2CB31418F4530C5B18B32CD6
:102C0000B31468F4B70180E290E03C870E9470162C
:102C1000B3943C85F5CFB31410F43B1801C0312CAC
:102C200034FF12C0B70180E390E03C870E94701629
:102C30003C8532FF17C031FD03C088E790E002C039
:102C400088E590E0B7010CC0832F867859F031FFFA
:102C500002C08BE201C080E237FD8DE2B70190E057
:102C60000E947016A51438F4B70180E390E00E942A
:102C700070165A94F7CFAA94F401EA0DF11D8081E1
:102C8000B70190E00E947016A110F5CF332009F42F
:102C900051CEB70180E290E00E9470163A94F6CFD0
:102CA000F7018681978102C08FEF9FEF2C96E2E1BA
:102CB0000C942217FC010590615070400110D8F768
:102CC000809590958E0F9F1F0895FC016150704074
:102CD00001900110D8F7809590958E0F9F1F089551
:102CE0000F931F93CF93DF93FB01238121FD03C03B
:102CF0008FEF9FEF28C022FF16C0468157812481A5
:102D000035814217530744F4A081B1819D012F5FA3
:102D10003F4F318320838C93268137812F5F3F4F34
:102D20003783268310C0EB01092F182F0084F1850B
:102D3000E02D0995892BE1F68E819F8101969F8375
:102D40008E83812F902FDF91CF911F910F91089546
:102D5000FA01AA27283051F1203181F1E8946F93CC
:102D60006E7F6E5F7F4F8F4F9F4FAF4FB1E03ED072
:102D7000B4E03CD0670F781F891F9A1FA11D680F10
:102D8000791F8A1F911DA11D6A0F711D811D911D43
:102D9000A11D20D009F468943F912AE0269F1124B8
:102DA0003019305D3193DEF6CF010895462F47701C
:102DB000405D4193B3E00FD0C9F7F6CF462F4F7077
:102DC000405D4A3318F0495D31FD4052419302D0D5
:102DD000A9F7EACFB4E0A69597958795779567957B
:102DE000BA95C9F700976105710508959B01AC017B
:102DF0000A2E06945795479537952795BA95C9F7A2
:102E0000620F731F841F951FA01D08952F923F927C
:102E10004F925F926F927F928F929F92AF92BF92EA
:102E2000CF92DF92EF92FF920F931F93CF93DF9396
:102E3000CDB7DEB7CA1BDB0B0FB6F894DEBF0FBEF3
:102E4000CDBF09942A88398848885F846E847D8440
:102E50008C849B84AA84B984C884DF80EE80FD8042
:102E60000C811B81AA81B981CE0FD11D0FB6F894B8
:0E2E7000DEBF0FBECDBFED010895F894FFCF79
:102E7E003200BC02C8001E000A00FA002C01307598
:102E8E000000FFFFFFFFFFFFFFFF050000000B0725
:102E9E0080004B3B00553B00616C69766500636FAB
:102EAE006E74696E75650025640025732573257330
:102EBE0000534D0057500052464944436865636BBA
:102ECE003B004F4B00524649443A0052503B004D96
:102EDE00697373696E6720436F6E66696775726199
:102EEE0074696F6E20456E6400433A007C000000EA
:0E2EFE000000290EAF0FD20DFE0DE20D1E0ECC
:00000001FF
