:100000000C9462000C948A000C948A000C94480BA7
:100010000C94480B0C94480B0C948A000C948A00A6
:100020000C948A000C948A000C948A000C948A0028
:100030000C948A000C948A000C948A000C948A0018
:100040000C94120E0C948A000C94950F0C94D80FFB
:100050000C948A000C948A000C948A000C948A00F8
:100060000C948A000C948A00000000070002010032
:100070000003040600000000000000000102040864
:100080001020408001020408102001020408102002
:10009000040404040404040402020202020203032E
:1000A00003030303000000002300260029000000D2
:1000B0000000250028002B0000000000240027007D
:1000C0002A009D1011241FBECFEFD8E0DEBFCDBFA8
:1000D00011E0A0E0B1E0EEEBFBE202C005900D9272
:1000E000A439B107D9F727E0A4E9B1E001C01D9216
:1000F000A93AB207E1F710E0C2E6D0E004C02197C8
:10010000FE010E945412C136D107C9F70E94EE0EBB
:100110000C94DD150C940000883038F08E3040F0DF
:10012000863148F4ECE6F0E008C0EDE6F0E005C00A
:10013000EBE6F0E002C0E0E0F0E09081883068F4A7
:1001400041E050E060E070E0082E04C0440F551F0D
:10015000661F771F0A94D2F714C0282F30E08E3024
:1001600018F42850310902C02E50310941E050E006
:1001700060E070E004C0440F551F661F771F2A958A
:10018000D2F7492B40832BB3883050F031E08E30CA
:1001900008F430E091E001C0990F3A95EAF701C008
:1001A00094E0922B9BBB90916800883050F021E046
:1001B0008E3008F420E081E001C0880F2A95EAF72C
:1001C00001C084E0892B809368000895CF92DF926C
:1001D000EF92FF9240911A0150911B01EEE2F6E07E
:1001E000A6E0B3E020E030E024173507B1F0261791
:1001F000370771F0E080F180E816F90649F4CD90F8
:10020000DD90ED90FC901397CD28CE28CF2841F4B7
:100210002F5F3F4F32961496E7CF80E090E002C008
:1002200081E090E0FF90EF90DF90CF900895CF9223
:10023000DF92EF92FF920F931F93CF93DF936B01A7
:100240007C018A01E90161E671E08FEF96E00E948E
:1002500015112AE030E0B701A6018FEF96E00E9469
:100260009A116FE171E08FEF96E00E9415114AE05C
:1002700050E0B8018FEF96E00E94E4116FE171E069
:100280008FEF96E00E9415114AE050E0BE018FEF1B
:1002900096E0DF91CF911F910F91FF90EF90DF904B
:1002A000CF900C941C12CF92DF92EF92FF92CF93DB
:1002B000DF936B017C01EA016EE171E08FEF96E064
:1002C0000E9415112AE030E0B701A6018FEF96E0F9
:1002D0000E949A116FE171E08FEF96E00E94151174
:1002E0004AE050E0BE018FEF96E0DF91CF91FF90A2
:1002F000EF90DF90CF900C94EB11CF92DF92EF92C2
:10030000FF920F931F93CF93DF936B017C018A01C0
:10031000E90161E271E08FEF96E00E9415112AE099
:1003200030E0B701A6018FEF96E00E949A116FE1CD
:1003300071E08FEF96E00E9415114AE050E0B8019D
:100340008FEF96E00E94E4116FE171E08FEF96E08D
:100350000E9415114AE050E0BE018FEF96E0DF9158
:10036000CF911F910F91FF90EF90DF90CF900C9461
:100370001C1260E871E08FEF96E00E9432118FEF5F
:1003800096E00E94FB0E181619066CF064E271E00C
:100390008FEF96E00E94321164E670E080E090E01A
:1003A0000E948D0EECCF08958F929F92AF92BF92D4
:1003B000CF92DF92EF92FF924B015C010E945C0EA4
:1003C0006B017C01C80CD91CEA1CFB1C8FEF96E06A
:1003D0000E94FB0E18161906A4F0B7FCF7CF0E9476
:1003E0005C0EC616D706E806F90680F780E090E0B6
:1003F000FF90EF90DF90CF90BF90AF909F908F9045
:1004000008958FEF96E0FF90EF90DF90CF90BF9030
:10041000AF909F908F900C94270F6FEF7FEFCB01E1
:100420000C94D401EF92FF920F931F93CF93DF931D
:10043000CDB7DEB7E2970FB6F894DEBF0FBECDBFE3
:100440007C0100E010E00E940D02E1E0F0E0EC0F22
:10045000FD1FE00FF11F80838E3739F46AE271E0EF
:100460008FEF96E00E943211ECCF8A3369F08C371F
:1004700031F481E090E0F7019183808305C00F5F44
:100480001F4F02331105FCF2E1E0F0E0EC0FFD1F1D
:10049000E00FF11F1082CE0101960E945A12E296DF
:1004A0000FB6F894DEBF0FBECDBFDF91CF911F9185
:1004B0000F91FF90EF9008958F929F92AF92BF920D
:1004C000CF92DF92EF92FF920F931F93CF93DF9320
:1004D0001F92CDB7DEB75C014B018A0129830E94D0
:1004E0005C0E6B017C01B5018FEF96E00E94151147
:1004F0006FE171E08FEF96E00E9415114AE050E045
:100500002981622F8FEF96E00E940F126FE171E058
:100510008FEF96E00E941511181419046CF44AE04C
:1005200050E0B4018FEF96E00E94E4116FE171E0BA
:100530008FEF96E00E941511B8018FEF96E00E94B0
:10054000151160E871E08FEF96E00E9432118FEF95
:1005500096E00E94470F84E6C80ED11CE11CF11CF6
:1005600064E670E080E090E00E94D4018C37910551
:1005700039F00E945C0E6C157D058E059F0580F399
:100580000F90DF91CF911F910F91FF90EF90DF902F
:10059000CF90BF90AF909F908F9008952F923F92F1
:1005A0004F925F926F927F928F929F92AF92BF9283
:1005B000CF92DF92EF92FF920F931F93CF93DF932F
:1005C000CDB7DEB7C456D1090FB6F894DEBF0FBE63
:1005D000CDBF2C013B01242E8E010D5C1F4F82E309
:1005E000D8011D928A95E9F7E12CF12CC12CD12C70
:1005F00092E3392EFE0131965F01C414D5040CF04C
:100600007BC04601FFEF8F1A9F0AF601EE0FFF1F16
:10061000E60DF71D80819181209100053091010543
:10062000232B21F08D30910509F464C018161906AA
:1006300024F4622D0E947D0D5DC0009709F45AC01C
:10064000D501E32D1D92EA95E9F7919581959109E0
:100650009F938F93A3E3B1E0BF93AF931F923F9219
:10066000BF92AF920E94F812D5010D900020E9F7D9
:10067000F80101900020E9F73197E01BF10BEA192E
:10068000FB09EA0FFB1F0FB6F894DEBF0FBECDBF0C
:10069000F29708F58BA9882319F08FE191E002C049
:1006A00080E891E0BF92AF929F938F931F930F9337
:1006B000A6E3B1E0BF93AF931F923F921F930F93B6
:1006C0000E94F812FFEFEF1AFF0A0FB6F894DEBF90
:1006D0000FBECDBF0FC0222DA801B7018DE391E061
:1006E0000E945C02D801E32D1D92EA95E9F74601CC
:1006F000E12CF12C640181CF8BA9882339F0222DC4
:10070000A801B7018DE391E00E945C02CC59DF4F54
:100710000FB6F894DEBF0FBECDBFDF91CF911F9112
:100720000F91FF90EF90DF90CF90BF90AF909F9090
:100730008F907F906F905F904F903F902F90089593
:10074000CF93DF9300D000D0CDB7DEB7462F9A838A
:100750008983BE016F5F7F4F81E090E00E94CE02EF
:100760000F900F900F900F90DF91CF9108952F92DF
:100770003F924F925F926F927F928F929F92AF9231
:10078000BF92CF92DF92EF92FF920F931F93CF937E
:10079000DF93CDB7DEB7C456D1090FB6F894DEBFEC
:1007A0000FBECDBF2C013B01242E8E010D5C1F4FCF
:1007B00082E3D8011D928A95E9F7E12CF12CC12C36
:1007C000D12C92E3392EFE0131965F01C414D50479
:1007D0000CF07BC04601FFEF8F1A9F0AF601EE0F67
:1007E000FF1FE60DF71D808191812091000530915A
:1007F0000105232B21F08D30910509F464C01816F2
:10080000190624F4622D0E94B90D5DC0009709F409
:100810005AC0D501E32D1D92EA95E9F7919581958E
:1008200091099F938F93A3E3B1E0BF93AF931F927E
:100830003F92BF92AF920E94F812D5010D90002016
:10084000E9F7F80101900020E9F73197E01BF10B7F
:10085000EA19FB09EA0FFB1F0FB6F894DEBF0FBEC3
:10086000CDBFF29708F58BA9882319F08FE191E0AD
:1008700002C080E891E0BF92AF929F938F931F9345
:100880000F93A6E3B1E0BF93AF931F923F921F93E4
:100890000F930E94F812FFEFEF1AFF0A0FB6F894B9
:1008A000DEBF0FBECDBF0FC0222DA801B70180E46F
:1008B00091E00E945C02D801E32D1D92EA95E9F7D0
:1008C0004601E12CF12C640181CF8BA9882339F0FA
:1008D000222DA801B70180E491E00E945C02CC596E
:1008E000DF4F0FB6F894DEBF0FBECDBFDF91CF91C3
:1008F0001F910F91FF90EF90DF90CF90BF90AF903E
:100900009F908F907F906F905F904F903F902F902F
:1009100008952F923F924F925F926F927F928F92A3
:100920009F92AF92BF92CF92DF92EF92FF920F937E
:100930001F93CF93DF93CDB7DEB7C456D1090FB65F
:10094000F894DEBF0FBECDBF3C01CE0101966C0115
:1009500084E6F60111928A95E9F720901A01309009
:100960001B019AECA92E95E0B92E2EE2822E26E0EC
:10097000922E00E010E0E12CF12C0215130521F17C
:1009800006151705C1F0F50180819181892B99F435
:10099000F40140805180B801C2010E94E600892B19
:1009A00051F4F701EE0FFF1FEC0DFD1D5182408247
:1009B000C70101967C010F5F1F4F92E0A90EB11C89
:1009C000E2E08E0E911CD9CF41E08091FC04909121
:1009D000FD04892B09F040E0B601C7010E94B7036E
:1009E000CC59DF4F0FB6F894DEBF0FBECDBFDF91FD
:1009F000CF911F910F91FF90EF90DF90CF90BF901C
:100A0000AF909F908F907F906F905F904F903F90AE
:100A10002F900895CF93DF9300D000D0CDB7DEB7ED
:100A2000462F9A838983BE016F5F7F4F81E090E0FC
:100A30000E94B7030F900F900F900F90DF91CF910E
:100A400008950F931F93CF93DF932091000530916A
:100A50000105232B09F042C0EC010E945C0E0091BD
:100A6000CE011091CF012091D0013091D101AB0185
:100A7000BC01401B510B620B730BCE01A0E0B0E038
:100A8000481759076A077B0748F1C1E08091CA01FE
:100A90009091CB01A091CC01B091CD01892B8A2BF3
:100AA0008B2B09F0C0E06C2F8DE090E00E940A05CE
:100AB0008C2F90E0A0E0B0E08093CA019093CB012E
:100AC000A093CC01B093CD010E945C0E6093CE0147
:100AD0007093CF018093D0019093D101DF91CF919A
:100AE0001F910F91089584EF91E00C94210588EBFC
:100AF0009BE00C9421050F931F93CF93DF93EC01A0
:100B0000CC0FDD1FFE01E25DF94F00811181BC01B8
:100B1000C8010E94E600892BA9F4C653DA4F8881E8
:100B20009981892B79F461E08091FC049091FD0416
:100B3000892B09F060E0C801DF91CF911F910F91DF
:100B40000C940A05DF91CF911F910F910895CF92D8
:100B5000DF92EF92FF929C01220F331FF901EA56B8
:100B6000FB4F11821082AC01440F551F440F551FDB
:100B7000FA01EE5FFA4FCC24CA94DC2C7601C082D5
:100B8000D182E282F382F901E253FC4F118210829A
:100B9000FA01EA5FFC4F1082118212821382F9017E
:100BA000EE5CFB4F118210822091FE043091FF0415
:100BB000232B31F0FF90EF90DF90CF900C947B05CA
:100BC000FF90EF90DF90CF9008952F923F924F9239
:100BD0005F926F927F928F929F92AF92BF92CF92CD
:100BE000DF92EF92FF920F931F93CF93DF93CDB7D6
:100BF000DEB72A970FB6F894DEBF0FBECDBFADB6F5
:100C0000BEB600911A0110911B01000F111F8DB784
:100C10009EB7801B910B0FB6F8949EBF0FBE8DBF81
:100C2000ADB7BEB711962D01EDB7FEB7E01BF10BC6
:100C30000FB6F894FEBF0FBEEDBF8DB79EB70196FD
:100C40001C01A80160E070E0CD010E94A412A8017F
:100C500060E070E0C1010E94A41282E3E6E9F1E0E5
:100C6000DF011D928A95E9F78091C8019091C90131
:100C7000892B81F463E471E08FEF96E00E943211DA
:100C80008FEF96E00E94470F81E090E09093C901BA
:100C90008093C8018FEF96E00E94FB0E181619068C
:100CA0000CF01BC100E010E00E940D02F801EA56B2
:100CB000FE4F8083833511F400E010E0F801EA561E
:100CC000FE4F80818A3039F08C3729F00F5F1F4F3B
:100CD000013311054CF3F801EA56FE4F1082609182
:100CE0001C0170911D0186E991E00E949F1260E550
:100CF00071E00E94AB12892B09F0EBC060911C01DE
:100D000070911D0180E090E00E949F123C01609173
:100D10001C0170911D0180E090E00E949F129C8355
:100D20008B8360911C0170911D0180E090E00E9416
:100D30009F129E838D83EAECF5E0FA83E9832EE22D
:100D4000822E26E0922E00E010E0C12CD12CE12C66
:100D5000F12C80911A0190911B01E816F90650F4CC
:100D600060911C0170911D0180E090E00E949F1233
:100D7000009729F46114710409F048C083C00E94EF
:100D80005A129C01A981BA818D919C91281739072B
:100D900081F12115310571F0F601EE0FFF1FE40D11
:100DA000F51DD4018D919C9191838083F60131963C
:100DB0006F011FC08091160190911701A091180139
:100DC000B09119018F3F9F4FAF4FBF4F91F4D401A6
:100DD0004D915C91B701CA012F83388749875A87A3
:100DE0000E94E6002F81388549855A85892B09F4B0
:100DF00097C0E981FA8121933193FA83E983FFEF68
:100E0000EF1AFF0A42E0840E911CA3CF67E571E060
:100E1000C3010E94AB12892BA9F50E945C0E60935E
:100E200012017093130180931401909315018B812B
:100E30009C81009739F160901601709017018090A5
:100E40001801909019010E9478126616770688069C
:100E50009906C1F0609316017093170180931801F1
:100E6000909319018091FE049091FF04892B51F019
:100E70004091FC046EE276E080911A0190911B0192
:100E80000E94B703AD81BE81109739F0CD010E9459
:100E900078127093FB046093FA04F10180819181D0
:100EA000892B61F041E08091FC049091FD04892B35
:100EB00009F040E0B101C8010E94B703D2018D9151
:100EC0009C91892B31F04091FC04B201C6010E9433
:100ED000B7031092C9011092C8010FB6F894BEBEB4
:100EE0000FBEADBE0FB6F894BEBE0FBEADBE2A9605
:100EF0000FB6F894DEBF0FBECDBFDF91CF911F912B
:100F00000F91FF90EF90DF90CF90BF90AF909F90A8
:100F10008F907F906F905F904F903F902F900895AB
:100F2000F801EE0FFF1FE20DF31D518340830F5FA9
:100F30001F4F5FCF2F923F924F925F926F927F929F
:100F40008F929F92AF92BF92CF92DF92EF92FF92D9
:100F50000F931F93CF93DF93CDB7DEB728970FB6CC
:100F6000F894DEBF0FBECDBF2091FA043091FB0490
:100F700021153105A9F040911A0150911B0180E023
:100F800090E08417950709F428C2FC01EE0FFF1FBB
:100F9000EA56FB4F60817181672B11F40196F1CF06
:100FA0000E945C0E6093D6017093D7018093D801A4
:100FB0009093D901C090D201D090D301E090D40198
:100FC000F090D501DC01CB018C199D09AE09BF0958
:100FD00000910A0110910B0120E030E00817190779
:100FE0002A073B0750F0CD28CE28CF2831F080913A
:100FF000C8019091C901892B91F00E94E50580916B
:10100000D6019091D701A091D801B091D9018093D8
:10101000D2019093D301A093D401B093D50126E0DF
:1010200033E03C832B8352E9C52E56E0D52E62E097
:10103000E62E65E0F62E00E010E020E030E0612CC6
:10104000712C1A82198280911A0190911B01081744
:10105000190708F0BDC02F8338870E945C0E60938B
:10106000D6017093D7018093D8019093D901EB8179
:10107000FC8180809180A280B3802F81388581148B
:101080009104A104B10409F495C09801220F331F03
:101090003E832D83F901EA56FB4F20813181232BBA
:1010A00009F486C0408151812091000130910101F5
:1010B00024173507D0F42090160130901701409086
:1010C0001801509019013FEF2316330643065306CB
:1010D00061F0F70120813181428153812F3FFFEF81
:1010E0003F074F075F0709F4E9C0ED81FE81EA562B
:1010F000FB4F408151812091080130910901241753
:10110000350790F4AB01BC01481959096A097B09FC
:1011100080910C0190910D01A0E0B0E0841795073B
:10112000A607B70708F4E3C08091FE049091FF047E
:10113000892B39F08091020190910301009709F009
:101140003EC18D819E8182539C4F5C01FC012081B8
:10115000318180910401909105018217930798F4E1
:10116000ED81FE81EA56FB4F20813181F6014081FD
:101170005181F70160817181828193810E947D019B
:10118000F50111821082ED81FE81EE5CFB4F8081C2
:101190009181892B09F0C2C0F1E06F16710409F446
:1011A000F9C08091FE049091FF04892B09F0F9C0E9
:1011B00021E030E00F5F1F4F8B819C8104969C8360
:1011C0008B8392E0C90ED11CE4E0EE0EF11C3BCF04
:1011D000232B19F40E94730502C00E9477054091E9
:1011E00012015091130160911401709115014F3F4C
:1011F000FFEF5F076F077F0709F4FEC080911601BC
:1012000090911701A0911801B09119018F3F9F4F44
:10121000AF4FBF4F09F4F0C08091D6019091D70134
:10122000A091D801B091D9018C019D01041B150B2F
:10123000260B370B40910E0150910F016091100168
:1012400070911101401751076207730708F0D4C06D
:101250004FEF5FEFBA01409316015093170160936F
:101260001801709319018093120190931301A093B8
:101270001401B09315018091FE049091FF04892B15
:1012800009F4BAC08FEF9FEF28960FB6F894DEBF2F
:101290000FBECDBFDF91CF911F910F91FF90EF90C7
:1012A000DF90CF90BF90AF909F908F907F906F9086
:1012B0005F904F903F902F900C948904F70120820B
:1012C000318242825382209316013093170140935A
:1012D0001801509319012091FE043091FF04232B33
:1012E00009F403CF21E030E03A832983FECE208148
:1012F0003181F60140815181F701608171818281E4
:1013000093810E9417018091FE049091FF0466244E
:101310006394712C892B09F436CF4CC02081318124
:1013200080910601909107018217930708F034CF4E
:101330004091D6015091D7016091D8017091D901A7
:10134000EB81FC8180819181A281B381481B590B83
:101350006A0B7B0B80910C0190910D01A0E0B0E035
:1013600084179507A607B70708F016CFF601408146
:101370005181F70160817181828193810E945301C3
:101380008091FE049091FF04892B21F021E030E050
:101390003A832983C8010E94A70566246394712CAF
:1013A00000CF29813A81232B09F402CFC8010E9482
:1013B0008904FECE21E030E03A832983E4CEED813A
:1013C000FE81EA56FB4F208131812817390708F446
:1013D000B8CEC8010E947B05D6CE2130310531F44C
:1013E0006AE571E08FEF96E00E94321182E090E0B2
:1013F0009093FB048093FA0428960FB6F894DEBF0E
:101400000FBECDBFDF91CF911F910F91FF90EF9055
:10141000DF90CF90BF90AF909F908F907F906F9014
:101420005F904F903F902F9008952F923F924F9250
:101430005F926F927F928F929F92AF92BF92CF9264
:10144000DF92EF92FF920F931F93CF93DF93CDB76D
:10145000DEB7E2970FB6F894DEBF0FBECDBF8C01AA
:101460001816190624F40E94E90D282F75C0892B3F
:1014700009F471C060E671E08FEF96E00E941511EB
:1014800066277727601B710B4AE050E08FEF96E0EC
:101490000E94E41160E871E08FEF96E00E94321143
:1014A0008FEF96E00E94FB0E892BD1F38E010F5F28
:1014B0001F4F7801302E212EC12CD12C812C912C44
:1014C000A12CB12C412C512C38010E940D02F801A5
:1014D00081938F018B3349F4A114B10431F4F701E6
:1014E0001082A32CB22C302E212EF70180818B3359
:1014F00041F48114910429F41082832C922C302E13
:10150000212EF70180818B3341F4C114D10429F4D9
:101510001082C32CD22C302E212EF70181917F0115
:101520008A3029F4F301E40DF51D108209C08C37CF
:10153000C9F3FFEF4F1A5F0A82E34816510429F6F8
:10154000C114D10431F0C6010E945A1221E0892B46
:1015500019F420E001C02FEF822FE2960FB6F89425
:10156000DEBF0FBECDBFDF91CF911F910F91FF90D6
:10157000EF90DF90CF90BF90AF909F908F907F9033
:101580006F905F904F903F902F9008956F927F9251
:101590008F929F92AF92BF92CF92DF92EF92FF9283
:1015A0000F931F93CF93DF930E945C0E4B015C015E
:1015B000F2E96F2EF6E07F2E0AED11E0AEE3EA2E9F
:1015C000A2E0FA2EB6E0CB2EB3E0DB2EC0E0D0E0F6
:1015D00080911A0190911B01C817D90708F049C0E2
:1015E000F301819191913F010E94150A90E0F80169
:1015F000208131818217930791F18130910561F546
:10160000F70140815181628173819E01220F331F56
:10161000F90184169506A606B70661F0EA56FB4F57
:10162000408151814F5F5F4F51834083F901E25305
:10163000FC4F02C0EE5CFB4F408151814F5F5F4F1A
:1016400051834083F70180829182A282B382F601A6
:1016500080829182A282B382F80191838083219655
:101660000E5F1F4FF4E0EF0EF11C84E0C80ED11C9A
:10167000AFCFDF91CF911F910F91FF90EF90DF904F
:10168000CF90BF90AF909F908F907F906F90089574
:101690001F920F920FB60F9211242F933F934F93E7
:1016A0005F936F937F938F939F93AF93BF93EF93CA
:1016B000FF930E94C60AFF91EF91BF91AF919F9156
:1016C0008F917F916F915F914F913F912F910F90EB
:1016D0000FBE0F901F901895AF92BF92CF92DF92DE
:1016E000EF92FF920F931F93CF93DF9300D0CDB76C
:1016F000DEB71A82198240E855E260E070E08FEFB1
:1017000096E00E9413108FEF96E00E949B108823B2
:10171000D1F38FEF96E00E94470F8FEF96E00E9483
:10172000FB0E892B29F08FEF96E00E94270FF5CF53
:101730000E94B9010E940D0283349105D9F70E94DD
:101740000D02CA97E1F7CE0101960E941202909312
:101750001B0180931A0142E9E42E46E0F42E670152
:1017600000E010E080911A0190911B010817190701
:1017700058F4CE0101960E941202F60181939193D2
:101780006F010F5F1F4FEECFCE0101960E94120234
:101790009093FF048093FE04892BD9F5CE01019626
:1017A0000E94120290930D0180930C01CE010196CC
:1017B0000E9412029093090180930801CE010196C4
:1017C0000E9412029093070180930601CE010196B8
:1017D0000E9412029093050180930401CE010196AC
:1017E0000E9412029093030180930201CE010196A0
:1017F0000E941202909301058093000589819A81CD
:10180000019741F164E671E08FEF96E00E9432119A
:1018100021C0CE0101960E9412029093FD04809394
:10182000FC043EE2C32E36E0D32E00E010E08091AF
:101830001A0190911B010817190708F0AFCFCE01CC
:1018400001960E941202F601819391936F010F5F3E
:101850001F4FEDCF6EE771E08FEF96E00E941511FC
:1018600060911A0170911B014AE050E08FEF96E001
:101870000E94161222E9C22E26E0D22E00E010E0CD
:1018800080911A0190911B016FE771E00817190709
:1018900088F48FEF96E00E941511F6016191719125
:1018A0006F014AE050E08FEF96E00E94E4110F5F75
:1018B0001F4FE6CF8FEF96E00E9415116091FE0456
:1018C0007091FF044AE050E08FEF96E00E941612FC
:1018D0008091FE049091FF04892B09F07FC06FE78F
:1018E00071E08FEF96E00E94151160910C017091EC
:1018F0000D014AE050E08FEF96E00E9416126FE76C
:1019000071E08FEF96E00E941511609108017091CF
:1019100009014AE050E08FEF96E00E9416126FE74F
:1019200071E08FEF96E00E941511609106017091B1
:1019300007014AE050E08FEF96E00E9416126FE731
:1019400071E08FEF96E00E94151160910401709193
:1019500005014AE050E08FEF96E00E9416126FE713
:1019600071E08FEF96E00E94151160910201709175
:1019700003014AE050E08FEF96E00E9416126FE7F5
:1019800071E08FEF96E00E94151160910005709153
:1019900001054AE050E08FEF96E00E94161261E8E0
:1019A00071E08FEF96E00E94321140E062E976E04C
:1019B00080911A0190911B010E94CE028091FE0439
:1019C0009091FF04892BD9F141E06EE276E080919D
:1019D0001A0190911B010E94CE0231C06FE771E0A5
:1019E0008FEF96E00E9415116091FC047091FD0448
:1019F0004AE050E08FEF96E00E9416129EE2C92E58
:101A000096E0D92E00E010E080911A0190911B0120
:101A10000817190708F063CF6FE771E08FEF96E0C2
:101A20000E941511F601619171916F014AE050E039
:101A30008FEF96E00E94E4110F5F1F4FE5CF8AED14
:101A4000C82E81E0D82E00E010E080911A0190911C
:101A50001B0108171907B0F4C8010E94A705570118
:101A6000F701819191917F010E94150A90E0F601A2
:101A7000819391936F01F50180810E948C000F5F2B
:101A80001F4FE3CF61E08DE090E00E94A0030F9034
:101A90000F90DF91CF911F910F91FF90EF90DF900A
:101AA000CF90BF90AF900895833081F028F48130BB
:101AB00099F08230A1F008958630A9F08730B9F00E
:101AC0008430D1F4809180008F7D03C080918000AC
:101AD0008F7780938000089584B58F7702C084B596
:101AE0008F7D84BD08958091B0008F7703C0809171
:101AF000B0008F7D8093B0000895CF93DF9390E086
:101B0000FC01E458FF4F2491FC01E057FF4F849102
:101B1000882361F190E0880F991FFC01E854FF4F82
:101B2000C591D491FC01E255FF4FA591B49161118B
:101B300009C09FB7F8948881209582238883EC910F
:101B40002E230BC0623061F49FB7F8943881822F46
:101B5000809583238883EC912E2B2C939FBF06C006
:101B60008FB7F894E8812E2B28838FBFDF91CF9118
:101B700008951F93CF93DF93282F30E0F901E859A0
:101B8000FF4F8491F901E458FF4FD491F901E057D8
:101B9000FF4FC491CC23C9F0162F81110E94540D20
:101BA000EC2FF0E0EE0FFF1FE255FF4FA591B4912F
:101BB0008FB7F894111105C09C91ED2FE095E923A2
:101BC00002C0EC91ED2BEC938FBFDF91CF911F9171
:101BD0000895CF93DF93282F30E0F901E859FF4FA4
:101BE0008491F901E458FF4FD491F901E057FF4F78
:101BF000C491CC2391F081110E94540DEC2FF0E0A0
:101C0000EE0FFF1FEC55FF4FA591B491EC91ED2322
:101C100081E090E021F480E002C080E090E0DF917C
:101C2000CF9108951F920F920FB60F9211242F9308
:101C30003F938F939F93AF93BF938091F7069091BB
:101C4000F806A091F906B091FA063091F60623E065
:101C5000230F2D3720F40196A11DB11D05C026E8E4
:101C6000230F0296A11DB11D2093F6068093F7065F
:101C70009093F806A093F906B093FA068091FB06BC
:101C80009091FC06A091FD06B091FE060196A11D63
:101C9000B11D8093FB069093FC06A093FD06B093C4
:101CA000FE06BF91AF919F918F913F912F910F9021
:101CB0000FBE0F901F9018952FB7F8946091F706FC
:101CC0007091F8068091F9069091FA062FBF089559
:101CD0003FB7F8948091FB069091FC06A091FD0619
:101CE000B091FE0626B5A89B05C02F3F19F00196BE
:101CF000A11DB11D3FBFBA2FA92F982F8827820F92
:101D0000911DA11DB11DBC01CD0142E0660F771FE1
:101D1000881F991F4A95D1F70895CF92DF92EF92CD
:101D2000FF92CF93DF936B017C010E94680EEB0161
:101D3000C114D104E104F10479F00E94680E6C1B17
:101D40007D0B683E7340A0F381E0C81AD108E1081A
:101D5000F108C851DC4FECCFDF91CF91FF90EF90AD
:101D6000DF90CF900895789484B5826084BD84B567
:101D7000816084BD85B5826085BD85B5816085BD86
:101D8000EEE6F0E0808181608083E1E8F0E010829F
:101D9000808182608083808181608083E0E8F0E0E0
:101DA000808181608083E1EBF0E0808184608083CA
:101DB000E0EBF0E0808181608083EAE7F0E0808101
:101DC0008460808380818260808380818160808361
:101DD0008081806880831092C10008950E94B30EB4
:101DE0000E946C0BCFECDFE00E949A072097E1F392
:101DF0000E94CF0FF9CFFC0124853585F901E05C05
:101E0000FF4F80819181329620813181821B930B1B
:101E10008F7399270895DC011C96ED91FC911D9715
:101E2000DF01A05CBF4F2D913C91119712968D91CF
:101E30009C9111972817390739F08D919C91E80FE3
:101E4000F91F808190E008958FEF9FEF0895FC01C6
:101E5000A485B585FD01E05CFF4F2081318132967C
:101E6000808191812817390779F080819181A80FAD
:101E7000B91F8C91208131812F5F3F4F2F73332702
:101E80003183208390E008958FEF9FEF0895FC0148
:101E900081A1882329F0A489B5898C9186FFFBCF85
:101EA00011A208950F931F93CF93DF93FC01A68592
:101EB000B7858D01005C1F4FE801888199810196EB
:101EC0008F739927AD014E5B5F4FEA0128813981FD
:101ED00082179307D1F3E80128813981A20FB31F3C
:101EE0006C93A685B785A05CBF4F11969C938E938B
:101EF000A689B7892C9181E090E0078C02C0880FF9
:101F0000991F0A94E2F7822B8C9381E081A30488C5
:101F1000F589E02D80818064808381E090E0DF910D
:101F2000CF911F910F91089508951F920F920FB6B0
:101F30000F9211242F934F935F938F939F93EF935F
:101F4000FF938091C00082FD1CC02091C60080914B
:101F5000A5079091A60701968F7399274091A7072F
:101F60005091A8078417950771F0E091A507F091AB
:101F7000A607EB59F84F20839093A6078093A507F7
:101F800002C08091C600FF91EF919F918F915F9168
:101F90004F912F910F900FBE0F901F9018958FEFBC
:101FA00096E00E94FB0E892B11F00C94940F08957B
:101FB0001F920F920FB60F9211242F933F938F937E
:101FC0009F93EF93FF932091610730916207809177
:101FD0006307909164072817390731F48091C10095
:101FE0008F7D8093C10014C0E0916307F091640776
:101FF000EF5DF84F2081809163079091640701960F
:102000008F73992790936407809363072093C6008A
:10201000FF91EF919F918F913F912F910F900FBE64
:102020000F901F901895CF92DF92EF92FF920F932F
:102030001F93CF93DF93EC016A017B014115514E51
:102040006105710509F1EC89FD8981E090E008A046
:1020500002C0880F991F0A94E2F7808360E079E05C
:102060008DE390E0A70196010E94321289019A0146
:1020700001501109210931093695279517950795C2
:10208000980101151041A8F0EC89FD89108260E8E3
:1020900074E88EE190E0A70196010E943212DA0105
:1020A000C9010197A109B109B695A795979587959B
:1020B0009C01E889F9893083EA89FB89208319A288
:1020C000EE89FF89408181E090E09C010C8C02C088
:1020D000220F331F0A94E2F7242B2083EE89FF8915
:1020E00040819C010D8C02C0220F331F0A94E2F73D
:1020F000242B2083EE89FF8940819C010E8C02C035
:10210000220F331F0A94E2F7242B2083EE89FF89E4
:1021100020810F8C02C0880F991F0A94E2F78095E6
:1021200082238083DF91CF911F910F91FF90EF90D9
:10213000DF90CF90089581E00895EFEFF6E01382ED
:10214000128288EE93E0A0E0B0E084839583A683BA
:10215000B78387E891E09183808385E697E0958750
:10216000848781E297E09787868785EC90E0918B62
:10217000808B84EC90E0938B828B80EC90E0958B4D
:10218000848B81EC90E0978B868B82EC90E0918F32
:10219000808F86EC90E0938F828F84E0848F83E041
:1021A000858F87E0868F85E0878F81E080A3089503
:1021B000CF92DF92EF92FF920F931F93CF93DF9313
:1021C0006C01EB017B01E40EF51E00E010E0CE1582
:1021D000DF0561F06991D601ED91FC910190F081EC
:1021E000E02DC6010995080F191FF1CFC801DF9135
:1021F000CF911F910F91FF90EF90DF90CF900895B6
:102200006115710579F0FB0101900020E9F7319724
:10221000AF01461B570BDC01ED91FC910280F3816D
:10222000E02D099480E090E008950C940011DC0109
:10223000ED91FC910190F081E02D09940F931F9393
:10224000CF93DF93EC016DE00E9417118C016AE0DF
:10225000CE010E941711800F911FDF91CF911F9126
:102260000F9108950F931F93CF93DF93EC010E947A
:1022700000118C01CE010E941E11800F911FDF9171
:10228000CF911F910F9108958F929F92AF92BF921D
:10229000CF92DF92EF92FF920F931F93CF93DF9332
:1022A000CDB7DEB7A1970FB6F894DEBF0FBECDBF96
:1022B0006C01142FE52FCB01022F19A2223008F454
:1022C0000AE07E0121E2E20EF11C802E912CA12C6D
:1022D000B12C612F7E2FA50194010E943212029F22
:1022E0001019112481E0E81AF1081A3014F4105D75
:1022F00001C0195CF7011083122FE32FCA01232BB1
:10230000242B252B31F7B701C6010E940011A1969D
:102310000FB6F894DEBF0FBECDBFDF91CF911F91F6
:102320000F91FF90EF90DF90CF90BF90AF909F9074
:102330008F900895CF92DF92EF92FF920F931F93A9
:10234000CF93DF93EC016A017B012115310579F40C
:10235000E881F9810190F081E02D642FDF91CF9128
:102360001F910F91FF90EF90DF90CF9009942A304A
:102370003105E9F477FF1AC06DE20E9417118C0154
:1023800044275527BA014C195D096E097F092AE0D7
:10239000CE010E944411800F911FDF91CF911F91B8
:1023A0000F91FF90EF90DF90CF9008952AE0B70152
:1023B000A601CE01DF91CF911F910F91FF90EF9079
:1023C000DF90CF900C9444119A01AB01770F660B0C
:1023D000770B0C949A110F931F93CF93DF93EC011B
:1023E0009A01AB01770F660B770B0E949A118C0153
:1023F000CE010E941E11800F911FDF91CF911F917E
:102400000F9108952115310541F4DC01ED91FC9106
:102410000190F081E02D642F09940C9444119A01ED
:10242000462F50E060E070E00C9402129A01AB017C
:1024300060E070E00C9402120F931F93CF93DF9330
:10244000EC019A01AB0160E070E00E9402128C0185
:10245000CE010E941E11800F911FDF91CF911F911D
:102460000F910895A1E21A2EAA1BBB1BFD010DC0FE
:10247000AA1FBB1FEE1FFF1FA217B307E407F50734
:1024800020F0A21BB30BE40BF50B661F771F881F10
:10249000991F1A9469F760957095809590959B01A6
:1024A000AC01BD01CF010895EE0FFF1F0590F4911F
:1024B000E02D0994FC0188279927E8942191203286
:1024C000E9F3293010F02E30C8F32B3241F02D32D1
:1024D00039F4689404C00E94F012820F911D21917A
:1024E00020532A30C0F31EF4909581959F4F089594
:1024F0001F93FC0199278827BC01E89411911032A1
:10250000E9F3193010F01E30C8F31B3251F01D32C0
:1025100049F4689406C00E94DB12610F711D811D91
:10252000911D119110531A30B0F33EF4909580959F
:10253000709561957F4F8F4F9F4F1F91089544E98C
:1025400051E00E94B4120895DC0101C06D93415026
:102550005040E0F70895FB01DC018D910190801956
:102560000110D9F3990B0895FA01A191B081009758
:1025700019F41097E1F0CD01DC01CD010D900020A0
:1025800011F4C00113C0FB012191222319F0201581
:10259000D9F7F3CFFB012191201519F41E92119662
:1025A00006C02223C1F70D900020A1F7D001FA0147
:1025B000A193B0830895592F482F372F262F660FE8
:1025C000771F881F991F660F771F881F991F620F3B
:1025D000731F841F951F660F771F881F991F08950B
:1025E0007AE0979F902D879F802D910D112408955B
:1025F000AEE0B0E0EEEFF2E10C94B4150D891E8967
:102600008F89988D26E02C831A83098397FF02C057
:1026100080E090E801979E838D83AE01455E5F4F19
:10262000698D7A8DCE0101960E9428134D815E81BD
:1026300057FD0AC02F813885421753070CF49A01C1
:10264000F801E20FF31F10822E96E4E00C94D015EF
:10265000ACE0B0E0EEE2F3E10C94A6157C016B0176
:102660008A01FC0117821682838181FFBDC1CE01E0
:1026700001964C01F7019381F60193FD859193FF3B
:1026800081916F01882309F4ABC1853239F493FD40
:10269000859193FF81916F01853229F4B70190E014
:1026A0000E941015E7CF512C312C20E02032A0F4ED
:1026B0008B3269F030F4803259F0833269F4206152
:1026C0002CC08D3239F0803339F4216026C022606D
:1026D000246023C0286021C027FD27C030ED380FBB
:1026E0003A3078F426FF06C0FAE05F9E300D1124E0
:1026F000532E13C08AE0389E300D1124332E2062F1
:102700000CC08E3221F426FD6BC1206406C08C36CD
:1027100011F4206802C0883641F4F60193FD8591DA
:1027200093FF81916F018111C1CF982F9F7D9554A7
:10273000933028F40C5F1F4FFFE3F9830DC08336FD
:1027400031F0833771F0833509F05BC022C0F801A6
:10275000808189830E5F1F4F44244394512C540180
:1027600015C03801F2E06F0E711CF801A080B18035
:1027700026FF03C0652D70E002C06FEF7FEFC5013B
:102780002C870E9405152C0183012C852F77222E82
:1027900017C03801F2E06F0E711CF801A080B18003
:1027A00026FF03C0652D70E002C06FEF7FEFC5010B
:1027B0002C870E94FA142C012C852068222E83017C
:1027C00023FC1BC0832D90E048165906B0F4B701D6
:1027D00080E290E00E9410153A94F4CFF50127FCB6
:1027E000859127FE81915F01B70190E00E9410154D
:1027F00031103A94F1E04F1A51084114510471F725
:10280000E5C0843611F0893639F5F80127FF07C095
:1028100060817181828193810C5F1F4F08C060814C
:102820007181072E000C880B990B0E5F1F4F2F76BE
:10283000722E97FF09C090958095709561957F4F96
:102840008F4F9F4F2068722E2AE030E0A4010E9433
:102850004815A82EA81844C0853729F42F7EB22E1B
:102860002AE030E025C0F22FF97FBF2E8F36C1F06D
:1028700018F4883579F0B4C0803719F0883721F022
:10288000AFC02F2F2061B22EB4FE0DC08B2D8460FF
:10289000B82E09C024FF0AC09F2F9660B92E06C02B
:1028A00028E030E005C020E130E002C020E132E065
:1028B000F801B7FE07C060817181828193810C5F4E
:1028C0001F4F06C06081718180E090E00E5F1F4F56
:1028D000A4010E944815A82EA818FB2DFF777F2E73
:1028E00076FE0BC0372D3E7FA51450F474FE0AC04F
:1028F00072FC08C0372D3E7E05C0BA2C372D03C0B0
:10290000BA2C01C0B52C34FF0DC0FE01EA0DF11D3B
:102910008081803311F4397E09C032FF06C0B39440
:10292000B39404C0832F867809F0B39433FD13C0A9
:1029300030FF06C05A2CB31418F4530C5B18B32C98
:10294000B31468F4B70180E290E03C870E94101550
:10295000B3943C85F5CFB31410F43B1801C0312C6F
:1029600034FF12C0B70180E390E03C870E9410154D
:102970003C8532FF17C031FD03C088E790E002C0FC
:1029800088E590E0B7010CC0832F867859F031FFBD
:1029900002C08BE201C080E237FD8DE2B70190E01A
:1029A0000E941015A51438F4B70180E390E00E944E
:1029B00010155A94F7CFAA94F401EA0DF11D808105
:1029C000B70190E00E941015A110F5CF332009F453
:1029D00051CEB70180E290E00E9410153A94F6CFF4
:1029E000F7018681978102C08FEF9FEF2C96E2E17D
:1029F0000C94C215FC010590615070400110D8F78D
:102A0000809590958E0F9F1F0895FC016150704036
:102A100001900110D8F7809590958E0F9F1F089513
:102A20000F931F93CF93DF93FB01238121FD03C0FD
:102A30008FEF9FEF28C022FF16C046815781248167
:102A400035814217530744F4A081B1819D012F5F66
:102A50003F4F318320838C93268137812F5F3F4FF7
:102A60003783268310C0EB01092F182F0084F185CE
:102A7000E02D0995892BE1F68E819F8101969F8338
:102A80008E83812F902FDF91CF911F910F91089509
:102A9000FA01AA27283051F1203181F1E8946F938F
:102AA0006E7F6E5F7F4F8F4F9F4FAF4FB1E03ED035
:102AB000B4E03CD0670F781F891F9A1FA11D680FD3
:102AC000791F8A1F911DA11D6A0F711D811D911D06
:102AD000A11D20D009F468943F912AE0269F11247B
:102AE0003019305D3193DEF6CF010895462F4770DF
:102AF000405D4193B3E00FD0C9F7F6CF462F4F703A
:102B0000405D4A3318F0495D31FD4052419302D097
:102B1000A9F7EACFB4E0A69597958795779567953D
:102B2000BA95C9F700976105710508959B01AC013D
:102B30000A2E06945795479537952795BA95C9F764
:102B4000620F731F841F951FA01D08952F923F923F
:102B50004F925F926F927F928F929F92AF92BF92AD
:102B6000CF92DF92EF92FF920F931F93CF93DF9359
:102B7000CDB7DEB7CA1BDB0B0FB6F894DEBF0FBEB6
:102B8000CDBF09942A88398848885F846E847D8403
:102B90008C849B84AA84B984C884DF80EE80FD8005
:102BA0000C811B81AA81B981CE0FD11D0FB6F8947B
:0E2BB000DEBF0FBECDBFED010895F894FFCF3C
:102BBE003200BC02C8001E000A00FA002C0130755B
:102BCE000000FFFFFFFFFFFFFFFF05001F014B3B54
:102BDE0000553B00616C69766500636F6E74696EBB
:102BEE0075650025640025732573257300534D000C
:102BFE00575000537461747573436865636B3B0083
:102C0E00537461747573004F4B00646561643B00CF
:102C1E0052503B004D697373696E6720436F6E6649
:102C2E00696775726174696F6E20456E6400433A10
:102C3E00007C0000000000520FD810FB0E270F0B77
:042C4E000F470F001D
:00000001FF
